:10000000A032002031310000D59A00001D310000DF
:100010001D3100001D3100001D31000000000000F6
:10002000000000000000000000000000392F000068
:100030001D31000000000000E52E00001D31000011
:100040009D2E00009D2E00009D2E00009D2E000084
:100050009D2E00009D2E00009D2E00009D2E000074
:100060009D2E00009D2E00009D2E00009D2E000064
:100070009D2E00009D2E00009D2E00009D2E000054
:100080009D2E00009D2E00009D2E00009D2E000044
:100090009D2E00009D2E00009D2E00009D2E000034
:1000A0009D2E00009D2E00009D2E00009D2E000024
:1000B0009D2E00009D2E00009D2E00009D2E000014
:1000C0009D2E00009D2E00009D2E00009D2E000004
:1000D0009D2E00009D2E00009D2E00009D2E0000F4
:1000E0009D2E00009D2E00009D2E00009D2E0000E4
:1000F0009D2E00009D2E00009D2E00009D2E0000D4
:1001000081F0004102E000BF83F0004330B54FEAC8
:1001100041044FEA430594EA050F08BF90EA020F35
:100120001FBF54EA000C55EA020C7FEA645C7FEAC8
:10013000655C00F0E2804FEA5454D4EB5555B8BFEB
:100140006D420CDD2C4480EA020281EA030382EA5C
:10015000000083EA010180EA020281EA0303362DEE
:1001600088BF30BD11F0004F4FEA01314FF4801CC1
:100170004CEA113102D0404261EB410113F0004FD3
:100180004FEA03334CEA133302D0524263EB43038A
:1001900094EA050F00F0A780A4F10104D5F1200E28
:1001A0000DDB02FA0EFC22FA05F2801841F1000183
:1001B00003FA0EF2801843FA05F359410EE0A5F157
:1001C00020050EF1200E012A03FA0EFC28BF4CF088
:1001D000020C43FA05F3C01851EBE37101F000453E
:1001E00007D54FF0000EDCF1000C7EEB00006EEB4B
:1001F0000101B1F5801F1BD3B1F5001F0CD34908D5
:100200005FEA30004FEA3C0C04F101044FEA44522B
:1002100012F5800F80F09A80BCF1004F08BF5FEAB2
:10022000500C50F1000041EB045141EA050130BD92
:100230005FEA4C0C404141EB0101013C28BFB1F5A4
:10024000801FE9D291F0000F04BF01460020B1FAEF
:1002500081F308BF2033A3F10B03B3F120020CDAC2
:100260000C3208DD02F1140CC2F10C0201FA0CF0A0
:1002700021FA02F10CE002F11402D8BFC2F1200C05
:1002800001FA02F120FA0CFCDCBF41EA0C019040BB
:10029000E41AA2BF01EB0451294330BD6FEA040404
:1002A0001F3C1CDA0C340EDC04F11404C4F12002EF
:1002B00020FA04F001FA02F340EA030021FA04F301
:1002C00045EA030130BDC4F10C04C4F1200220FA58
:1002D00002F001FA04F340EA0300294630BD21FA96
:1002E00004F0294630BD94F0000F83F4801306BF5C
:1002F00081F480110134013D4EE77FEA645C18BF50
:100300007FEA655C29D094EA050F08BF90EA020FE6
:1003100005D054EA000C04BF1946104630BD91EADE
:10032000030F1EBF0021002030BD5FEA545C05D1E1
:100330004000494128BF41F0004130BD14F5800420
:100340003CBF01F5801130BD01F0004545F0FE4194
:1003500041F470014FF0000030BD7FEA645C1ABFC9
:10036000194610467FEA655C1CBF0B46024650EA00
:10037000013406BF52EA033591EA030F41F400212C
:1003800030BD00BF90F0000F04BF0021704730B5B2
:100390004FF4806404F132044FF000054FF0000187
:1003A00050E700BF90F0000F04BF0021704730B548
:1003B0004FF4806404F1320410F0004548BF40421D
:1003C0004FF000013EE700BF42004FEAE2014FEA72
:1003D00031014FEA02701FBF12F07F4393F07F4F4D
:1003E00081F06051704732F07F4208BF704793F050
:1003F0007F4F04BF41F40021704730B54FF4607463
:1004000001F0004521F000411CE700BF50EA010265
:1004100008BF704730B54FF000050AE050EA01020E
:1004200008BF704730B511F0004502D5404261EB7E
:1004300041014FF4806404F132045FEA915C3FF4BF
:10044000D8AE4FF003025FEADC0C18BF03325FEA5C
:10045000DC0C18BF033202EBDC02C2F1200300FA0D
:1004600003FC20FA02F001FA03FE40EA0E0021FA32
:1004700002F11444BDE600BF70B54FF0FF0C4CF420
:10048000E06C1CEA11541DBF1CEA135594EA0C0FD2
:1004900095EA0C0F00F0DEF82C4481EA030621EA0D
:1004A0004C5123EA4C5350EA013518BF52EA033548
:1004B00041F4801143F4801338D0A0FB02CE4FF0FA
:1004C0000005E1FB02E506F00042E0FB03E54FF02A
:1004D0000006E1FB03569CF0000F18BF4EF0010E22
:1004E000A4F1FF04B6F5007F64F5407404D25FEA1E
:1004F0004E0E6D4146EB060642EAC62141EA5551D1
:100500004FEAC52040EA5E504FEACE2EB4F1FD0C12
:1005100088BFBCF5E06F1ED8BEF1004F08BF5FEA90
:10052000500E50F1000041EB045170BD06F0004642
:1005300046EA010140EA020081EA0301B4EB5C04EF
:10054000C2BFD4EB0C0541EA045170BD41F48011E7
:100550004FF0000E013C00F3AB8014F1360FDEBF0C
:10056000002001F0004170BDC4F10004203C35DAE8
:100570000C341BDC04F11404C4F1200500FA05F36B
:1005800020FA04F001FA05F240EA020001F000420C
:1005900021F0004110EBD37021FA04F642EB060182
:1005A0005EEA430E08BF20EAD37070BDC4F10C04AC
:1005B000C4F1200500FA04F320FA05F001FA04F270
:1005C00040EA020001F0004110EBD37041F100015C
:1005D0005EEA430E08BF20EAD37070BDC4F1200567
:1005E00000FA05F24EEA020E20FA04F301FA05F2CF
:1005F00043EA020321FA04F001F0004121FA04F277
:1006000020EA020000EBD3705EEA430E08BF20EA46
:10061000D37070BD94F0000F0FD101F00046400080
:1006200041EB010111F4801F08BF013CF7D041EA02
:10063000060195F0000F18BF704703F00046520006
:1006400043EB030313F4801F08BF013DF7D043EAD7
:100650000603704794EA0C0F0CEA135518BF95EA8D
:100660000C0F0CD050EA410618BF52EA4306D1D114
:1006700081EA030101F000414FF0000070BD50EA33
:10068000410606BF1046194652EA430619D094EABD
:100690000C0F02D150EA013613D195EA0C0F05D1A7
:1006A00052EA03361CBF104619460AD181EA0301FB
:1006B00001F0004141F0FE4141F470014FF00000B3
:1006C00070BD41F0FE4141F4780170BD70B54FF04E
:1006D000FF0C4CF4E06C1CEA11541DBF1CEA1355CE
:1006E00094EA0C0F95EA0C0F00F0A7F8A4EB0504B0
:1006F00081EA030E52EA03354FEA013100F08880A7
:100700004FEA03334FF0805545EA131343EA12636F
:100710004FEA022245EA111545EA10654FEA002624
:100720000EF000419D4208BF964244F1FD0404F5DD
:10073000407402D25B084FEA3202B61A65EB030539
:100740005B084FEA32024FF480104FF4002CB6EBF6
:10075000020E75EB030E22BFB61A754640EA0C0076
:100760005B084FEA3202B6EB020E75EB030E22BFB6
:10077000B61A754640EA5C005B084FEA3202B6EBF7
:10078000020E75EB030E22BFB61A754640EA9C00B6
:100790005B084FEA3202B6EB020E75EB030E22BF86
:1007A000B61A754640EADC0055EA060E18D04FEA44
:1007B000051545EA16754FEA06164FEAC30343EAE4
:1007C00052734FEAC2025FEA1C1CC0D111F4801FB1
:1007D0000BD141EA00014FF000004FF0004CB6E7AA
:1007E00011F4801F04BF01430020B4F1FD0C88BF49
:1007F000BCF5E06F3FF6AFAEB5EB030C04BFB6EB54
:10080000020C5FEA500C50F1000041EB045170BD46
:100810000EF0004E4EEA113114EB5C04C2BFD4EB73
:100820000C0541EA045170BD41F480114FF0000EF7
:10083000013C90E645EA060E8DE60CEA135594EA73
:100840000C0F08BF95EA0C0F3FF43BAF94EA0C0F76
:100850000AD150EA01347FF434AF95EA0C0F7FF4EB
:1008600025AF104619462CE795EA0C0F06D152EA3F
:1008700003353FF4FDAE1046194622E750EA410623
:1008800018BF52EA43067FF4C5AE50EA41047FF434
:100890000DAF52EA43057FF4EBAE12E74A0011D2E6
:1008A00012F5001211D20DD56FF47873B3EB6252CA
:1008B0000ED44FEAC12343F0004343EA505323FAD6
:1008C00002F070474FF00000704750EA013002D14B
:1008D0004FF0FF3070474FF00000704753B94AB9EE
:1008E000002908BF00281CBF4FF0FF314FF0FF3038
:1008F00000F06CB9ADF1080C6DE904CE00F006F81B
:10090000DDF804E0DDE9022304B070472DE9F0478B
:10091000089E0D4604468E46002B40F082808A4297
:10092000174646D9B2FA82F24AB1C2F1200105FA5D
:1009300002F320FA01F1974041EA030E94404FEA96
:100940001748230CBEFBF8FCB9B208FB1CEE43EAC7
:100950000E430CFB01F098420AD9FB180CF1FF354D
:1009600080F01681984240F21381ACF1020C3B44B6
:100970001B1AA4B2B3FBF8F008FB103344EA03449B
:1009800000FB01F1A14209D93C1900F1FF3380F0CD
:100990000181A14240F2FE8002383C44641A40EAE0
:1009A0000C4000211EB1D4400023C6E90043BDE83D
:1009B000F08702B9FFDEB2FA82F2002A4FD1CB1BD8
:1009C0004FEA174E1FFA87F80121B3FBFEFC250CF6
:1009D0000EFB1C3345EA034508FB0CF3AB4207D979
:1009E0007D190CF1FF3002D2AB4200F2E780844661
:1009F000ED1AA3B2B5FBFEF00EFB105543EA054419
:100A000008FB00F8A04507D93C1900F1FF3302D2DA
:100A1000A04500F2D7801846A4EB080440EA0C4039
:100A2000C0E78B4208D9002E00F0AF800021C6E954
:100A300000050846BDE8F087B3FA83F100294BD1E1
:100A4000AB4202D3824200F2B780841A65EB030303
:100A500001209E46002EAAD0C6E9004EA7E7C2F1AB
:100A6000200C01FA02F3974020FA0CF04FEA174EDF
:100A700021FA0CFC1843BCFBFEF1050C0EFB11CC5B
:100A80001FFA87F845EA0C4501FB08F3AB4204FA6C
:100A900002F409D97D1901F1FF3C80F08B80AB4253
:100AA00040F2888002393D44EB1A85B2B3FBFEF078
:100AB0000EFB103345EA034500FB08F3AB4207D9B0
:100AC0007D1900F1FF3C71D2AB426FD902383D4431
:100AD000EB1A40EA014178E7C1F1200C8B4022FA81
:100AE0000CF71F4320FA0CF405FA01F34FEA174EF6
:100AF00025FA0CF51C43230CB5FBFEF91FFA87F809
:100B00000EFB195543EA054509FB08FAAA4502FA06
:100B100001F200FA01F308D97D1909F1FF3047D23B
:100B2000AA4545D9A9F102093D44A5EB0A05A4B29D
:100B3000B5FBFEF00EFB105544EA054400FB08F837
:100B4000A04507D93C1900F1FF352DD2A0452BD97E
:100B500002383C4440EA0940A4EB0804A0FB0289A7
:100B60004C45C6464D4619D316D05EB1B3EB0E02C6
:100B700064EB050404FA0CFCCA404CEA0202CC40C7
:100B8000C6E900240021BDE8F087314630460EE773
:100B9000AC46EDE6184601E74345E6D2B8EB020E57
:100BA00069EB07050138E0E72846D3E760468FE7A1
:100BB0008146BAE7614677E708464BE7ACF1020C9D
:100BC0003D4415E702383C4426E700BF704700BFAC
:100BD0002DE9F84F4A4808F0BCFD4FF00A0B4FF0E2
:100BE000FF324FF0FF334748474D08F0A7FC08F0AD
:100BF00080FC06468A4608F07CFC02460B464348C9
:100C000008F0A7FD424A92F90030082BDABF013301
:100C10005BB2002313703F4A128825F813200A2480
:100C20002B46002033F8022B013C14F0FF04104443
:100C3000F8D190FBFBF0384B188080B2FFF7B2FB85
:100C40002BA3D3E9002380468946FFF715FCFFF765
:100C500025FE324B87B21F80404627A3D3E90023ED
:100C60004946FFF709FCFFF719FE2D4B2D4980B2CD
:100C700018800A2335F8022B904205D8974222BFEC
:100C800021F814200134A4B2013B13F0FF03F1D189
:100C90002548244FDFF8A49008F05BFDB8460A25EC
:100CA00038F8021B4846013D08F053FD15F0FF05DA
:100CB000F6D11E4808F04DFD2B46AAB2944210D83A
:100CC0001CB1B3FBF4F41A4B1C8008F012FC821B1D
:100CD00061EB0A03174808F03CFD174808F017FCC1
:100CE0007DE737F8022B13449BB20135E5E700BFDF
:100CF000CDCCCCCCCCCCF03F666666666666EE3F6B
:100D0000A9AA0000BC070020D60F0020BDAA000041
:100D100022020020D40F0020EE0E00207A110020C5
:100D2000CE0F0020F00E0020DBAA0000CFB00000A4
:100D3000D00F0020F2AA0000D4070020EDAA000086
:100D4000014B01221A70704785110020014B0122CE
:100D50001A7070477F110020014B01221A707047F2
:100D600082110020024A01231370024A1370704757
:100D70007D1100207C11002043682DE9F0411B68A3
:100D8000D0F80880076901268E401E4204460D46B1
:100D90000ED10E490E4A0F4840F2FD2308F0D9FC4F
:100DA0000D4808F0D6FC0A4840F2FD2108F0CEFBC1
:100DB0003B6823EA06063E60D8F800302946204604
:100DC0004FF48872BDE8F041184700BFA6A90000A3
:100DD0007CA90000E4A9000001AA000043682DE9F5
:100DE000F0411B688768D0F8108001268E401E42B3
:100DF00004460D460ED11049104A114840F29D2379
:100E000008F0A7FC0F4808F0A4FC0C4840F29D2114
:100E100008F09CFBD8F800301E42BE6929462046E7
:100E2000B44618BF4FF40033BDE8F04108BF4FF49B
:100E300080234FF4A0326047A6A900007CA90000DF
:100E4000E4A9000001AA00002DE9F84F4248DFF8AC
:100E5000449108F07EFC00244FF0FF324FF0FF3346
:100E6000484608F06BFB08F044FB05460F4608F0C7
:100E700040FB02460B463948394E08F06AFC394BB4
:100E80001978394B1B78642213FB02F342F210727B
:100E900002FB0131354B1B781944354B1888002271
:100EA0004FF0FF38904243DC3248DFF8ECA0324E7E
:100EB000DFF8E8B0414608F04CFCB8F1FF3F49D0FC
:100EC0002E4A2F4832F8181008F043FC2B4ABAF883
:100ED000001032F818306FF06302C3EB832393FBEA
:100EE000F2F30B44012B30DD0CB1103CA4B239B14C
:100EF000BBF8003040F2FF32634393FBF2F33380E0
:100F0000BBF800303288BAF800101E489A422246D8
:100F100088BF338008F01DFC08F0EBFA421B61EB40
:100F20000703194808F015FC184808F0F0FA93E791
:100F3000174B33F812C08C4505D836F812C08C45D3
:100F400084BF904602460132ACE7B4F5806FCED242
:100F50001034CBE70023D2E713AA000028AA000030
:100F6000B21000207E11002080110020811100208D
:100F7000D20F002047AA0000040F0020060F002017
:100F80005AAA00006CAA000083AA0000EC07002007
:100F9000EA0F0020D4070020D00F002020020020FC
:100FA0002DE9F0432D482E4FDFF8E0802D4E87B01D
:100FB00008F0CFFB4FF0FF324FF0FF33384608F018
:100FC000BDFA08F096FA04460D4608F092FA0B4670
:100FD0000246404608F0BDFB1422002101A808F09B
:100FE000AAFD0223CDE9023604930A238DF81430BA
:100FF0001D4B186848B91D4808F0ABFB4FF0FF398E
:101000001B48494608F0A5FB10E0836801A95B680E
:1010100098478146B0B10146164808F09AFBEFE7C1
:10102000154808F096FB154BA3F8009008F061FAFC
:10103000021B61EB0503124808F08BFB114808F016
:1010400066FAB7E73388B3F5806FE9D2C3F57F73EB
:10105000033319B2094B0C481980D3E717AB0000D2
:101060008C070020EC0E0020580700204FAB00003A
:101070009EAB00007EAB0000C7AB0000D40F002089
:10108000EFAB0000BC070020E2AB00002EAB00007D
:101090002DE9F84F254F26483D88DFF8B090DFF85E
:1010A000B0B01423B5FBF3F508F053FBCA464FF07C
:1010B000FF324FF0FF33584608F040FA08F019FAB3
:1010C0000646884608F015FA02460B4619481A4C9F
:1010D00008F03FFB99F80030E3B13A882388521BAF
:1010E0009342DCBF5B19238000238AF8003005207F
:1010F00008F00FFA2188114808F02BFB08F0F9F9E5
:10110000821B61EB08030E4808F023FB0D4808F032
:10111000FEF9CCE70C4A1378002BEBD023880BB1F7
:101120005B1B238000231370E1E700BF2002002037
:1011300017AC00002BAC0000040F00204AAC0000EC
:1011400068AC0000EC0700207F1100208511002012
:10115000A40700202DE9F04F89B03E4804F090FF2D
:10116000044628B93C4808F0F4FA09B0BDE8F08F0D
:101170003A4808F0EEFA4FF0FF324FF0FF333848AC
:10118000384D08F0DBF908F0B4F9CDE9040108F0B6
:10119000B0F902460B46344808F0DBFA2988334898
:1011A00008F0D7FA324BB5F800801F88A7EB080883
:1011B000A36806AA5B680D2120469847054628B11A
:1011C0006FF004012B4808F0C4FACEE7DDE90663AE
:1011D000A7FB06AB07FB03BB274A0393504600233C
:1011E0005946FFF77BFB254B4FF0FF325B4508BFAD
:1011F0005245814602D26FF08501E3E7039B1E4A08
:10120000A8FB066708FB0377304600233946FFF743
:1012100065FB1A4A4FF0FF31BA4208BFB14203469C
:10122000E9D3A268009515680D214A462046A847D3
:1012300001460028C6D1124B1A7802B1187008F086
:1012400058F9049BC21A059B0E4861EB030308F092
:1012500080FA90E78DAC000093AC0000B4AC0000C5
:10126000EC070020040F0020C6AC0000E1AC000039
:1012700020020020FAAC000040420F003F420F0065
:101280007D1100201FAD0000062814D8DFE800F013
:101290000407090B0D0F1100074808F05ABA074858
:1012A000FBE70748F9E70748F7E70748F5E7074886
:1012B000F3E70748F1E7704742AD00004FAD00008B
:1012C0005CAD00006AAD00007AAD000089AD0000A1
:1012D00096AD00002DE9FF41A94B6A4603F10806CF
:1012E000144618685968154603C50833B3422A46A0
:1012F000F7D1186899889B79AB712860A98008F0AC
:10130000F8F802460B469F4808F023FA00232246CD
:10131000194601330F2B02F8011BFAD19A4808F045
:1013200018FA9A4808F015FA994808F012FA9948FC
:1013300008F00FFA984808F00CFA984808F009FAF3
:10134000974808F006FA974808F003FA964808F01C
:1013500000FA964808F0FDF908F0CBF8002704469B
:101360000D4600F05BFFC6B2304600F049FF04AB0B
:1013700013FA87F3212E03F8106C07F10107F0D15F
:101380009DF80030532B40F0CD809DF80100DFF830
:10139000448208F0D9F803469DF8020008F0D4F81A
:1013A000C3EB431203EB820303EB8302C0EB401356
:1013B00000EB8303DB0003EB02139DF804001BB278
:1013C00008F0C2F807469DF8030008F0BDF806468D
:1013D0009DF8050008F0B8F8754907EB8707034446
:1013E00006EB86060A88734803EB470306EB86067E
:1013F00003EB860320F812309DF8060008F0A4F8ED
:1014000003469DF8070008F09FF8C3EB431603EB73
:10141000860303EB8306C0EB401300EB8303DB0082
:101420009DF8090003EB06131BB208F08DF8074680
:101430009DF8080008F088F806469DF80A0008F0B4
:1014400083F807EB8707034406EB86065A4803EB4D
:10145000470306EB860603EB860320F812309DF85F
:101460000B0008F071F803469DF80C0008F06CF8CA
:1014700003EB830300EB800003EB8306430003EBE5
:1014800086039DF80D001BB208F05EF803444B483C
:1014900020F8123001320A8008F02BF8041B61EBAF
:1014A00005054FF47A72002320462946FFF716FA05
:1014B00098F800600027301847EB01013C22002318
:1014C000FFF70CFA002388F800202046DFF8FC80A4
:1014D0004EF660222946FFF701FA98F800600027CF
:1014E000301847EB01013C220023FFF7F7F90023F6
:1014F00088F800202046DFF8D080314A98F8006054
:101500002946FFF7EBF9002730184FF03C024FF067
:10151000000347EB0101FFF7E1F988F8002004B070
:10152000BDE8F081542B24D19DF8010008F00CF89F
:10153000244B18709DF8020008F006F803469DF849
:10154000030008F001F8204A03EB830300EB430398
:101550009DF80400137007F0F7FF03469DF805009F
:1015600007F0F2FF194A03EB830300EB4303137008
:10157000D5E7174804B0BDE8F04108F0EAB800BF6D
:1015800020A70000A5AD0000C5AD0000FAAD000029
:1015900003AE000086AE0000BFAE0000ECAE00005F
:1015A000FDAE00009AAF00002AB000009FB000001E
:1015B000D20F0020EA0F0020B2100020060F0020FA
:1015C00080EE36007E110020801100208111002065
:1015D000B2B00000831100202DE9F74F07F089FF1A
:1015E000DFF8A09110F1640441F1000507F081FFDC
:1015F0000646884607F07DFF02460B465B48DFF84B
:10160000B0A15B4F08F0A5F899F800300133DBB2C8
:101610003C2B03BF002389F800309AF8003089F88A
:10162000003004BF01338AF800309AF800303C2BB8
:1016300005D13B78002101338AF800103B703B78DC
:10164000DFF870B1182B06D19BF800100020013193
:1016500038708BF800109BF800000721B0FBF1F107
:10166000C1EBC101411A8BF80010424908780028EB
:101670004CD041480078002848D0404900200880DC
:101680003F4807F044FF9BF80000FFF7FDFD3D4B8E
:1016900039783D4F9AF800201B783C48DFF818A1B4
:1016A00008F057F83A78002A44D09AF80020002A27
:1016B00040D13748019208F04CF836492F48098844
:1016C000019A8908018034490A7034490A7001215D
:1016D0008AF800103A7007F00CFF821B61EB0803D8
:1016E0002F4808F036F82F4807F011FF07F001FFE8
:1016F0000B46A04273EB05010246BFF677AFA01A76
:1017000007F007FF643445F100056FE7087800280B
:10171000B9D01948007800F0FF0C0028B3D181F847
:1017200000C0FFF7D7FD07F0E4FE10F1640441F1BB
:101730000005A8E739789AF8002099B142B11A4813
:1017400008F007F80D4900220A808AF800203A7054
:1017500007F0CFFE821B61EB0803114807F0F9FF89
:101760001248C1E7002AB6D1F2E700BFB7B00000C7
:10177000801100207C1100207D110020040F00202A
:10178000EC0700208311002082110020D1B000005E
:10179000E1B0000020020020851100207F11002010
:1017A00012B10000A4070020F8B000008C07002050
:1017B000811100207E11002084110020F0B589B035
:1017C0007A4804F05DFC044628B9794809B0BDE8C0
:1017D000F04007F0BEBF774807F0BBFF0B21204663
:1017E000FFF7CAFA011E05DA734809B0BDE8F040F8
:1017F00007F0AFBF0C212046FFF7BEFA011E01DA49
:101800006E48F2E718212046FFF7B6FA011E01DA0A
:101810006B48EAE719212046FFF7AEFA011E01DA0C
:101820006848E2E76848694D04F02AFC286010B96E
:10183000674807F08EFF2868836866491B689847E9
:10184000014610B1644807F084FF00F0F7FC6349DB
:101850000922002000F0CEFC0B212046FFF7BEFA43
:101860005F49604B4B6020464FF400638B6007F08C
:1018700038FE0C212046FFF7B1FA5B495B4B4B6009
:1018800020464FF480538B6007F02BFE1821204632
:10189000FFF7A4FA5649574B4B6020464FF0807330
:1018A0008B6007F01EFE19212046FFF797FA524978
:1018B000524B4B6020464FF000738B6007F011FED7
:1018C0004F4807F03DFE4F4807F03AFE4E4807F0FC
:1018D00037FE4E4807F034FE4D4807F031FE002633
:1018E000002700240125CDE90667CDE90354CDE9A1
:1018F0000144484B484900944FF48062474806F041
:1019000031FC474B1860474B47490094CDE90667C7
:10191000CDE90354CDE901444FF48062434806F019
:1019200021FC434B1860434B43490094CDE90667C3
:10193000CDE90354CDE901444FF480623F4806F0FD
:1019400011FC3F4B18603F4B3F490094CDE90667BF
:10195000CDE90354CDE901444FF480623B4806F0E1
:1019600001FC3B4B18603B4B3B490094CDE90667BB
:10197000CDE90354CDE901444FF48062374806F0C5
:10198000F1FB374B1860374B37490094CDE90667B8
:10199000CDE90354CDE901444FF48062334806F0A9
:1019A000E1FB334B186009B0F0BD00BF32B100005D
:1019B00039B100005AB1000077B100009EB10000BB
:1019C000C5B10000ECB1000013B2000058070020C0
:1019D00019B2000074A900003AB2000069B2000018
:1019E0005C070020410D0000680700204D0D00003D
:1019F00074070020590D000080070020650D0000CD
:101A0000A40700208C070020BC070020D40700207A
:101A1000EC070020D9150000E0150020100300207D
:101A20000808002091100000001A002090040020F7
:101A300014080020A10F0000201E002090020020AA
:101A400004080020D10B00004022002010040020D8
:101A500010080020490E000060260020900300209E
:101A60000C08002055110000802A002010050020DD
:101A7000180800202DE9F04F91B08B460290924655
:101A80001C4600259AF8000008B928465EE3252880
:101A90000AF1010707D0029B594698470028C0F277
:101AA0005583013510E2182200210AA808F043F8F6
:101AB0009AF80130252B78D0002294461646964697
:101AC0001046394617F8013B2B2B00F09D8000F2A1
:101AD0009480202B00F09B80232B00F09A8028B16B
:101AE0009DF8300040F004008DF83000BEF1000F8A
:101AF00005D09DF8300040F008008DF830002EB180
:101B00009DF8300040F010008DF83000BCF1000F5F
:101B100005D09DF8300040F020008DF830002AB14B
:101B20009DF8302042F040028DF830209DF83020A2
:101B300002F04400442803D16FF386128DF8302060
:101B40009DF830202A2B42F080028DF830207BD186
:101B50009DF8312042F001024B1C8DF831201A789B
:101B60002E2A9DF831200CBF0121002161F3410292
:101B70008DF8312074D15A782A2A6AD00133002195
:101B80000A26184610F8012BA2F13007092F40F25F
:101B90008E809DF830200E91C2F3400040EAD17152
:101BA00061F341028DF830205AE00AF102078DF806
:101BB00033309DF83130D90740F1498154F8049B06
:101BC000B9F1000F07DA9DF8302042F004028DF8D9
:101BD0003020C9F100095A0740F1428154F8048BC2
:101BE000B8F1000F80F241819DF831306FF341036D
:101BF0008DF831304FF0FF3837E12D2B0CD0302BE2
:101C00007FF46DAF01225CE74FF0010E59E701262A
:101C100057E74FF0010C54E7012052E70CFB02029A
:101C2000303A33461E4616F8010BA0F13007092F53
:101C3000F4D9994293D09DF830100D92D20F62F3EF
:101C400041018DF830108AE70B4600224FF00A0C54
:101C5000E8E79DF8312042F004028DF8312002338C
:101C60001F4617F8012B6C2A41D025D8682A2BD0A3
:101C70006A2A46D04C2A4CD01F4617F8012B9DF8F3
:101C800031308DF83320782A00F2D980572A4DD888
:101C9000412A03D0453A022A00F2D1809DF8323021
:101CA000042262F302038DF8323001239EE006FB2A
:101CB00001213039034664E7742A26D07A2ADBD121
:101CC0009DF8313006220DE05A78682A9DF83120BF
:101CD00006D1012161F3C6028DF831209F1CCCE7AB
:101CE0001346022262F3C6038DF83130C5E75A78F5
:101CF0006C2A9DF8312001D10421EBE71346032221
:101D0000F0E79DF831300522ECE79DF831300722ED
:101D1000E8E7BDF8303023F4F04323F0020343F446
:101D2000804343F00203ADF83030A6E7A2F158013A
:101D3000202900F2848001A050F821F0011E00004B
:101D40003F1E00003F1E00003F1E00003F1E00001F
:101D50003F1E00003F1E00003F1E00003F1E00000F
:101D60009D1C00003F1E0000011E0000C11D000060
:101D70009D1C00009D1C00009D1C00003F1E0000DB
:101D8000C11D00003F1E00003F1E00003F1E00005E
:101D90003F1E0000091E0000011E0000251E00005D
:101DA0003F1E00003F1E0000251E00003F1E0000D9
:101DB000011E00003F1E00003F1E0000011E00002B
:101DC0009DF83210012003F0780360F30201402BEC
:101DD0008DF8321002BF9DF8301041F001018DF8EE
:101DE0003010632A31D1003B18BF01239DF8302009
:101DF000C2F340010B4363F341028DF83020D8E673
:101E00009DF832100220DEE79DF8322003F07803BF
:101E1000A3F14000032161F3020243428DF8322016
:101E20004341E3E79DF83220032113F0780F61F37B
:101E300002028DF8322014BF01230023D6E79DF85B
:101E4000303043F001038DF830300023CEE79DF9A8
:101E50003020002AB4BFDDF834904FF0FF39BAE6E5
:101E60009B077FF5C7AEDDF838809DF83120002351
:101E7000CDE90D339DF8323003F00703012BC2F397
:101E8000C30236D1D31E042B20D8DFE803F00307AA
:101E9000071F1F0054F8040BC11704E0073424F097
:101EA0000704F4E80201CDE90A019DF8303013F08F
:101EB000030654D002983B465246594607F098FB19
:101EC0000028C0F243810544BA46DBE554F8040B10
:101ED000012A4FEAE071CDE90A0105D19DF82830C9
:101EE0000A9300230B93E0E7022ADED1BDF9280014
:101EF000D2E7022B23D1D31E042B13D8DFE803F043
:101F0000030A0A12120020680A900021231D0B9177
:101F10001C46CAE7073424F00703F3E80201CDE9C1
:101F20000A01F5E754F8043B0A93012A4FF0000335
:101F30000B93D3D0022AB8D1BDF82830D0E7042BB8
:101F400007D1073424F00704F4E80201CDE90A01BF
:101F5000ABE7032B04BF54F8043B0A93A5E79DF8B5
:101F600033007828B0D8622822D825283FF493ADD2
:101F70005828A9D10DF126030093DDE90A0104AB2D
:101F80000CAA07F0EAFA8246B8F1000F0DF126001C
:101F90000CDB9DF83020A0EB0A036FF38612984506
:101FA0008DF8302002D9A8EB03030D9380463DE065
:101FB0006338152888D801A151F820F03D20000091
:101FC000A1200000C91E0000C91E0000C91E00009B
:101FD000C91E0000A1200000C91E0000C91E00008B
:101FE000C91E0000C91E0000FF200000CD20000017
:101FF000D1200000C91E0000C91E000015200000ED
:10200000C91E0000CD200000C91E0000C91E00002E
:10201000CD200000B8F1000FDDF828A00ADB414612
:10202000504607F068FD0AEB00080026BAF1000FE1
:102030000CD149E7504607F057FDF4E70A9B8DF8AD
:10204000103000260DF111080DF1100AA8EB0A035B
:1020500006B101339DF83220D0066BD5023352060B
:102060000D9948BF0E9A0B4448BF9B18B9F1000F59
:1020700079DD9DF83020A9EB0309C2F380030393B7
:10208000530770D4500664D546B1029B594630467A
:10209000984700285ADB039B01351E46302359E040
:1020A0001E0711D413F0100618BF2026DDE90A23FD
:1020B000002A73F10001BFF65DAF524263EB4303A8
:1020C000CDE90A232D2655E72B26EFE7002651E719
:1020D0000A9848B30DF1260300930CAA04AB002123
:1020E00007F03BFABDF8323003F0EF0343F4F0435E
:1020F00043F010038246ADF83230002644E70A9BD5
:10210000072A3FF6E1AEDFE802F00D04060D0808ED
:102110000D0D1D70D8E61D80D6E62846E917C3E9E7
:102120000001D1E61D60CFE6DFF8C4800646A8F1C5
:10213000050A8BE7110748BF013390E71846039360
:102140005946029B98470028039B04DA11B0BDE86A
:10215000F08F20234D444A46002AA5EB090109F1DE
:10216000FF39EBDC0D4636B1029B594630469847A5
:102170000028EBDB01359DF83230D90601D41A076F
:1021800006D5029B5946302098470028DEDB0135F2
:102190009DF83230DB0607D59DF83300029B594687
:1021A00098470028D2DB01350D9E2E44731B002B6F
:1021B00016DC029843465246594607F019FA0028A1
:1021C000C4DB0544A944A9EB0503002B7FF77CAED3
:1021D000029B5946202098470028B7DB0135F2E7DB
:1021E000029B5946302098470028AFDB0135DDE7D8
:1021F00078B20000014807F07FBB00BF1C08002038
:1022000007B501228DF807000DF10701024807F01C
:1022100073FB03B05DF804FB1C08002007B5012226
:102220000DF10701044807F090FB0028A8BF9DF8B6
:10223000070003B05DF804FB1C08002038B5104D02
:10224000284608F048F8A8B10E48294600F0E8FDF5
:10225000044668B9AB689B6C7BB10B4909484FF4E5
:10226000007207F01BFC09490648402207F0FDFBFD
:10227000204638BD6FF01204FAE76FF08504F7E7E7
:1022800020A500001C080020C61100208611002097
:10229000B2F5802F2DE9F04106460D46174669D369
:1022A0003D493E4A3E4840F2A51307F052FA3D48E8
:1022B00007F04FFA40F2A511384807F047F9043FFC
:1022C000EC1D3D4424F0070425F007052D1B172DB8
:1022D0004FEAD5070ED83449304A314840F2B51399
:1022E00007F037FA314807F034FA2C4840F2B511BC
:1022F00007F02CF9B7FA87F8C8F124084FEA8808E4
:10230000346008F107060023F608E360731CBB4243
:10231000A7600ED92649214A214840F2C51307F08B
:1023200018FA224807F015FA1C4840F2C51107F0C8
:102330000DF904F11002A0440023904529D1720048
:1023400042F00102628004EBC601BA1B50002380F8
:102350004880611924F8366004EBC7074B8062534C
:102360007B8843F001037B8031462046BDE8F04185
:1023700007F05AB9042AA2D80E49084A08484FF46F
:10238000D67307F0E6F9094807F0E3F94FF4D67180
:1023900092E742F8043BD0E745B3000079B2000071
:1023A000E4A900005BB30000ACB3000093B30000ED
:1023B000D5B3000072B30000436803F00303022B9F
:1023C00070B504460E46816010D0032B04D0012B5B
:1023D0000FD10025284601E0056800200023636036
:1023E00010B1314604F0E8FA284670BD00680025B7
:1023F000F4E7064A06490748452307F0AAF90348C7
:10240000452107F0A3F80025E7E700BF00B400006E
:10241000E5BB0000E4A90000014806F0CFBE00BF04
:1024200038A7000008B5D0B14368042B11D10022B1
:102430000368BFF35B8F53E8001F012903D143E812
:1024400000200028F7D1BFF35B8F074808BF104674
:1024500008BD3BB1006804F071F90020F8E76FF4A3
:10246000E040F5E70148F3E7E98FFFFFEA8FFFFF60
:1024700010B5044618B90D4B0D485B689847616864
:1024800008290DD031F004030AD011F0020108D060
:102490000848214603F0EEFF002323600023636019
:1024A00010BD2068142207F046FBF7E7C0010020AA
:1024B00023B400007008002010B5044618B9164B6C
:1024C00016485B6898476368042B23D0082B21D0FB
:1024D000CBB92368BBB912484FF0FF324FF0FF333E
:1024E000214603F05BFF08B923681BB90A4B0D486E
:1024F0005B68984720681422002107F01CFB636882
:1025000043F002036360206807F012FF636843F042
:102510000103636010BD00BFC001002023B40000B0
:102520007008002049B4000008B508B34368042BC4
:1025300010D101220368BFF35B8F53E8001F00290D
:1025400003D143E800200028F7D1BFF35B8F0BD104
:10255000002008BD53B100684FF0FF324FF0FF3349
:1025600003F0ECFF0028F3D00348F2E70348F0E75C
:102570006FF4E040EDE700BFE98FFFFFEA8FFFFF58
:1025800008B5064906484023142207F0B5FEBDE809
:1025900008400449044806F073BE00BF90080020BC
:1025A0007008002050A7000040A700002DE9F04F60
:1025B000B0F81C9085B019F0080F0446039222D0A1
:1025C00001290CBF49F0100949F02009A0F81C901E
:1025D0001434204605F0B2FE68B99F4A9F49A048CE
:1025E000AC2307F0B6F89F48214607F0B2F89A48A6
:1025F000AC2106F0ABFF039B83F31188BFF36F8F11
:1026000005B0BDE8F08F984FDFF8548209F0070954
:10261000022906D1204607F046F80028D8D0012824
:1026200068D1D4F818B0A38BBBF1000F0ADA0026EA
:10263000256823F00703C4E9006643F00103A38380
:10264000019627E003F00702511F012934D8002129
:1026500023F00703062A25689BB2C4E900110CD1B8
:102660008D422A4638BF0A462AB1E18B12680131F1
:10267000E183002AF8D143F00203A383204607F048
:1026800012F806460028DBD0A38B43F02003A38377
:1026900000230193A38B03F007024A45029203D063
:1026A000A268002A40F0F0801DB9019A002A00F0CB
:1026B00036814FF00009E9E0042A0ED123F0070328
:1026C0009AB2A283204606F0EEFF054618B142F00A
:1026D0002002A28300250195DCE74046634940F2D1
:1026E0001B133A4607F035F840F21B11384606F046
:1026F0002DFFEFE7032835D1B9F1000F0BD05C496E
:1027000040464FF4AB733A4607F023F84FF4AB71F1
:10271000384606F01BFF23685BB95649404640F235
:1027200057133A4607F015F840F25711384606F0AD
:102730000DFF23691B6801935BB94F4940464FF475
:10274000AD733A4607F005F84FF4AD71384606F020
:10275000FDFEA38B23F0070343F00603A3830025AC
:10276000AB4697E7042832D1B9F1020F0BD04349A9
:10277000404640F25D133A4606F0EBFF40F25D1131
:10278000384606F0E3FEE38B5BB13D4940464FF42B
:10279000AF733A4606F0DDFF4FF4AF71384606F0EE
:1027A000D5FE23695B6801935BB93349404640F22B
:1027B00061133A4606F0CDFF40F26111384606F04B
:1027C000C5FEA38B23F0070343F00403C6E70528E7
:1027D00032D1B9F1010F0BD02A4940464FF4B27300
:1027E0003A4606F0B6FF4FF4B271384606F0AEFE38
:1027F00023685BB91F49404640F265133A4606F02C
:10280000A8FF40F26511384606F0A0FE23699B68D8
:1028100001935BB9184940464FF4B4733A4606F049
:1028200098FF4FF4B471384606F090FEA38B23F066
:10283000070343F0050391E70C4940F26B133A4656
:10284000404606F086FF002540F26B11384606F040
:102850007DFE019584E700BF19B500003FB500007B
:10286000E4A9000056B5000076B40000E5BB000006
:1028700098B40000A4B40000C7B40000DEB40000A7
:10288000F4B4000003B500004FF0010943F0080361
:1028900004F1140AA383504605F050FD68B93A4A82
:1028A0003A49AC23404606F054FF3948514606F0F9
:1028B00050FF3548AC2106F049FE039B83F3118895
:1028C000BFF36F8FB9F1000F38D1002D4BD1019BB1
:1028D00013B13049204698474FF02003EFF3118B96
:1028E00083F31288BFF36F8F5046CDF80CB005F01C
:1028F00017FD68B9244A28498123404606F029FF7C
:102900002648514606F025FF1F48812106F01EFE8D
:10291000504605F023FDA38B23F00803A383A38B6C
:10292000DA0628D523F01003A3830121B4F81C9004
:1029300009F0070900297FF46BAE49E6A168002978
:10294000C3D00B68029A002B38BF002399464B680E
:1029500020461E465B46B047B9F1000FB5D0D9F806
:1029600000304946EEE72946029A2D685B4620462C
:1029700006F0B5FEA9E713F020011EBF23F02003E7
:10298000A3830221D2E700BF19B500003FB50000C4
:1029900056B50000A12900006BB5000080B500000D
:1029A000F8B504460D4600F114064FF02003EFF38E
:1029B000118783F31288BFF36F8F304605F0B0FCA8
:1029C00068B90C4A0C490D48812306F0C2FE0C4838
:1029D000314606F0BEFE0748812106F0B7FD3046BD
:1029E00005F0BCFCA5613A4620460121BDE8F8404F
:1029F000FFF7DCBD19B500006BB50000E4A90000CD
:102A000080B500002DE9F04704460F4606F07DFE34
:102A1000051E5EDB04F114094FF02003EFF3118A69
:102A200083F31288BFF36F8F484605F079FC68B9CD
:102A3000384A39493948812306F08BFE38484946DF
:102A400006F087FE3348812106F080FD484605F0F8
:102A500085FCE38BA28B4FF6FF718B4202F00706D9
:102A600050D0022E24D10133E38335464FF00108C4
:102A7000484605F063FC68B9264A2A492748AC2332
:102A800006F067FE2848494606F063FE2148AC215F
:102A900006F05CFD8AF31188BFF36F8FB8F1000F69
:102AA00017D0002332463946204606F018FE10E0C3
:102AB000930701D0062E0FD100233B606368F3B962
:102AC000C4E900773546FEB9524602212046FFF799
:102AD0006DFD2846BDE8F087052E18D0012E0BD0DD
:102AE00012490E48124A40F2C91306F032FE10484D
:102AF00040F2C91106F02AFD6FF0040504E01F60E2
:102B00006760DFE76FF00A054FF00008B0E76FF08D
:102B10008505F9E719B500006BB50000E4A90000D0
:102B200080B500003FB5000056B5000003B50000B9
:102B300076B400002DE9F84305464FF02003EFF38B
:102B4000118683F31288BFF36F8F234805F0E8FBEB
:102B500068B9224A22492348812306F0FAFD1E491A
:102B6000214806F0F6FD1D48812106F0EFFC1A48C9
:102B700005F0F4FB1D4B1C68002C38BF00249CB1F1
:102B80001B4FDFF878804FF00C09D4E90132002D9B
:102B900008BF13462BB198F8142009FB02F2B85C69
:102BA00098472468002CF0D10B4805F0C7FB68B9A2
:102BB0000A4A10490B48AC2306F0CBFD06490E48E3
:102BC00006F0C7FD0548AC2106F0C0FC86F311886D
:102BD000BFF36F8FBDE8F883900D002019B500009A
:102BE0006BB50000E4A9000080B50000940D002042
:102BF000A00D00203FB5000056B50000780E002063
:102C000000F01F0301229A400A4BBFF35B8F40097B
:102C100003EB800050E8003F43EA020140E8001C5B
:102C2000BCF1000FF6D1BFF35B8F1A4214BF012035
:102C300000207047AC0D002030B51D4B1D7DBFF34B
:102C40005B8F05F01F0301229A401A4B690985B07A
:102C5000D04303EB810353E8001F01EA000443E87B
:102C6000004CBCF1000FF6D1BFF35B8F114217D0BF
:102C7000114C0C2202FB054207CA01AB83E8070096
:102C80000E4A7AB193E8070006F071FF0020FFF7C3
:102C900051FF0C236B430022E118E250C1E90122ED
:102CA00005B030BD82F31188BFF36F8FEEE700BF30
:102CB000780E00209C0D0020A00D00206F9B0000CE
:102CC0002DE9F041374BDFF8F4801C7D88B00746D2
:102CD0002046FFF795FF60B96E463A4621463046DA
:102CE00006F044FD96E807000C2505FB048585E801
:102CF00007000C23634308EB030218F8030065097F
:102D000004F01F06C8B37B1C0FD0D2F808E0264899
:102D1000264A4FF4004C00210023ECFB0E01FDF786
:102D2000DDFD0121381A05F0DBFC03F0A9FF0120CD
:102D3000FFF700FFBFF35B8F1D4B0122B24003EB97
:102D4000850353E8001F114343E800100028F8D121
:102D5000BFF35B8F0C2303FB048494E8070005ABEF
:102D600083E80700134A1AB193E8070006F0ECFE67
:102D7000FFF762FF04F0C8FC01200F4ABFF35B8F2E
:102D80000123B340DB4302EB850555E8002F1A40D1
:102D900045E800210029F8D1BFF35B8F08B0BDE8FA
:102DA000F08100BF780E00203F420F0040420F002C
:102DB0009C0D0020499B0000AC0D0020A00D0020C0
:102DC0000B6801330B60014B1B681847D0000020D3
:102DD000014B1860704700BFD000002007B50B46BC
:102DE000002102460191034801A9FEF743FE03B00A
:102DF0005DF804FBC12D000008B54FF02002EFF391
:102E0000118382F31288BFF36F8F00F0C1FC034877
:102E100006F09FFC00F02AF8FCE700BF98B5000020
:102E2000024610B5084699B100244FF0FF33C2E9BD
:102E3000134393628B681160C2E90744C2E91144ED
:102E4000546243B19B6C33B104499847204610BD8E
:102E50006FF01200FBE71846F9E700BF4198000049
:102E6000014910220A60704710ED00E072B6404040
:102E700080F31188BFF36F8FBFF34F8F30BF62B6FF
:102E8000BFF36F8F704700BF72B6494081F311885E
:102E900020BF80F3118862B6704700BF01B572B6DB
:102EA0000B4A906900281EBF0021916107F01DFAAE
:102EB00062B6EFF30580A0F110004FEAC0000549AB
:102EC000014409C99847BDE801400349084700008B
:102ED000780E002068A500000131000030BFFFF728
:102EE000FDBF00BF12498A684FF030001044EFF375
:102EF000098C80E8F01F202080F31288BFF36F8FC9
:102F00000C4F4FF00066CA698A603E60906F0023E4
:102F1000936780F3118804B5104600F0E7FABDE826
:102F2000044002F1300090E8F01F8CF309887047EC
:102F3000780E002004ED00E01EF0040F0CBFEFF34C
:102F40000880EFF30980816911F8021C0229FFD083
:102F500001B506F0B7FD01BD43B2002B08DB01222D
:102F600000F01F0002FA00F05B09024A42F8230059
:102F7000704700BF00E100E0054B420900F01F0070
:102F800053F82220012303FA00F01040704700BFDD
:102F900000E100E070B54C1C072C05460E460FD929
:102FA000114A12491248592306F0D3FB1148314601
:102FB00007232A4606F0CDFB0B48592106F0C6FA36
:102FC0006BB2002BACBF03F160430B4B4FEA4414D0
:102FD000B8BF05F00F05E4B2AABF03F561435C5525
:102FE00083F8004370BD00BFC1B50000F7B5000015
:102FF000E4A9000012B6000014ED00E00B4A08B589
:103000000B4B22F07F029A60BFF34F8FBFF36F8F9D
:10301000D3F8882022F47002C3F8882003F006F960
:1030200006F02CF800F0F6F903F00AF900000000B1
:1030300000ED00E0094A0A4993680968D96709491F
:1030400098674B6843F080534B60002383F31188EB
:10305000BFF36F8F9368D86F704700BF780E002062
:10306000E8A8000000ED00E042F8203C009B42F898
:103070001C3C0A49019B42F8183C029B42F8143C54
:1030800021F001014FF0807342F8043C42F8081C23
:103090000023203A02658367704700BF77970000DE
:1030A0000B4A0346906890B113F1160F806E05D05D
:1030B000A0F120029A4206D8834204D281422CBF5A
:1030C0000021012100E00021002908BF00207047F5
:1030D000780E002008B5094B98600D46144600F0A4
:1030E00005FA204685F30988002163B681F311882B
:1030F000BFF36F8F0022002306F03DFB780E002007
:10310000044B9968D869884203D003494FF0805234
:103110000A607047780E002004ED00E0EFF30880AD
:10312000EFF3098101B5724600F0AEF801BD00BFB2
:10313000002080F31488BFF36F8F07F07FF9002021
:103140000D490860BFF34F8F0C4880F3088800F0EA
:103150007DF9202080F3118809484FF4026140185E
:1031600080F30988EFF314800221084380F3148868
:10317000BFF36F8FFFF742FF94ED00E0A032002015
:1031800020340020234B70B515469A6A9A6A9A6AD1
:10319000044690071AD5586B9A6A120616D519B1CB
:1031A0009A6A22F080029A629A6A9A6A9A6AD606A3
:1031B0000FD49B6A99070CD40024164A936A43F0F3
:1031C000FF03936200232B70204670BD6FF0150043
:1031D000EAE7104E73681A05EED52146FFF760FF47
:1031E000044618B180F309880224E6E7B36ADB06D7
:1031F000E2D5094A09490A4840F2491306F0A9FAFA
:10320000084806F0A6FA044840F2491106F09EF973
:10321000D3E700BF00ED00E052B600008CB600001E
:10322000E4A90000D6B600000D4B9A6A9A6A9A6A21
:10323000920508D59A6B9A6A120404D518B19A6A55
:1032400022F400429A62064B9A6A9A6AD20558BFE3
:103250009A6A9A6A002042F47F429A620870704724
:1032600000ED00E0074B9A6A9A6A9A6A9A6A9A6A2B
:103270009A6A9A6A6FEA02426FEA12429A620020E0
:10328000704700BF00ED00E070B5544B5C688AB039
:103290000D46C4F30804002686F31188BFF36F8F30
:1032A00002F07F43B3F17F4F08D102F00C03082BEB
:1032B00004D012075CBF054601267DB9484A49493A
:1032C000494840F2F23306F044FA484806F041FA21
:1032D000434840F2F23106F039F9002500238DF819
:1032E0000730E31E032B72D8DFE803F002696D4953
:1032F0003A4BDC6A14F0020469D1DA6A002A18DB5E
:10330000DB6A5B004ED5AB6933F8022C4DF60273D5
:103310009A420DD003F1604303F626631B780BB38A
:103320000DF1070201212846FFF72CFF044600E0BB
:103330002C689DF807309BB92022294602A806F088
:10334000EFFB099B002E44D0C3F3080222B96FEAB9
:1033500053236FEA4323099302A9204606F0B0FBEA
:103360000AB070BD224B1B782BB10DF10701012073
:10337000FFF75AFFDAE71F4B1B889BB213B1FFF729
:1033800071FFD3E71C49164A174840F2C32306F0E1
:10339000E0F91A4806F0DDF940F2C321104806F0C2
:1033A000D5F8C6E714490E4A0F4840F2C72306F085
:1033B000D0F9134806F0CDF940F2C721EEE70DF140
:1033C00007020021AFE70DF107010020D0E700243C
:1033D000AFE723F4FF7323F00103BCE700ED00E047
:1033E00052B60000F9B60000E4A900000CB70000D6
:1033F00029ED00E02AED00E0E5BB00004AB700003F
:103400006EB70000024A536943F0100353617047DE
:1034100000ED00E0044800232021C2180133302BC6
:1034200082F80013F9D1704700E100E0064A116804
:103430000023C1F3072118468B4200D170479360E7
:1034400010610133F8E700BF90ED00E008B572B6F7
:10345000002383F31388FFF7E9FF144B4FF0FF328B
:10346000C3F88020C3F88420C3F88820C3F88C20D8
:10347000C3F89020C3F89420C3F89820C3F89C2088
:10348000C3F88021C3F88421C3F88821C3F88C21B4
:10349000C3F89021C3F89421C3F89821C3F89C2164
:1034A00062B6BFF34F8FBFF36F8F08BD00E100E03E
:1034B000064B9B68834207D1EFF3058323B1044A8F
:1034C000536843F08053536004F0E2BB780E002051
:1034D00000ED00E0024B034A0348012100F068B808
:1034E000000004200000002064A70000826E054B4D
:1034F000203A1A60044A2021C3E90112184601212A
:1035000000F07EB8B00D002000000B15F0B51E4F86
:1035100000268E4201DB1046F0BD446884B353B1EF
:1035200004F1FF3C14EA0C0F18D11F2C16D90568C2
:103530001CEA050F12D1202C0568D0F808C0D2B2C1
:103540000FD9B4F1004F0ED8013CB4FA84F4C4F1A1
:103550001F046400072A4CEA040406D96FF0150220
:10356000D9E70824F6E73E24F4E725F01F051543C4
:1035700045F0100544F00104BA60FD6001323C6181
:1035800001360C30C5E700BF90ED00E0034B05228B
:103590005A60BFF34F8FBFF36F8F704790ED00E01D
:1035A000BFF35F8F014B00225A60704790ED00E03F
:1035B00038B50E4D01232A780C46FFF7A7FF287077
:1035C000163011D140F21113094A0A490A4806F08F
:1035D000C0F82146094806F0BCF8BDE83840044868
:1035E00040F2111105F0B2BF38BD00BFC613002074
:1035F0009EB70000E5BB0000E4A90000D5B70000BD
:1036000010B5124A002312780C46FFF77FFF10F125
:10361000160F08D00E4B0022072800DD10BD986061
:103620001A610130F8E70B4A0B490C484FF49873C4
:1036300006F08FF821460A4806F08BF8BDE81040E6
:1036400004484FF4987105F081BF00BFC6130020F5
:1036500090ED00E09EB70000E5BB0000E4A900008B
:1036600001B80000254910B50C68082C13D94FF497
:10367000A473234A2349244806F06BF82348082200
:10368000214606F066F81E484FF4A47105F05EFF6F
:103690004FF0FF3010BDFFF783FF48681C49002240
:1036A000944200F10C0019D11A4B1C70FFF76EFF09
:1036B0000B68C3F30723082B0ED01749104A124892
:1036C0004FF4D47306F045F8144806F042F80C485D
:1036D0004FF4D47105F03AFF0020DBE78A6050F820
:1036E0000C3C23F01F03134343F01003CB6050F84E
:1036F000043C43F001030B610132D1E770A70000E5
:103700009EB70000E5BB0000E4A900002EB8000051
:1037100090ED00E0C613002062B80000B2B80000CF
:10372000014B1860704700BFD40000204FF0200309
:10373000EFF3118183F31288BFF36F8F0F4A0123D8
:10374000C2F840354FF08042C2F878350C4A126812
:10375000082A08D10B4A1268052A04D80A48825C54
:103760000AB10A4A13604FF080430122C3F8802552
:1037700081F31188BFF36F8F0020704700E0014094
:103780003001001034010010E2B80000380600409B
:103790004FF08043C0B2C3F81C05BFF34F8F0549FB
:1037A000054BCA6802F4E0621343CB60BFF34F8F4E
:1037B00000BFFDE700ED00E00400FA0520B1034B77
:1037C000800143F001031847704700BF30A7000095
:1037D000054A0123C2F8003508B1D3607047136071
:1037E000024A1360704700BF007000400470004040
:1037F000087970B500F01F04072C1FD80B78092B2F
:103800001CD8DFE803F006060606061B051E1B2073
:1038100005234A78032A18D0042A0FD100254A88A4
:1038200044F20A06B24244D011D844F20306B2422E
:103830003BD044F20506B24239D0D2B36FF0150046
:1038400032E00623E5E70723E3E70125E7E744F253
:103850001406B2422FD044F22806B2422DD044F2D0
:103860000F06B242EAD10322C0F340101B0243EA22
:10387000005343EA053343EA0243220102F1804246
:1038800002F5E0420020C2F81835230103F180431D
:1038900003F5E0438A79C3F81425C3F81005084BF3
:1038A0001C444B7984F8A83070BD0022DCE701226B
:1038B000DAE70222D8E70422D6E70522D4E700BFE0
:1038C00000000020F7B50546406810B96FF01500FC
:1038D0009CE030F0FF02F9D1574C584F114620FAC6
:1038E00002F313F0010333D0BB1893F8A8C0BCF166
:1038F000000FEBD004EB021E6E7CDEF81835003EA4
:1039000018BF012623F0807343EA0663CEF818350A
:1039100002F151031B01013144F803C0C9B2013265
:10392000082ADCD12B7C083B062BCFD801A252F809
:1039300023F000BF193A0000CD3800005B390000C9
:10394000CD380000113A0000CD380000153A0000D3
:1039500002F151063601A351E1E70122364B01295C
:10396000C3F8F0256A7C59D9002AAFD1C3F8F425F1
:103970002A684B0012B1928902FB0333EA689A422B
:1039800056D32D4BAA68C3F82C262F46C3F8301601
:103990000FCF2A4C04F17C060FC63B6833602B68BE
:1039A00000262667002B3CD00FCB04F1900585E85C
:1039B0000F00E567A4F8A06098B3BFF35B8F54E8ED
:1039C000003F44E80062002AF9D1BFF35B8F1C4836
:1039D000D4F890601B4A4FF4004500210023E5FB1A
:1039E0000601FCF77BFF0022CDE90001002304F172
:1039F000080005F095F894F87830BBB912484FF0FC
:103A0000FF324FF0FF3304F0A5FA206F03B0F0BD92
:103A10000222A3E70322A1E700229FE7082AA5D9F3
:103A200054E794F88E00FFF7D3FEE4E70020EDE7BB
:103A30006FF00B00EAE700BF0070004000000020BC
:103A40003F420F0040420F005800002070B50C4666
:103A500016460D4D4FF0FF324FF0FF3305F1400099
:103A600004F078FA0123204685F878306E67FFF776
:103A700029FF95F87830044603B110B1034804F0EB
:103A800025FA204670BD00BF000000204000002045
:103A90000D4B10B500241C601B680C4B1C601B6890
:103AA0000B4B1222C3F804230720FFF755FA2246D6
:103AB00001210720FFF76EFA0648836C13B94030E6
:103AC00004F004FA002010BD0471004010710040A1
:103AD0000070004000000020344B1A6810B5002A26
:103AE00055D000221A601B68314C324B01211960FD
:103AF000C3F8F824E36FDBB3D4F8943043B1B4F8DF
:103B0000A02004F17C019847012814D0022829D074
:103B1000B4F8A030B4F89C209A4223D90133A4F819
:103B2000A030254BD3F82C26D3F8341689B202EBFB
:103B30004102C3F82C26D4F890302BB994F88E00AB
:103B4000BDE81040FFF744BEBFF35B8F54E8003F71
:103B50005A1E44E800210029F8D1BFF35B8F012BE6
:103B6000ECDC10BDD4F8903013B1144806F03AFCE8
:103B700094F878304BB1606F10B1002102F01CFF57
:103B80000F48BDE8104004F0A1B90E48F9E70E4B0C
:103B900019680029E5D01A60064A1B6801231360E2
:103BA00042F8083C42F8043CDBE700BF04710040E7
:103BB0000000002008700040007000400800002055
:103BC00040000020580000201071004038B50C461D
:103BD0000C4D4FF0FF324FF0FF3305F1400004F081
:103BE000B9F90023204685F878306B67FFF76AFE45
:103BF00095F87830044603B110B1034804F066F933
:103C0000204638BD00000020400000202DE9F04192
:103C1000104C071BC7F347174FF00C0808FB07F8B9
:103C2000064608F148000D462044402105F0C1FF3A
:103C3000011E09DB084B4444C4E91035074B53F817
:103C40003730BDE8F041184730462B46BDE8F0411B
:103C5000184700BFCC0D0020159C0000B8A700003D
:103C600038B5CCB2012C054609D9094909480A4A98
:103C7000792305F06EFD0848792105F067FC2B6972
:103C80000C2104FB0134A06C00F0070038BD00BF1C
:103C900025B90000E4A90000E8B80000F8B5CCB2EE
:103CA000012C0769054616460BD918491848194AC8
:103CB00040F24D1305F04DFD164840F24D1105F050
:103CC00045FC4FF02003EFF3118283F31288BFF31A
:103CD0006F8F0C2303FB0471896C11F0C00101D0BC
:103CE0008E4210D103FB047301219964002082F3FA
:103CF0001188BFF36F8F28B9696801EBC40463684A
:103D000098470020F8BD4FF0FF30F0E725B90000DC
:103D1000E4A90000E8B8000070B50D460649411A54
:103D20000446491105484022FFF7B8FF2B460146DB
:103D30002046BDE870401847CC0D0020C0A400000C
:103D4000002270B5012104461046FFF723F9002038
:103D5000FFF702F90F4801F0B1F80F4B984215D167
:103D600001F0D0F826690D49304605F0DDFC002849
:103D70000BDB0125B5642469084904F1200005F036
:103D8000D3FC002801DB6565002070BD6FF00400E6
:103D9000FBE700BFD53D00000000AD0BC8A7000049
:103DA00001460C2309484B4370B5C418D4E910569A
:103DB000002248332264184405F019FF2DB1324621
:103DC0002B460348BDE87040184770BDCC0D00205D
:103DD000C0A40000012808B506D0032808D0A8B95F
:103DE000104B9B6C5B071BD1BDE80840FFF7D8BFA9
:103DF0000D490E4A0E4840F25E2305F0AAFC40F23F
:103E00005E21BDE80840094805F0A0BB0649074A05
:103E1000074840F2622305F09CFC40F26221F0E783
:103E200008BD00BFCC0D0020E5BB0000E8B80000D5
:103E3000E4A9000008B54FF02003EFF3118183F3EC
:103E40001288BFF36F8F124A136843F0020013F019
:103E5000010310600CD04FF08042D2F80C34D2F83D
:103E60000C2413F0010303D00A4805F0C0FE01231F
:103E700081F31188BFF36F8F23B1BDE808400020A4
:103E8000FFF78EBFBDE80840012001F05BB800BF1E
:103E9000240E0020140E0020094BBFF35B8F53E863
:103EA000002F22F0020143E800100028F7D1BFF3F1
:103EB0005B8FD30702D4012001F098B8704700BF90
:103EC000240E00207FB500220123CDE9022304AB9C
:103ED000CDE90433094ACDF800D06B46CDF804D0C3
:103EE00005F0AAFE002805DB4FF480420023684657
:103EF00004F030F807B05DF804FB00BF339C00000D
:103F00002DE9F8434949BFF35B8F0546012251E88B
:103F1000003F41E800200028F9D1BFF35B8FA3B92F
:103F2000434944484B60CB608A60FEF76BFD002834
:103F30000BDA41494148424A4FF4087305F009FC45
:103F40003F484FF4087105F001FBADB36B1E012B28
:103F500056D8012D07D14FF08043D3F81C3403F01D
:103F60000303012B28D006F028FA044618B9354B74
:103F70001B78002B52D14FF02003EFF3118683F30F
:103F80001288BFF36F8F01242F4FDFF8C480DFF852
:103F9000C4904FF08042D2F81834D2F81824D203DB
:103FA0000CD503F00303012B01D0012D06D10CB376
:103FB00086F31188BFF36F8FBDE8F883ACB130464C
:103FC000FEF762FF4FF08042D2F81835002BE0D1A7
:103FD00039680029DDD03B603B680123C2F8183501
:103FE000C8F88031C9F80030D3E70021212003F060
:103FF00001FEE7E74FF080430222C3F80423DBE72A
:1040000012490E480E4A40F2322305F0A2FBBDE8E9
:10401000F8430B4840F2322105F098BA4FF0804344
:104020000222C3F808230646AEE700BF280E002090
:10403000BC0D0020EC0D002049B90000E4A90000EF
:10404000E8B800000714002004010040E5BB0000B0
:1040500000E100E0080000400A4B70B5C6B21B68E2
:1040600004463046984701280AD00A2C064D03D151
:1040700028680D2105F0FBFD2868314605F0F7FDA5
:10408000204670BDD80000202C0E002008B5084B3B
:104090000848186006F01FF938B10748FFF740FBE1
:1040A0000548FEF795FE002008BD6FF01200FBE703
:1040B0002C0E002020A500005940000070B50569B5
:1040C00016460C4661B92249224A2348242305F0AA
:1040D00040FB224805F03DFB1E48242105F036FA3E
:1040E000636863B91E491B4A1B48252305F031FB51
:1040F0001C4805F02EFB1748252105F027FA6B68B0
:104100005BB100229C4213D123685AB9AA686B6044
:10411000944200D1AB600023236076B9002070BDCB
:104120000B46EFE71360AB689C4208BFAA60F2E75A
:1041300019681A460029F3D13EB16B682360A8685C
:104140006C600028EAD1AC60E9E76FF01500E6E7A3
:1041500085B9000058B90000E4A900008EB900003C
:104160009DB90000AFB9000043092DE9F04703D025
:10417000012B36D0BDE8F0871B4F3B695C68002CF3
:10418000F8D02568DFF86C80DFF86C90DFF86CA061
:1041900000F01F000126002D06FA00F638BF0025AA
:1041A000A3681E4214D0636863B94946452342465A
:1041B000504605F0CEFA0D4805F0CBFA45214046B1
:1041C00005F0C4F9D4E90132214632403846984717
:1041D000002DCFD02B68002B38BF00232C461D4666
:1041E000DEE7034FC9E700BFD8A40000AFB9000065
:1041F000F0A4000058B90000C6B90000E4A900000E
:104200007FB54068057B01F01F04B2F5005F44EA0A
:1042100045144FF0000504D1204601F07FFA00203C
:1042200054E0B2F5804FCDE9025551D1B3F5003FCE
:104230000CBF042305238DF80830836823FA01F1AD
:1042400011F0010155D1B2F5A03F52D166094AD013
:104250004FF6FF73012E08BF194604F01F05E94011
:10426000CA070BD42B492C482C4A40F2292305F0CD
:1042700070FA2A4840F2292105F068F96EB1012E42
:1042800034D027492448254A40F22E2305F061FA0C
:10429000224840F22E2105F059F94FF0A04305F5D0
:1042A000E07553F82530DB0723D40DF107052946C7
:1042B000204601F05DF91B4B984219D1284601F0C8
:1042C000B7F9194B984213D06FF00B0004B070BDD2
:1042D000B3F5C02F05D0B3F5003F0CBF0223012377
:1042E000A9E70323A7E74FF0FF31B6E70F4BD6E767
:1042F00003950023194602AA204601F01BF80A4B39
:10430000984204D10121204601F098F987E76FF027
:104310000400DBE705BA0000E4A90000D2B9000000
:10432000E5BB00000400AD0B0000AD0B0003005026
:1043300010B501F06DF9044668B901F041F9084B78
:1043400098420AD10748214601F00CF9224605217E
:104350000620FEF71FFE002010BD6FF00400FBE7F3
:104360000000AD0B694100002DE9F04347683B7B3D
:1043700001F01F0585B00E4645EA43151446CAB93B
:1043800002A9284601F0F4F80446284601F0E8F9AD
:10439000484B984204D06FF0040005B0BDE8F083AC
:1043A000844205D19DF8080001F03CF9A042F2D109
:1043B0000020F2E74FF000090DF103013046CDE98E
:1043C000029901F0D5F84B46804602AA4946284694
:1043D00000F0B0FF374B984202D06FF01500DCE7D9
:1043E000804503D19DF8030001F01CF9A3054ED5CB
:1043F000314B324A234093423AD00CD8062B14D08A
:1044000004D893B1022BE8D104230EE0B3F5801F4A
:10441000E3D1012309E02A4A93422BD0B3F5A00F40
:104420002AD0B3F5800FD8D102238DF8043084F45C
:104430008073C3F30023E0068DF8053054BFC4F346
:104440004013032321058DF8063017D57B68012121
:1044500001FA06F6C3F80865002201A9284601F012
:1044600011F8144B984214BF6FF01500002094E728
:104470000723DAE70523D8E70323D6E7620541BF20
:104480007B68012101FA06F6C3F80C65E4E7E30650
:104490004FF0000354BFC4F3401403241A4601A98B
:1044A00028468DF8044000F045FF024B98423FF447
:1044B0007FAF92E70000AD0B0600F0000600100091
:1044C0000200400002480021C2E9000100207047BC
:1044D0000024F40002464068126938B500F1080370
:1044E000043200F10C04194613F9015B002DB4BF2E
:1044F00000254FF40045A34222F8025BF4D10023CB
:104500001A4601F0EFFA034B984214BF6FF00F0008
:10451000002038BD0000AD0B0268530910B50446F9
:104520002CD0012B4FF6FF7318BF002302F01F029F
:10453000D340DB070BD414491448154A40F2292311
:1045400005F007F9124840F2292104F0FFFF236823
:1045500003F01F025B0922600DD0012B11D00D4921
:104560000A480B4A40F22E2305F0F3F8084840F2BF
:104570002E2104F0EBFF4FF0A04010BD4FF0FF33B1
:10458000D4E70548F9E700BF05BA0000E4A9000038
:10459000D2B90000E5BB000000030050F0B54B7934
:1045A000012B26D0032B21D110268B79032B1DD173
:1045B000CC790CB1012C19D10A7912B1022A15D18A
:1045C0000E220B684568B3F5164F2D6865D02DD8BF
:1045D000B3F5165F64D016D8B3F5966F62D00AD8DB
:1045E000B3F5967F61D0B3F5167F61D06FF085008B
:1045F00052E00026D9E7B3F5166F5CD0B3F5965FAD
:10460000F4D1374B3CE0B3F5E14F57D007D8B3F5C1
:10461000615F55D0B3F5964FE8D1324B30E047F6A5
:104620001227BB42E2D14FF4000329E0B3F5613F0A
:1046300048D013D8B3F5963F47D009D84DF6C027D8
:10464000BB4244D0B3F5614FD0D14FF46B0317E0B8
:10465000B3F5E13FCAD14FF0EB7311E0B3F5612F31
:1046600038D008D8204FBB4237D0B3F5E12FBDD1A9
:104670004FF0E86304E01D4FBB42B7D14FF08053C9
:10468000C5F82435036903C9344322430433C5F80C
:104690006C2583E803000020F0BD4FF41D03EFE715
:1046A000134BEDE74FF49E23EAE74FF4A033E7E71F
:1046B0004FF41C33E4E74FF41D23E1E70D4BDFE734
:1046C0000D4BDDE74FF06C73DAE70C4BD8E74FF496
:1046D0006503D5E74FF07063D2E74FF08063CFE713
:1046E00000B0130000A04E0090D0030040420F0025
:1046F0000050270000C0750000F03A0000903A0119
:104700000268530910B504462CD0012B4FF6FF73F5
:1047100018BF002302F01F02D340DB070BD414495B
:104720001448154A40F2292305F013F8124840F2C4
:10473000292104F00BFF236803F01F025B092260AC
:104740000DD0012B11D00D490A480B4A40F22E23FF
:1047500004F0FFFF084840F22E2104F0F7FE4FF06E
:10476000A04010BD4FF0FF33D4E70548F9E700BF84
:1047700005BA0000E4A90000D2B90000E5BB0000C2
:1047800000030050F8B5066905460F4605F015FE12
:1047900010B9204B1B7883B94FF02003EFF311843D
:1047A00083F31288BFF36F8F284605F0C6FB28BB42
:1047B00084F31188BFF36F8FEEE76424284605F079
:1047C000BCFB70B9012005F0F1FC013CF6D10021E1
:1047D000212003F00FFAF0E784F31188BFF36F8F05
:1047E000F5E74FF02003EFF3118483F31288BFF352
:1047F0006F8F284605F0A1FB0028EDD0314601223D
:1048000001F8147F284605F02BFC84F31188BFF3D0
:104810006F8FF8BD071400202DE9F743D0F804800E
:104820000769D8F800400023C4F8003538604568AF
:10483000EB680646581C13D001A80193FFF760FFF0
:10484000019A01239340C0F80835EB68019301A851
:10485000FFF756FF019B03F5E073032240F8232086
:104860002B69591C11D02A7F0193002A01A814BF7B
:104870004FF003094FF00009FFF742FF019B03F5DA
:10488000E0734FEA890240F823206B695A1C13D069
:1048900001A80193FFF734FF019A01239340C0F868
:1048A00008356B69019301A8FFF72AFF019B03F507
:1048B000E073032240F82320AB69581C11D06A7FB3
:1048C0000193002A01A814BF4FF003094FF000091B
:1048D000FFF716FF019B03F5E0734FEA890240F8EA
:1048E0002320D5E903122B68C3F80C15C3F814254F
:1048F000D5E90512C3F808153169C3F8102504314C
:104900003046FFF74BFE0546002846D1D8F8043064
:10491000990719D507F1160001F020F8224B9842AB
:104920003FD1B87DC30003F1804303F5F83304F1B0
:104930000C0204F59071C3F81015C3F814251B4A36
:1049400001238340C2F804350823C4F8003598F8E1
:1049500008305BB9C4F81031D4F8103107F11503F1
:10496000C4F834350123C4F838352360D8F804304E
:104970009A075CBF4FF48072C4F80423DB0644BF7F
:104980004FF48003C4F8043314370023C4F844758B
:10499000C4F848350123A360E360284603B0BDE8AE
:1049A000F0836FF00405F8E70000AD0B00F0014064
:1049B000194970B5044622F07F460868C1E9002312
:1049C000A6F50013101AB3F5400F4FF000050AD2F8
:1049D000124B19680A060B0A9219114943F1000398
:1049E000C1E90023012503F0CBFEA30003F18043BE
:1049F00003F58833D3F84025B2420BD11DB94FF4EB
:104A00000002C3F84025074B4FF4803000FA04F44D
:104A1000C3F8444370BD00BFA8050020600E00200D
:104A2000900500200010014010B501238340114A79
:104A3000BFF35B8FDC4352E8001F01EA040C42E83D
:104A400000CEBEF1000FF6D1BFF35B8F4FF4803282
:104A500002FA00F002F1804202F58052C2F8080327
:104A6000BFF35F8FBFF36F8F0B4214BF0120002095
:104A700010BD00BF5C0E00200123124ABFF35B8F04
:104A8000834052E8001F194342E8001CBCF1000FAC
:104A9000F7D1BFF35B8F0C4A4FF480338340C2F8E9
:104AA00004330A4BBFF35B8F1B68BFF35B8F23FAA2
:104AB00000F0C30742BF064B4FF40032C3F8002199
:104AC000704700BF5C0E002000100140580E00200F
:104AD00000E100E00D4B1B68190A1806BFF35F8F59
:104AE0000B4BD3F80435C01841F10001B3F5801F1A
:104AF0000AD2084BD3E90023994208BF904203D25F
:104B000010F1807041F10001704700BF600E00207D
:104B100000100140900500202DE9F04F85B01646A9
:104B20001F460546FFF780FF0190FFF7D3FFB9420C
:104B300008BFB0427FD2B6EB000867EB0109002343
:104B40004FF080724B4508BF4245C0F08580444B12
:104B500003EB0513D3E902239F4208BF964254D0CA
:104B60004FEA85094FF4803B09F1804905F150086F
:104B70000BFA05F209F588394FEA88081FFA88F818
:104B80000292384AD9F8400526F07F4308F1804860
:104B900008F588381C469346D2F804A5A0EB0A0015
:104BA00020F07F402AF07F410128C9F8401505D147
:104BB0000393132005F012FC2A4A039B02990AF181
:104BC000020CA4EB0C0020F07F40B0F5000F88BF72
:104BD00064460020C8F80000D8F80000CBF8441361
:104BE00024F07F40C9F84005DBF80405824506D073
:104BF000201A023820F07F40B0F5000F19D8E41ACF
:104C000024F07F44321947F10003154C290104EBCD
:104C10000510C0E902230E9A0F9B625043600024E6
:104C2000019B13B12846FFF727FF204605B0BDE8DA
:104C3000F08F2046B0E701230B4ABFF35B8FAB40F8
:104C400052E8001F194342E800100028F8D1BFF3D2
:104C50005B8F32463B46D8E76FF01504E0E700BFB4
:104C60009805002000100140580E002073B5194B24
:104C7000194D00244FF0FF304FF0FF31C5F80845C3
:104C8000C3E902014FF48033C5F80433134B022605
:104C90004FF400320121C5F804631120C3F88021CC
:104CA0002246FEF777F91120FEF756F90C4A012348
:104CB00013600C4A2B6013600B4B0C4A0093019459
:104CC00000232046FFF728FF3046FFF719F920465A
:104CD00002B070BD980500200010014000E100E026
:104CE000081001405C0E0020B1490000FFFF7F006A
:104CF0002DE9F743344CD4F804339A0709D5334BE4
:104D00001A6832B100221A60314A1B6813680133F5
:104D100013604FF02003EFF3118283F31288BFF387
:104D20006F8FD4F80433DB0312D5BFF35B8F294BAD
:104D300053E8001F21F0010043E80006002EF7D1E0
:104D4000BFF35B8F244B002936D11968002933D17A
:104D5000002382F31188BFF36F8F53B3FFF7BAFEBE
:104D600006464FF02003EFF3118083F31288BFF360
:104D70006F8F1A4BD3E90289494508BF46454FF06A
:104D800000021ED34FF0FF364FF0FF37D3E9001576
:104D9000C3E902671A604FF48033C4F8483380F3E4
:104DA0001188BFF36F8F21B1009542464B4600201A
:104DB000884703B0BDE8F083002119601B68012318
:104DC000C7E71146EBE700BF0010014004110140A6
:104DD000600E0020580E0020401101409805002070
:104DE000144B13B5B0F1FF3F08BF1846441E002C0A
:104DF0001EDD9C42A8BF1C46FFF76CFE0E4B0F4900
:104E0000D3E90023801AB0F5000F28BF0024013039
:104E1000044408480091844228BF044612194FF008
:104E20000000019043F10003FFF776FE02B010BDD1
:104E30000024E1E7FFFF7F00A8050020B149000042
:104E400008B5FFF747FE024B1B68C01A08BD00BF3C
:104E5000A805002008B578B101281CD0144A1549CE
:104E600015484FF44F7304F074FC11484FF44F7120
:104E700004F06CFB00200DE031B14FF08043D3F81B
:104E8000183403F003030B604FF08043D3F8180489
:104E9000C0F3004008BD31B14FF08043D3F80C346B
:104EA00003F001030B704FF08043D3F80C04EFE7DD
:104EB0003DBA0000E5BB0000E4A9000010B50446BF
:104EC00048B90A490A480B4ABD2304F042FC094884
:104ED000BD2104F03BFB084B1A7922B90122074897
:104EE0001C609A8010BD0648FCE700BFAEBA000007
:104EF000E4A9000071BA0000640E00200000AD0BB0
:104F00000C00AD0B08B50B4B1B794BB90A490B488C
:104F10000B4AD62304F01DFC0948D62104F016FBE9
:104F20000020FEF729F818B9BDE80840FEF714B8CC
:104F300008BD00BF640E0020BCBA0000E4A9000058
:104F400071BA0000224B1B7913B504465BB92149A5
:104F50002148224A4FF4897304F0FBFB1F484FF4A9
:104F6000897104F0F3FA74B1012C27D01B4A1C4953
:104F700019484FF4A27304F0ECFB18484FF4A271E7
:104F800004F0E4FA16E001A92046FFF763FF4FF0B2
:104F9000804388B1019A012A0ED1C3F81825114B1C
:104FA00000221A601B684FF080430222C3F80423DA
:104FB00001229A6002B010BD0022EEE70A4B0022E7
:104FC0001A601B684FF08043C3F804431C60F1E78C
:104FD000640E0020BCBA0000E4A9000071BA000011
:104FE000E5BB0000040100400001004037B52F4D33
:104FF0002A7904465AB92E492E482F4A40F24B13BB
:1050000004F0A7FB2C4840F24B1104F09FFA7CB14E
:10501000012C28D029492748274A40F2671304F079
:1050200098FB254840F2671104F090FA03B030BDB8
:105030004FF080430222C3F80823C3F8044103F56C
:10504000827301221B681E4B42F210741A60002109
:105050000846FFF7FFFE0028E8D0012005F0A6F87B
:10506000013CF4D1E2E74FF080430022C3F808434B
:10507000C3F8002103F580731B68124B1C608DF888
:10508000074042F210740DF107010120FFF7E2FE24
:1050900010B900236B71C9E79DF807000128F8D10A
:1050A00005F084F8013CEED1F3E700BF640E002068
:1050B000BCBA0000E4A9000071BA0000E5BB000022
:1050C0000C00004004000040164B07B51A686AB196
:1050D00000221A601B684FF080430122C3F80823A6
:1050E000114B587910B95A711B6898470F4B1A68C1
:1050F0006AB10020186001A91B68FFF7ABFE019A96
:105100004FF0804332B90122C3F818259A6003B0EA
:105110005DF804FB0222C3F80823034B01201B683F
:105120009847F4E700010040640E002004010040AD
:1051300070B501250368B3FA83F2202AC2F11F0477
:1051400014D0BFF35B8F05FA04F223EA020250E8A1
:10515000006F9E4204D140E8002CBCF1000FF6D154
:10516000BFF35B8FE6D102480C7070BD0148FCE7CD
:105170000000AD0B0200AD0B0368CB40DB0710B5A0
:1051800015D4012303FA01F10368BFF35B8F41EAF1
:10519000030250E8004F9C4204D140E8002CBCF1CF
:1051A000000FF6D1BFF35B8FEED1024810BD02486D
:1051B000FCE700BF0000AD0B0400AD0B054B083051
:1051C00033F8100000F02200A0F1220358425841A9
:1051D000704700BF3401002070B500F108030C4C8B
:1051E00034F81330DA0505460E4607D5C3F34323DA
:1051F00004EBC30254F8333052689847A3682BB1CC
:10520000E26831462846BDE87040184770BD00BFCF
:1052100034010020194B083010B533F81020D105A7
:105220001DD5C2F3432122F4F85223F8102003F1D4
:105230001004002034F8022B12F4807F03D0C2F354
:10524000432291420BD001303028F3D1002243F8A1
:1052500031200B48FFF790FF0A4B984200D110BD58
:1052600009490A480A4A4FF4997304F072FABDE8F2
:10527000104007484FF4997104F068B934010020D8
:10528000A80100200000AD0B3EBB0000E4A9000017
:10529000DABA000038B50A4C00F1080534F81530C8
:1052A0009A0606D55B0B074A03F5A273002142F864
:1052B0002310FFF7AFFF002324F8153038BD00BFDF
:1052C000340100200060004010B50446006804F07E
:1052D0006FFF58B912491348134A40F2292304F0CA
:1052E00038FA114840F2292104F030F9236803F01C
:1052F0001F025B0922600DD0012B0ED00B4909481B
:10530000094A40F22E2304F024FA074840F22E21E5
:1053100004F01CF94FF0A04010BD0548FCE700BFA9
:1053200005BA0000E4A90000D2B90000E5BB000006
:1053300000030050F0B5044685B017461D46F1B194
:10534000FFF73CFF10B14A4805B0F0BD0B46CDE970
:1053500000008DF80E008DF80F000DF10F020DF119
:105360000E01204604F039FF424A04F1080132F8E8
:10537000113023F0020343F0010322F8113097B1FA
:105380003C4B3E787A6804F1080033F810108F0720
:105390000CD5002AD7D133F8102022F01C0242EAA3
:1053A000860223F81020CDBB3348CDE721F0200141
:1053B000C904C90C23F81010002AECD0032EC2D85F
:1053C00017782EB92D4A07F5A27142F82160E2E75D
:1053D000BA0002F1804202F5C04241EA4731D2F8F8
:1053E00010C52CF0030CC2F810C5D2F810C52CF46F
:1053F0004F3C2CF4407CC2F810C5D2F810E54FEABF
:10540000042C0CF47C5C4EEA064E4CEA0E0C41F087
:10541000200123F81010C2F810C5BCE7D5E90067D9
:105420002046FFF7F7FE002EBED0124D2B689E429D
:1054300004D16B689F4201D100220AE010480DF1AF
:105440000F01FFF775FE0C4B98427FF47DAF9DF87E
:105450000F2045F8326005EBC20308345F6035F871
:10546000143043EA422343F4807325F814309BE759
:105470000400AD0B340100200000AD0B00600040C3
:10548000A8010020F0B5044685B0154609B300F127
:105490000807314E36F81730980701D49A0658D4C9
:1054A00013F01C0F02D04B78012B52D001238DF842
:1054B0000F300023CDE900134A1C8B1C20460DF150
:1054C0000F0104F08AFE36F8173043F0030326F884
:1054D000173015B9214805B0F0BD1F4E04F108077B
:1054E00036F81700830734D595F800C06146890067
:1054F00020F0200001F18041C00401F5C041C00C42
:1055000026F817000023C1F810356A78002AE1D088
:10551000D1F81035AD7823F4991323F4F853C1F87A
:105520001035D1F810E5230203F47C53120443EA4A
:105530000E0302F440322D05134305F4801540EAB2
:105540004C302B4340F0200026F81700C1F81035EE
:10555000C0E70348BFE700BF340100200000AD0BE7
:105560000400AD0B014BC3E9020170473401002078
:1055700038B504460D4659B90B490C480C4A40F25F
:10558000352304F0E6F80A4840F2352103F0DEFF47
:105590000834084B33F814309A0643BF5B0B2B706A
:1055A0000548064838BD00BF52BB0000E4A9000012
:1055B000DABA0000340100200000AD0B0400AD0B8E
:1055C00038B50E4C94F87850B5B96022294604F1EC
:1055D000100004F0B0FA0620FDF7BEFC084B0948A5
:1055E0001D601B68084B4FF00042C3F804230123E1
:1055F00084F87830636738BD0448FCE73401002044
:105600007C6100400000AD0B006000400500AD0B68
:10561000034B93F87800003818BF0120704700BF93
:105620003401002001460148FFF7A6BDA401002077
:1056300001460148FFF77CBDA4010020F7B5314DBC
:1056400000F10807044635F8173013F01C0F0E461A
:105650000BD12D492D482E4A40F2DF3304F079F862
:105660002B4840F2DF3103F071FF35F81700830655
:105670001FD510F002031CD1410B084604F0A9FD10
:1056800000F1804000F5C040036003688B0003F127
:10569000804303F5C043D3F8102542F00102C3F85C
:1056A000102526B11B4A01238B40C2F8043303B0F6
:1056B000F0BD5EB918491548154A40F2EE3304F0C2
:1056C00048F8134840F2EE3103F040FF35F8173048
:1056D000C3F38203042B10D0052B10D001A8019432
:1056E000FFF7F2FD019BD0F81015D94001F0010140
:1056F0000231204604F0BCFDD9E70321F9E702217D
:10570000F7E700BF340100205CBB0000E4A9000003
:10571000DABA00000060004071BB00000E4B00F1DF
:10572000080233F81230990613D59A0711D45B0B8F
:1057300001229A409B00094903F1804303F5C043CD
:10574000C1F80823D3F8102522F00302C3F810256E
:105750007047002104F08CBD34010020006000403F
:105760000E4B00F1080213B513F81230DB070446A4
:1057700011D5FFF7D3FF2046FFF78CFD01A8019458
:10578000FFF7A2FD019B03F5E073022240F82320FE
:10579000034802B010BD0348FBE700BF34010020FE
:1057A0000000AD0B0400AD0B2DE9F04F654B6648D2
:1057B0006649002589B001222C461E6836B1D0F812
:1057C000046316421EBF1C601E68154304338B42DF
:1057D0004FEA4202F1D15E4F3B687BB34FF0A043EA
:1057E0005C4ED3F820250692C3F82025D6F8203544
:1057F0000793C6F8203501960DF118094FF00008FF
:105800004FF0010BD9F80030F3B908F12008B8F1D6
:10581000400F09F10409F5D13B603B6801994FF055
:10582000A043D3F820250692C3F82025019BD3F886
:1058300020350793C1F820351343DDD10124002D15
:1058400068D109B0BDE8F08F93FAA3F3B3FA83F3FC
:1058500008EB030606F108023F4B059633F81220C9
:10586000C2F38203F40802939A4606AB06F00700DF
:105870000BFA00FC185D20EA0C001855910805A8E9
:105880000391FFF721FD059C039904F5E0744B0794
:1058900050F82440C4F3014423D551463046FFF765
:1058A0009BFC05A80596FFF70FFD059A02F5E0722F
:1058B000E4B250F82220C2F30142944207D1002101
:1058C000304604F0D5FC2146304604F0D1FC05A852
:1058D0000596FFF7F9FC059B0BFA03F3C0F820359A
:1058E00090E7022C0CBF03210221304604F0C0FCDB
:1058F000029B032B04D0022C07D1BAF1010FE6D191
:1059000051463046FFF768FCE1E7032CDFD1BAF1DE
:10591000020FF4E795FAA5F3B3FA83F304FA03F25E
:105920009B0003F1804303F5C04325EA0205D3F849
:105930001005D3F81015C0F30520C1F30141FFF79E
:105940004BFC7CE7006100400060004020610040AB
:105950007C610040000300503401002001460148F2
:10596000FFF7E6BBB00100202DE9F04104460E46EA
:1059700015465AB932493348334A40F2A72303F057
:10598000E8FE314840F2A72103F0E0FD2F685FB93F
:105990002E492C482C4A4FF42D7303F0DAFE2A4886
:1059A0004FF42D7103F0D2FD04EB4618C8F82075B2
:1059B000AF88002F38D12649234A224840F2BD2320
:1059C00003F0C7FE40F2BD211F4803F0BFFDC8F839
:1059D0002475AF68B7F1807F0BD31E4919481A4A66
:1059E00040F2C72303F0B5FE174840F2C72103F089
:1059F000ADFDED684FEA461804EB4616B5F1807F21
:105A0000C6F828750BD314490E480F4A4FF4347367
:105A100003F09FFE0C484FF4347103F097FD4444AB
:105A2000C4F82C55BDE8F0813B04D0D50B49064A9B
:105A3000044840F2BE2303F08CFE40F2BE21C3E7CF
:105A4000AEBB0000E4A900007CBB0000C3BB0000AB
:105A5000DBBB000005BC000026BC0000E7BB00006B
:105A60000268530910B504462CD0012B4FF6FF7382
:105A700018BF002302F01F02D340DB070BD41449E8
:105A80001448154A40F2292303F063FE124840F2FD
:105A9000292103F05BFD236803F01F025B092260EC
:105AA0000DD0012B11D00D490A480B4A40F22E238C
:105AB00003F04FFE084840F22E2103F047FD4FF05F
:105AC000A04010BD4FF0FF33D4E70548F9E700BF11
:105AD00005BA0000E4A90000D2B90000E5BB00004F
