:10000000A03200205D2E0000FD970000492E000068
:10001000492E0000492E0000492E0000000000007B
:10002000000000000000000000000000652C00003F
:10003000492E000000000000112C0000492E000095
:10004000C92B0000C92B0000C92B0000C92B0000E0
:10005000C92B0000C92B0000C92B0000C92B0000D0
:10006000C92B0000C92B0000C92B0000C92B0000C0
:10007000C92B0000C92B0000C92B0000C92B0000B0
:10008000C92B0000C92B0000C92B0000C92B0000A0
:10009000C92B0000C92B0000C92B0000C92B000090
:1000A000C92B0000C92B0000C92B0000C92B000080
:1000B000C92B0000C92B0000C92B0000C92B000070
:1000C000C92B0000C92B0000C92B0000C92B000060
:1000D000C92B0000C92B0000C92B0000C92B000050
:1000E000C92B0000C92B0000C92B0000C92B000040
:1000F000C92B0000C92B0000C92B0000C92B000030
:1001000081F0004102E000BF83F0004330B54FEAC8
:1001100041044FEA430594EA050F08BF90EA020F35
:100120001FBF54EA000C55EA020C7FEA645C7FEAC8
:10013000655C00F0E2804FEA5454D4EB5555B8BFEB
:100140006D420CDD2C4480EA020281EA030382EA5C
:10015000000083EA010180EA020281EA0303362DEE
:1001600088BF30BD11F0004F4FEA01314FF4801CC1
:100170004CEA113102D0404261EB410113F0004FD3
:100180004FEA03334CEA133302D0524263EB43038A
:1001900094EA050F00F0A780A4F10104D5F1200E28
:1001A0000DDB02FA0EFC22FA05F2801841F1000183
:1001B00003FA0EF2801843FA05F359410EE0A5F157
:1001C00020050EF1200E012A03FA0EFC28BF4CF088
:1001D000020C43FA05F3C01851EBE37101F000453E
:1001E00007D54FF0000EDCF1000C7EEB00006EEB4B
:1001F0000101B1F5801F1BD3B1F5001F0CD34908D5
:100200005FEA30004FEA3C0C04F101044FEA44522B
:1002100012F5800F80F09A80BCF1004F08BF5FEAB2
:10022000500C50F1000041EB045141EA050130BD92
:100230005FEA4C0C404141EB0101013C28BFB1F5A4
:10024000801FE9D291F0000F04BF01460020B1FAEF
:1002500081F308BF2033A3F10B03B3F120020CDAC2
:100260000C3208DD02F1140CC2F10C0201FA0CF0A0
:1002700021FA02F10CE002F11402D8BFC2F1200C05
:1002800001FA02F120FA0CFCDCBF41EA0C019040BB
:10029000E41AA2BF01EB0451294330BD6FEA040404
:1002A0001F3C1CDA0C340EDC04F11404C4F12002EF
:1002B00020FA04F001FA02F340EA030021FA04F301
:1002C00045EA030130BDC4F10C04C4F1200220FA58
:1002D00002F001FA04F340EA0300294630BD21FA96
:1002E00004F0294630BD94F0000F83F4801306BF5C
:1002F00081F480110134013D4EE77FEA645C18BF50
:100300007FEA655C29D094EA050F08BF90EA020FE6
:1003100005D054EA000C04BF1946104630BD91EADE
:10032000030F1EBF0021002030BD5FEA545C05D1E1
:100330004000494128BF41F0004130BD14F5800420
:100340003CBF01F5801130BD01F0004545F0FE4194
:1003500041F470014FF0000030BD7FEA645C1ABFC9
:10036000194610467FEA655C1CBF0B46024650EA00
:10037000013406BF52EA033591EA030F41F400212C
:1003800030BD00BF90F0000F04BF0021704730B5B2
:100390004FF4806404F132044FF000054FF0000187
:1003A00050E700BF90F0000F04BF0021704730B548
:1003B0004FF4806404F1320410F0004548BF40421D
:1003C0004FF000013EE700BF42004FEAE2014FEA72
:1003D00031014FEA02701FBF12F07F4393F07F4F4D
:1003E00081F06051704732F07F4208BF704793F050
:1003F0007F4F04BF41F40021704730B54FF4607463
:1004000001F0004521F000411CE700BF50EA010265
:1004100008BF704730B54FF000050AE050EA01020E
:1004200008BF704730B511F0004502D5404261EB7E
:1004300041014FF4806404F132045FEA915C3FF4BF
:10044000D8AE4FF003025FEADC0C18BF03325FEA5C
:10045000DC0C18BF033202EBDC02C2F1200300FA0D
:1004600003FC20FA02F001FA03FE40EA0E0021FA32
:1004700002F11444BDE600BF70B54FF0FF0C4CF420
:10048000E06C1CEA11541DBF1CEA135594EA0C0FD2
:1004900095EA0C0F00F0DEF82C4481EA030621EA0D
:1004A0004C5123EA4C5350EA013518BF52EA033548
:1004B00041F4801143F4801338D0A0FB02CE4FF0FA
:1004C0000005E1FB02E506F00042E0FB03E54FF02A
:1004D0000006E1FB03569CF0000F18BF4EF0010E22
:1004E000A4F1FF04B6F5007F64F5407404D25FEA1E
:1004F0004E0E6D4146EB060642EAC62141EA5551D1
:100500004FEAC52040EA5E504FEACE2EB4F1FD0C12
:1005100088BFBCF5E06F1ED8BEF1004F08BF5FEA90
:10052000500E50F1000041EB045170BD06F0004642
:1005300046EA010140EA020081EA0301B4EB5C04EF
:10054000C2BFD4EB0C0541EA045170BD41F48011E7
:100550004FF0000E013C00F3AB8014F1360FDEBF0C
:10056000002001F0004170BDC4F10004203C35DAE8
:100570000C341BDC04F11404C4F1200500FA05F36B
:1005800020FA04F001FA05F240EA020001F000420C
:1005900021F0004110EBD37021FA04F642EB060182
:1005A0005EEA430E08BF20EAD37070BDC4F10C04AC
:1005B000C4F1200500FA04F320FA05F001FA04F270
:1005C00040EA020001F0004110EBD37041F100015C
:1005D0005EEA430E08BF20EAD37070BDC4F1200567
:1005E00000FA05F24EEA020E20FA04F301FA05F2CF
:1005F00043EA020321FA04F001F0004121FA04F277
:1006000020EA020000EBD3705EEA430E08BF20EA46
:10061000D37070BD94F0000F0FD101F00046400080
:1006200041EB010111F4801F08BF013CF7D041EA02
:10063000060195F0000F18BF704703F00046520006
:1006400043EB030313F4801F08BF013DF7D043EAD7
:100650000603704794EA0C0F0CEA135518BF95EA8D
:100660000C0F0CD050EA410618BF52EA4306D1D114
:1006700081EA030101F000414FF0000070BD50EA33
:10068000410606BF1046194652EA430619D094EABD
:100690000C0F02D150EA013613D195EA0C0F05D1A7
:1006A00052EA03361CBF104619460AD181EA0301FB
:1006B00001F0004141F0FE4141F470014FF00000B3
:1006C00070BD41F0FE4141F4780170BD70B54FF04E
:1006D000FF0C4CF4E06C1CEA11541DBF1CEA1355CE
:1006E00094EA0C0F95EA0C0F00F0A7F8A4EB0504B0
:1006F00081EA030E52EA03354FEA013100F08880A7
:100700004FEA03334FF0805545EA131343EA12636F
:100710004FEA022245EA111545EA10654FEA002624
:100720000EF000419D4208BF964244F1FD0404F5DD
:10073000407402D25B084FEA3202B61A65EB030539
:100740005B084FEA32024FF480104FF4002CB6EBF6
:10075000020E75EB030E22BFB61A754640EA0C0076
:100760005B084FEA3202B6EB020E75EB030E22BFB6
:10077000B61A754640EA5C005B084FEA3202B6EBF7
:10078000020E75EB030E22BFB61A754640EA9C00B6
:100790005B084FEA3202B6EB020E75EB030E22BF86
:1007A000B61A754640EADC0055EA060E18D04FEA44
:1007B000051545EA16754FEA06164FEAC30343EAE4
:1007C00052734FEAC2025FEA1C1CC0D111F4801FB1
:1007D0000BD141EA00014FF000004FF0004CB6E7AA
:1007E00011F4801F04BF01430020B4F1FD0C88BF49
:1007F000BCF5E06F3FF6AFAEB5EB030C04BFB6EB54
:10080000020C5FEA500C50F1000041EB045170BD46
:100810000EF0004E4EEA113114EB5C04C2BFD4EB73
:100820000C0541EA045170BD41F480114FF0000EF7
:10083000013C90E645EA060E8DE60CEA135594EA73
:100840000C0F08BF95EA0C0F3FF43BAF94EA0C0F76
:100850000AD150EA01347FF434AF95EA0C0F7FF4EB
:1008600025AF104619462CE795EA0C0F06D152EA3F
:1008700003353FF4FDAE1046194622E750EA410623
:1008800018BF52EA43067FF4C5AE50EA41047FF434
:100890000DAF52EA43057FF4EBAE12E74A0011D2E6
:1008A00012F5001211D20DD56FF47873B3EB6252CA
:1008B0000ED44FEAC12343F0004343EA505323FAD6
:1008C00002F070474FF00000704750EA013002D14B
:1008D0004FF0FF3070474FF00000704753B94AB9EE
:1008E000002908BF00281CBF4FF0FF314FF0FF3038
:1008F00000F06CB9ADF1080C6DE904CE00F006F81B
:10090000DDF804E0DDE9022304B070472DE9F0478B
:10091000089E0D4604468E46002B40F082808A4297
:10092000174646D9B2FA82F24AB1C2F1200105FA5D
:1009300002F320FA01F1974041EA030E94404FEA96
:100940001748230CBEFBF8FCB9B208FB1CEE43EAC7
:100950000E430CFB01F098420AD9FB180CF1FF354D
:1009600080F01681984240F21381ACF1020C3B44B6
:100970001B1AA4B2B3FBF8F008FB103344EA03449B
:1009800000FB01F1A14209D93C1900F1FF3380F0CD
:100990000181A14240F2FE8002383C44641A40EAE0
:1009A0000C4000211EB1D4400023C6E90043BDE83D
:1009B000F08702B9FFDEB2FA82F2002A4FD1CB1BD8
:1009C0004FEA174E1FFA87F80121B3FBFEFC250CF6
:1009D0000EFB1C3345EA034508FB0CF3AB4207D979
:1009E0007D190CF1FF3002D2AB4200F2E780844661
:1009F000ED1AA3B2B5FBFEF00EFB105543EA054419
:100A000008FB00F8A04507D93C1900F1FF3302D2DA
:100A1000A04500F2D7801846A4EB080440EA0C4039
:100A2000C0E78B4208D9002E00F0AF800021C6E954
:100A300000050846BDE8F087B3FA83F100294BD1E1
:100A4000AB4202D3824200F2B780841A65EB030303
:100A500001209E46002EAAD0C6E9004EA7E7C2F1AB
:100A6000200C01FA02F3974020FA0CF04FEA174EDF
:100A700021FA0CFC1843BCFBFEF1050C0EFB11CC5B
:100A80001FFA87F845EA0C4501FB08F3AB4204FA6C
:100A900002F409D97D1901F1FF3C80F08B80AB4253
:100AA00040F2888002393D44EB1A85B2B3FBFEF078
:100AB0000EFB103345EA034500FB08F3AB4207D9B0
:100AC0007D1900F1FF3C71D2AB426FD902383D4431
:100AD000EB1A40EA014178E7C1F1200C8B4022FA81
:100AE0000CF71F4320FA0CF405FA01F34FEA174EF6
:100AF00025FA0CF51C43230CB5FBFEF91FFA87F809
:100B00000EFB195543EA054509FB08FAAA4502FA06
:100B100001F200FA01F308D97D1909F1FF3047D23B
:100B2000AA4545D9A9F102093D44A5EB0A05A4B29D
:100B3000B5FBFEF00EFB105544EA054400FB08F837
:100B4000A04507D93C1900F1FF352DD2A0452BD97E
:100B500002383C4440EA0940A4EB0804A0FB0289A7
:100B60004C45C6464D4619D316D05EB1B3EB0E02C6
:100B700064EB050404FA0CFCCA404CEA0202CC40C7
:100B8000C6E900240021BDE8F087314630460EE773
:100B9000AC46EDE6184601E74345E6D2B8EB020E57
:100BA00069EB07050138E0E72846D3E760468FE7A1
:100BB0008146BAE7614677E708464BE7ACF1020C9D
:100BC0003D4415E702383C4426E700BF704700BFAC
:100BD0002DE9F84F484808F050FC0FF20C19D9E9FC
:100BE00000894FF00A0B4FF0FF324FF0FF334348BC
:100BF000434D08F037FB08F012FB02460B46414814
:100C000008F03BFC404A92F90030082BDABF013370
:100C10005BB2002313703D4A128825F813200A2482
:100C20002B46002033F8022B013C14F0FF04104443
:100C3000F8D190FBFBF0364B188080B2FFF7B2FB87
:100C40002BA3D3E9002306460F46FFF715FCFFF759
:100C500025FE304B1FFA80FAA3F800A042464B460F
:100C600030463946FFF708FCFFF718FE2A4B2B49A0
:100C700080B218800A2335F8022B904205D892459D
:100C800022BF21F814200134A4B2013B13F0FF036A
:100C9000F1D12348214EDFF898A008F0EEFB37464B
:100CA0000A2537F8021B504608F0E7FB6B1E13F0CD
:100CB000FF05F6D11B4808F0E0FB2B462A4699B207
:100CC0008C4208D81CB1B2FBF4F4174B1C801748B7
:100CD00006F092FF87E736F8021B0A4492B201330E
:100CE000EDE700BFAFF30080666666666666EE3FBE
:100CF000CDCCCCCCCCCCF03F5CA80000C007002011
:100D0000DA0F002070A8000022020020D80F002077
:100D1000F20E00207E110020D20F0020F40E0020E1
:100D20008EA800002EB80000D40F0020D8070020A5
:100D3000A0A80000014B01221A7070478711002003
:100D4000014B01221A70704781110020014B0122D2
:100D50001A70704784110020014B01221A607047FD
:100D60008C07002043682DE9F0411B68D0F808800B
:100D7000076901268E401E4204460D460ED10E49DB
:100D80000E4A0F4840F2FD2308F077FB0D4808F0AB
:100D900074FB0A4840F2FD2108F06CFA3B6823EA34
:100DA00006063E60D8F80030294620464FF4887287
:100DB000BDE8F041184700BFC6A600009CA6000091
:100DC00004A7000021A7000043682DE9F0411B683B
:100DD0008768D0F8108001268E401E4204460D46DA
:100DE0000ED11049104A114840F29D2308F045FBEE
:100DF0000F4808F042FB0C4840F29D2108F03AFAF7
:100E0000D8F800301E42BE6929462046B44618BFB5
:100E10004FF40033BDE8F04108BF4FF480234FF496
:100E2000A0326047C6A600009CA6000004A70000F0
:100E300021A70000F0B52748274E284F284D87B03E
:100E400008F01BFB4FF0FF324FF0FF33304608F045
:100E500009FA08F0E4F90B460246384608F00DFBA3
:100E60001422002101A808F0FAFC0223CDE9023582
:100E700004930A238DF814301A4B186848B91A489D
:100E800008F0FBFA4FF0FF341848214608F0F5FA55
:100E90000FE0836801A95B689847044668B1014682
:100EA000134808F0EAFAEFE7124808F0E6FA124BA6
:100EB0001C80124806F0A0FEC4E72B88B3F5806FB3
:100EC000F2D2C3F57F7103310B4B0D4809B2198083
:100ED000DCE700BF33A70000900700204AA700000E
:100EE000F00E0020580700206BA70000BAA70000F2
:100EF0009AA70000E3A70000D80F0020C007002039
:100F0000FEA700002DE9F8431E4E1F4835881F4FED
:100F1000DFF890901423B5FBF3F508F0AEFAB8466D
:100F20004FF0FF324FF0FF33484608F09BF908F0CE
:100F300076F902460B461648164C08F09EFA3B78A6
:100F4000A3B132882388521B9342DCBF5B192380F4
:100F5000002388F80030052008F06FF921880E483A
:100F600008F08BFA0D4806F047FED9E70C4A1378D3
:100F7000002BF3D023880BB15B1B2380002313705D
:100F8000E9E700BF200200200BA800008711002025
:100F90001FA80000080F00203EA80000F007002056
:100FA00081110020A80700202DE9F84F3848394E5C
:100FB000394D08F062FA00244FF0FF324FF0FF3352
:100FC000304608F04FF908F02AF902460B4633483C
:100FD00008F053FA324B33481978334B1B786422AC
:100FE00012FB0132314B4FF0FF3A1988002399422E
:100FF0003BDC2F48DFF8CC802E4FDFF8CC905146F9
:1010000008F03BFABAF1FF3F40D0DFF8C0B02A4801
:101010003BF81A1008F031FAB8F800203BF81A3003
:101020006FF06301C3EB832393FBF1F31344012BB4
:1010300027DD0CB1013CA4B23AB1B9F8003040F25E
:10104000FF32634393FBF2F33B803A88B9F80030F8
:10105000B8F8001019489A42224688BF3B8008F031
:101060000CFA174806F0C8FDA6E735F8137097424A
:1010700005D830F81370974284BF9A460B46013367
:10108000B5E7B4F5806FD7D20134D4E70023DBE7AE
:10109000A5A80000D8070020EE0F0020BAA8000085
:1010A00082110020B610002083110020D60F0020EE
:1010B000D9A80000080F0020ECA80000FDA800003F
:1010C000F0070020D40F0020200200200A0F00208B
:1010D0002DE9F04F87B0334804F068FE044628B984
:1010E000314808F0CAF907B0BDE8F08F2F4808F082
:1010F000C4F94FF0FF324FF0FF332D4808F0B2F83B
:1011000008F08DF802460B462A4808F0B6F92A4B3B
:101110001F882A4BB3F80080A7EB0808A36804AA2D
:101120005B680D2120469847054628B16FF0040101
:10113000234808F0A2F9D6E7DDE90463A7FB06AB74
:1011400007FB03BB1F4A0393504600235946FFF792
:10115000C5FB1D4B4FF0FF325B4508BF5245814632
:1011600002D26FF08501E3E7039B164AA8FB0667EE
:1011700008FB0377304600233946FFF7AFFB124ADE
:101180004FF0FF31BA4208BFB1420346E9D3A2682B
:10119000009515680D214A462046A84701460028BB
:1011A000A7D0C5E714A900001AA900003BA90000B8
:1011B000F00700204DA9000020020020080F0020A9
:1011C00069A9000040420F003F420F002DE9F04F97
:1011D00087B008F024F8AA4B10F1640402AA41F188
:1011E000000503F10807924618685968164603C6B9
:1011F0000833BB423246F7D118681B79306033712F
:10120000A048DFF8AC82DFF8DC9208F036F908F08D
:1012100006F802460B469C489C4F9D4E08F02DF95F
:1012200098F800300133DBB23C2B03BF002388F871
:1012300000303B7888F8003004BF01333B703B78C6
:101240003C2B04D13378002201333A703370337869
:10125000182B06D10023337099F80030013389F838
:1012600000308C4A1368012B40F08F8000231360FC
:10127000D3465246194601330D2B02F8011BFAD111
:10128000854808F0FAF800F05FFEC3B218460193F3
:1012900000F04CFE019B0BF8013B212BF3D19DF894
:1012A0000830532B40F0B2809DF8090007F0E0FFB2
:1012B00003469DF80A0007F0DBFF00EB8000C3EB5C
:1012C000431200EB800003EB8202830003EBC203B6
:1012D0009DF80B001BB207F0CBFF83469DF80C0076
:1012E00007F0C6FF6D4903440BEB8B0B0A889DF892
:1012F0000D0003EB4B0B6A4B23F812B007F0B8FF5D
:1013000083469DF80E0007F0B3FF00EB8000CBEBA7
:101310004B1300EB80000BEB830B830003EBCB0341
:101320009DF80F001BB207F0A3FF83469DF8100045
:1013300007F09EFF0BEB8B0B034403EB4B0B594B5E
:101340009DF8110023F812B007F092FF03469DF8B4
:10135000120007F08DFF03EB830300EB800003EB2B
:10136000830C430003EB8C039DF813001BB207F0C2
:101370007FFF03444C4820F8123001320A8007F006
:101380004EFF10F1640441F1000599F80010474840
:1013900008F073F8464B3A78464F1B783178464848
:1013A000464E08F06AF83B78002B58D096F800B00B
:1013B000BBF1000F53D1424808F05FF8414B424A5D
:1013C0001B889B081380414B83F800B0404B83F887
:1013D00000B00123337087F800B0052007F02DFF1F
:1013E0003378002B4AD13B4806F006FC07F017FF84
:1013F0000B46A04273EB05010246BFF608AFA01AE8
:1014000007F01BFF643445F1000500E7542B22D19F
:101410009DF8090007F02CFF89F800009DF80A00EC
:1014200007F026FF03469DF80B0007F021FF03EBB2
:10143000830300EB43039DF80C00337007F018FFA3
:1014400003469DF80D0007F013FF03EB830300EB49
:1014500043033B7093E7204808F00FF88FE73B7891
:10146000002BBAD03378002BB7D01C4808F005F811
:10147000154A0023138033703B70AEE71848B3E77A
:1014800040A400008EA90000A8A90000831100203C
:10149000821100208C070020C2A90000D60F002076
:1014A000EE0F0020B61000200A0F0020F0A9000067
:1014B0008511002084110020F9A900008611002068
:1014C00009AA000020020020080F00208711002038
:1014D0008111002090070020DAA9000020AA000056
:1014E000A807002080110020F0B589B07A4804F0E8
:1014F0005DFC044628B9794809B0BDE8F04007F022
:10150000BCBF774807F0B9FF0B212046FFF72AFC44
:10151000011E05DA734809B0BDE8F04007F0ADBF21
:101520000C212046FFF71EFC011E01DA6E48F2E78F
:1015300018212046FFF716FC011E01DA6B48EAE786
:1015400019212046FFF70EFC011E01DA6848E2E788
:101550006848694D04F02AFC286010B9674807F014
:101560008CFF2868836866491B689847014610B15C
:10157000644807F082FF00F0F7FC6349092200206D
:1015800000F0CEFC0B212046FFF71EFC5F49604BAC
:101590004B6020464FF400638B6007F038FE0C214F
:1015A0002046FFF711FC5B495B4B4B6020464FF434
:1015B00080538B6007F02BFE18212046FFF704FCB8
:1015C0005649574B4B6020464FF080738B6007F0B5
:1015D0001EFE19212046FFF7F7FB5249524B4B6084
:1015E00020464FF000738B6007F011FE4F4807F064
:1015F0003BFE4F4807F038FE4E4807F035FE4E4898
:1016000007F032FE4D4807F02FFE00260027002489
:101610000125CDE90667CDE90354CDE90144484BE6
:10162000484900944FF48062474806F031FC474B2C
:101630001860474B47490094CDE90667CDE903544C
:10164000CDE901444FF48062434806F021FC434B4E
:101650001860434B43490094CDE90667CDE9035434
:10166000CDE901444FF480623F4806F011FC3F4B46
:1016700018603F4B3F490094CDE90667CDE903541C
:10168000CDE901444FF480623B4806F001FC3B4B3E
:1016900018603B4B3B490094CDE90667CDE9035404
:1016A000CDE901444FF48062374806F0F1FB374B37
:1016B0001860374B37490094CDE90667CDE90354EC
:1016C000CDE901444FF48062334806F0E1FB334B2F
:1016D000186009B0F0BD00BF3AAA000041AA00009E
:1016E00062AA00007FAA0000A6AA0000CDAA0000FE
:1016F000F4AA00001BAB00005807002021AB00003B
:1017000094A6000042AB000071AB00005C07002013
:10171000350D000068070020410D0000740700200F
:101720004D0D000080070020590D0000A807002083
:1017300090070020C0070020D8070020F0070020F5
:10174000CD110000E0150020100300200C0800203F
:10175000050F0000001A0020900400201808002047
:10176000350E0000201E00209002002008080020F6
:10177000D10B00004022002010040020140800209B
:10178000A90F000060260020900300201008002010
:10179000D1100000802A0020100500201C08002025
:1017A0002DE9F04F91B08B46029092461C460025E1
:1017B0009AF8000008B928465EE325280AF10107D7
:1017C00007D0029B594698470028C0F2558301353F
:1017D00010E2182200210AA808F041F89AF8013016
:1017E000252B78D000229446164696461046394658
:1017F00017F8013B2B2B00F09D8000F29480202BEA
:1018000000F09B80232B00F09A8028B19DF83000D7
:1018100040F004008DF83000BEF1000F05D09DF8B7
:10182000300040F008008DF830002EB19DF83000F7
:1018300040F010008DF83000BCF1000F05D09DF88D
:10184000300040F020008DF830002AB19DF83020A3
:1018500042F040028DF830209DF8302002F0440024
:10186000442803D16FF386128DF830209DF8302084
:101870002A2B42F080028DF830207BD19DF8312058
:1018800042F001024B1C8DF831201A782E2A9DF867
:1018900031200CBF0121002161F341028DF831207C
:1018A00074D15A782A2A6AD0013300210A261846B0
:1018B00010F8012BA2F13007092F40F28E809DF81D
:1018C00030200E91C2F3400040EAD17161F3410231
:1018D0008DF830205AE00AF102078DF833309DF878
:1018E0003130D90740F1498154F8049BB9F1000F18
:1018F00007DA9DF8302042F004028DF83020C9F15B
:1019000000095A0740F1428154F8048BB8F1000FE6
:1019100080F241819DF831306FF341038DF8313011
:101920004FF0FF3837E12D2B0CD0302B7FF46DAF0B
:1019300001225CE74FF0010E59E7012657E74FF00F
:10194000010C54E7012052E70CFB0202303A334607
:101950001E4616F8010BA0F13007092FF4D9994261
:1019600093D09DF830100D92D20F62F341018DF8A3
:1019700030108AE70B4600224FF00A0CE8E79DF88A
:10198000312042F004028DF8312002331F4617F84F
:10199000012B6C2A41D025D8682A2BD06A2A46D040
:1019A0004C2A4CD01F4617F8012B9DF831308DF88A
:1019B0003320782A00F2D980572A4DD8412A03D003
:1019C000453A022A00F2D1809DF83230042262F3B7
:1019D00002038DF8323001239EE006FB01213039ED
:1019E000034664E7742A26D07A2ADBD19DF8313089
:1019F00006220DE05A78682A9DF8312006D101218F
:101A000061F3C6028DF831209F1CCCE713460222F9
:101A100062F3C6038DF83130C5E75A786C2A9DF819
:101A2000312001D10421EBE713460322F0E79DF8B2
:101A300031300522ECE79DF831300722E8E7BDF8A8
:101A4000303023F4F04323F0020343F4804343F0A7
:101A50000203ADF83030A6E7A2F15801202900F2C8
:101A6000848001A050F821F02D1B00006B1B0000AA
:101A70006B1B00006B1B00006B1B00006B1B00004E
:101A80006B1B00006B1B00006B1B0000C9190000E2
:101A90006B1B00002D1B0000ED1A0000C91900008F
:101AA000C9190000C91900006B1B0000ED1A0000E5
:101AB0006B1B00006B1B00006B1B00006B1B00000E
:101AC000351B00002D1B0000511B00006B1B00008C
:101AD0006B1B0000511B00006B1B00002D1B000046
:101AE0006B1B00006B1B00002D1B00009DF83210CB
:101AF000012003F0780360F30201402B8DF83210CF
:101B000002BF9DF8301041F001018DF83010632ABA
:101B100031D1003B18BF01239DF83020C2F34001B2
:101B20000B4363F341028DF83020D8E69DF8321064
:101B30000220DEE79DF8322003F07803A3F1400095
:101B4000032161F3020243428DF832204341E3E76F
:101B50009DF83220032113F0780F61F302028DF813
:101B6000322014BF01230023D6E79DF8303043F024
:101B700001038DF830300023CEE79DF93020002A94
:101B8000B4BFDDF834904FF0FF39BAE69B077FF51C
:101B9000C7AEDDF838809DF831200023CDE90D3344
:101BA0009DF8323003F00703012BC2F3C30236D194
:101BB000D31E042B20D8DFE803F00307071F1F0004
:101BC00054F8040BC11704E0073424F00704F4E8C8
:101BD0000201CDE90A019DF8303013F0030654D01C
:101BE00002983B465246594607F096FB0028C0F241
:101BF00043810544BA46DBE554F8040B012A4FEA59
:101C0000E071CDE90A0105D19DF828300A9300233F
:101C10000B93E0E7022ADED1BDF92800D2E7022BC0
:101C200023D1D31E042B13D8DFE803F0030A0A12D2
:101C3000120020680A900021231D0B911C46CAE760
:101C4000073424F00703F3E80201CDE90A01F5E7C0
:101C500054F8043B0A93012A4FF000030B93D3D0AE
:101C6000022AB8D1BDF82830D0E7042B07D10734B9
:101C700024F00704F4E80201CDE90A01ABE7032BE5
:101C800004BF54F8043B0A93A5E79DF83300782875
:101C9000B0D8622822D825283FF493AD5828A9D17E
:101CA0000DF126030093DDE90A0104AB0CAA07F04D
:101CB000E8FA8246B8F1000F0DF126000CDB9DF822
:101CC0003020A0EB0A036FF3861298458DF8302080
:101CD00002D9A8EB03030D9380463DE06338152835
:101CE00088D801A151F820F0691D0000CD1D000029
:101CF000F51B0000F51B0000F51B0000F51B0000A4
:101D0000CD1D0000F51B0000F51B0000F51B0000B9
:101D1000F51B00002B1E0000F91D0000FD1D00003A
:101D2000F51B0000F51B0000411D0000F51B000025
:101D3000F91D0000F51B0000F51B0000F91D000057
:101D4000B8F1000FDDF828A00ADB4146504607F045
:101D500066FD0AEB00080026BAF1000F0CD149E736
:101D6000504607F055FDF4E70A9B8DF81030002629
:101D70000DF111080DF1100AA8EB0A0306B10133A9
:101D80009DF83220D0066BD5023352060D9948BF1C
:101D90000E9A0B4448BF9B18B9F1000F79DD9DF8EE
:101DA0003020A9EB0309C2F380030393530770D4D7
:101DB000500664D546B1029B5946304698470028E4
:101DC0005ADB039B01351E46302359E01E0711D410
:101DD00013F0100618BF2026DDE90A23002A73F14C
:101DE0000001BFF65DAF524263EB4303CDE90A2326
:101DF0002D2655E72B26EFE7002651E70A9848B332
:101E00000DF1260300930CAA04AB002107F039FA68
:101E1000BDF8323003F0EF0343F4F04343F0100316
:101E20008246ADF83230002644E70A9B072A3FF687
:101E3000E1AEDFE802F00D04060D08080D0D1D707F
:101E4000D8E61D80D6E62846E917C3E90001D1E6A9
:101E50001D60CFE6DFF8C4800646A8F1050A8BE7CF
:101E6000110748BF013390E7184603935946029B78
:101E700098470028039B04DA11B0BDE8F08F2023B7
:101E80004D444A46002AA5EB090109F1FF39EBDC74
:101E90000D4636B1029B5946304698470028EBDB89
:101EA00001359DF83230D90601D41A0706D5029BB8
:101EB0005946302098470028DEDB01359DF8323046
:101EC000DB0607D59DF83300029B5946984700284A
:101ED000D2DB01350D9E2E44731B002B16DC0298BD
:101EE00043465246594607F017FA0028C4DB05441A
:101EF000A944A9EB0503002B7FF77CAE029B594652
:101F0000202098470028B7DB0135F2E7029B5946AD
:101F1000302098470028AFDB0135DDE780AB0000BB
:101F2000014807F07DBB00BF2008002007B5012253
:101F30008DF807000DF10701024807F071FB03B0AF
:101F40005DF804FB2008002007B501220DF1070110
:101F5000044807F08EFB0028A8BF9DF8070003B0D7
:101F60005DF804FB2008002038B5104D284608F025
:101F700046F8A8B10E48294600F0E8FD044668B9C5
:101F8000AB689B6C7BB10B4909484FF4007207F0BA
:101F900019FC09490648402207F0FBFB204638BDE2
:101FA0006FF01204FAE76FF08504F7E748A200002B
:101FB00020080020C811002088110020B2F5802FD1
:101FC0002DE9F04106460D46174669D33D493E4A84
:101FD0003E4840F2A51307F050FA3D4807F04DFA8D
:101FE00040F2A511384807F045F9043FEC1D3D4487
:101FF00024F0070425F007052D1B172D4FEAD50700
:102000000ED83449304A314840F2B51307F035FA5A
:10201000314807F032FA2C4840F2B51107F02AF99E
:10202000B7FA87F8C8F124084FEA8808346008F145
:1020300007060023F608E360731CBB42A7600ED9B5
:102040002649214A214840F2C51307F016FA2248D2
:1020500007F013FA1C4840F2C51107F00BF904F120
:102060001002A0440023904529D1720042F00102E1
:10207000628004EBC601BA1B5000238048806119BE
:1020800024F8366004EBC7074B8062537B8843F02B
:1020900001037B8031462046BDE8F04107F058B986
:1020A000042AA2D80E49084A08484FF4D67307F00C
:1020B000E4F9094807F0E1F94FF4D67192E742F8E4
:1020C000043BD0E74DAC000081AB000004A700004A
:1020D00063AC0000B4AC00009BAC0000DDAC0000C1
:1020E0007AAC0000436803F00303022B70B504468A
:1020F0000E46816010D0032B04D0012B0FD1002598
:10210000284601E0056800200023636010B13146D5
:1021100004F0E8FA284670BD00680025F4E7064A96
:1021200006490748452307F0A8F90348452107F069
:10213000A1F80025E7E700BF08AD0000EDB40000FE
:1021400004A70000014806F0CFBE00BF58A400005D
:1021500008B5D0B14368042B11D100220368BFF346
:102160005B8F53E8001F012903D143E800200028BA
:10217000F7D1BFF35B8F074808BF104608BD3BB1DE
:10218000006804F071F90020F8E76FF4E040F5E72B
:102190000148F3E7E98FFFFFEA8FFFFF10B5044620
:1021A00018B90D4B0D485B689847616808290DD038
:1021B00031F004030AD011F0020108D0084821468A
:1021C00003F0EEFF002323600023636010BD20684E
:1021D000142207F044FBF7E7C00100202BAD0000FC
:1021E0007408002010B5044618B9164B16485B68F1
:1021F00098476368042B23D0082B21D0CBB92368E0
:10220000BBB912484FF0FF324FF0FF33214603F0C5
:102210005BFF08B923681BB90A4B0D485B689847F8
:1022200020681422002107F01AFB636843F00203C0
:102230006360206807F010FF636843F00103636088
:1022400010BD00BFC00100202BAD000074080020AD
:1022500051AD000008B508B34368042B10D101222A
:102260000368BFF35B8F53E8001F002903D143E8E5
:1022700000200028F7D1BFF35B8F0BD1002008BDF1
:1022800053B100684FF0FF324FF0FF3303F0ECFF23
:102290000028F3D00348F2E70348F0E76FF4E0408A
:1022A000EDE700BFE98FFFFFEA8FFFFF08B50649A2
:1022B00006484023142207F0B3FEBDE80840044955
:1022C000044806F073BE00BF940800207408002084
:1022D00070A4000060A400002DE9F04FB0F81C903D
:1022E00085B019F0080F0446039222D001290CBFD3
:1022F00049F0100949F02009A0F81C901434204638
:1023000005F0B2FE68B99F4A9F49A048AC2307F088
:10231000B4F89F48214607F0B0F89A48AC2106F07F
:10232000A9FF039B83F31188BFF36F8F05B0BDE84E
:10233000F08F984FDFF8548209F00709022906D17F
:10234000204607F044F80028D8D0012868D1D4F8F6
:1023500018B0A38BBBF1000F0ADA0026256823F022
:102360000703C4E9006643F00103A383019627E055
:1023700003F00702511F012934D8002123F007037D
:10238000062A25689BB2C4E900110CD18D422A4669
:1023900038BF0A462AB1E18B12680131E183002A75
:1023A000F8D143F00203A383204607F010F8064655
:1023B0000028DBD0A38B43F02003A38300230193E9
:1023C000A38B03F007024A45029203D0A268002AB9
:1023D00040F0F0801DB9019A002A00F036814FF0DC
:1023E0000009E9E0042A0ED123F007039AB2A28380
:1023F000204606F0ECFF054618B142F02002A28309
:1024000000250195DCE74046634940F21B133A463C
:1024100007F033F840F21B11384606F02BFFEFE7C8
:10242000032835D1B9F1000F0BD05C4940464FF479
:10243000AB733A4607F021F84FF4AB71384606F01B
:1024400019FF23685BB95649404640F257133A4694
:1024500007F013F840F25711384606F00BFF2369D6
:102460001B6801935BB94F4940464FF4AD733A4640
:1024700007F003F84FF4AD71384606F0FBFEA38B6E
:1024800023F0070343F00603A3830025AB4697E739
:10249000042832D1B9F1020F0BD04349404640F233
:1024A0005D133A4606F0E9FF40F25D11384606F04A
:1024B000E1FEE38B5BB13D4940464FF4AF733A46D2
:1024C00006F0DBFF4FF4AF71384606F0D3FE236908
:1024D0005B6801935BB93349404640F261133A4669
:1024E00006F0CBFF40F26111384606F0C3FEA38B25
:1024F00023F0070343F00403C6E7052832D1B9F1FE
:10250000010F0BD02A4940464FF4B2733A4606F009
:10251000B4FF4FF4B271384606F0ACFE23685BB9E5
:102520001F49404640F265133A4606F0A6FF40F2C6
:102530006511384606F09EFE23699B6801935BB9DE
:10254000184940464FF4B4733A4606F096FF4FF4EC
:10255000B471384606F08EFEA38B23F0070343F0D8
:10256000050391E70C4940F26B133A46404606F0EA
:1025700084FF002540F26B11384606F07BFE019582
:1025800084E700BF21AE000047AE000004A70000B2
:102590005EAE00007EAD0000EDB40000A0AD000016
:1025A000ACAD0000CFAD0000E6AD0000FCAD00001A
:1025B0000BAE00004FF0010943F0080304F1140AC8
:1025C000A383504605F050FD68B93A4A3A49AC2316
:1025D000404606F052FF3948514606F04EFF354856
:1025E000AC2106F047FE039B83F31188BFF36F8F86
:1025F000B9F1000F38D1002D4BD1019B13B13049F7
:10260000204698474FF02003EFF3118B83F3128895
:10261000BFF36F8F5046CDF80CB005F017FD68B9C9
:10262000244A28498123404606F027FF2648514680
:1026300006F023FF1F48812106F01CFE504605F0DE
:1026400023FDA38B23F00803A383A38BDA0628D5ED
:1026500023F01003A3830121B4F81C9009F00709AB
:1026600000297FF46BAE49E6A1680029C3D00B684E
:10267000029A002B38BF002399464B6820461E461D
:102680005B46B047B9F1000FB5D0D9F800304946E4
:10269000EEE72946029A2D685B46204606F0B3FE17
:1026A000A9E713F020011EBF23F02003A38302211A
:1026B000D2E700BF21AE000047AE00005EAE0000D2
:1026C000CD26000073AE000088AE0000F8B50446C9
:1026D0000D4600F114064FF02003EFF3118783F34A
:1026E0001288BFF36F8F304605F0B0FC68B90C4A12
:1026F0000C490D48812306F0C0FE0C48314606F017
:10270000BCFE0748812106F0B5FD304605F0BCFC53
:10271000A5613A4620460121BDE8F840FFF7DCBD3F
:1027200021AE000073AE000004A7000088AE0000D8
:102730002DE9F04704460F4606F07BFE051E5EDBE2
:1027400004F114094FF02003EFF3118A83F3128888
:10275000BFF36F8F484605F079FC68B9384A3949AC
:102760003948812306F089FE3848494606F085FE3F
:102770003348812106F07EFD484605F085FCE38B59
:10278000A28B4FF6FF718B4202F0070650D0022E4B
:1027900024D10133E38335464FF00108484605F064
:1027A00063FC68B9264A2A492748AC2306F065FE2F
:1027B0002848494606F061FE2148AC2106F05AFD42
:1027C0008AF31188BFF36F8FB8F1000F17D0002381
:1027D00032463946204606F016FE10E0930701D037
:1027E000062E0FD100233B606368F3B9C4E900777C
:1027F0003546FEB9524602212046FFF76DFD2846B8
:10280000BDE8F087052E18D0012E0BD012490E48D6
:10281000124A40F2C91306F030FE104840F2C911C6
:1028200006F028FD6FF0040504E01F606760DFE735
:102830006FF00A054FF00008B0E76FF08505F9E783
:1028400021AE000073AE000004A7000088AE0000B7
:1028500047AE00005EAE00000BAE00007EAD000093
:102860002DE9F84305464FF02003EFF3118683F37B
:102870001288BFF36F8F234805F0E8FB68B9224A3E
:1028800022492348812306F0F8FD1E49214806F01D
:10289000F4FD1D48812106F0EDFC1A4805F0F4FB1B
:1028A0001D4B1C68002C38BF00249CB11B4FDFF867
:1028B00078804FF00C09D4E90132002D08BF13468F
:1028C0002BB198F8142009FB02F2B85C98472468F1
:1028D000002CF0D10B4805F0C7FB68B90A4A104933
:1028E0000B48AC2306F0C9FD06490E4806F0C5FDAD
:1028F0000548AC2106F0BEFC86F31188BFF36F8F4C
:10290000BDE8F883940D002021AE000073AE0000F6
:1029100004A7000088AE0000980D0020A40D002040
:1029200047AE00005EAE00007C0E002000F01F03EA
:1029300001229A400A4BBFF35B8F400903EB8000F2
:1029400050E8003F43EA020140E8001CBCF1000FE0
:10295000F6D1BFF35B8F1A4214BF012000207047ED
:10296000B00D002030B51D4B1D7DBFF35B8F05F012
:102970001F0301229A401A4B690985B0D04303EB2B
:10298000810353E8001F01EA000443E8004CBCF156
:10299000000FF6D1BFF35B8F114217D0114C0C2200
:1029A00002FB054207CA01AB83E807000E4A7AB171
:1029B00093E8070006F06FFF0020FFF751FF0C239C
:1029C0006B430022E118E250C1E9012205B030BD9D
:1029D00082F31188BFF36F8FEEE700BF7C0E0020FB
:1029E000A00D0020A40D0020979800002DE9F041D3
:1029F000374BDFF8F4801C7D88B007462046FFF790
:102A000095FF60B96E463A462146304606F042FDD3
:102A100096E807000C2505FB048585E807000C23D4
:102A2000634308EB030218F80300650904F01F066E
:102A3000C8B37B1C0FD0D2F808E02648264A4FF4D2
:102A4000004C00210023ECFB0E01FDF747FF0121A4
:102A5000381A05F0DBFC03F0A9FF0120FFF700FFA7
:102A6000BFF35B8F1D4B0122B24003EB850353E89C
:102A7000001F114343E800100028F8D1BFF35B8F1B
:102A80000C2303FB048494E8070005AB83E80700EC
:102A9000134A1AB193E8070006F0EAFEFFF762FF57
:102AA00004F0C8FC01200F4ABFF35B8F0123B34041
:102AB000DB4302EB850555E8002F1A4045E800216D
:102AC0000029F8D1BFF35B8F08B0BDE8F08100BFEB
:102AD0007C0E00203F420F0040420F00A00D00205E
:102AE00071980000B00D0020A40D00200B68013388
:102AF0000B60014B1B681847D0000020014B186089
:102B0000704700BFD000002007B50B4600210246E9
:102B10000191034801A9FEF743FE03B05DF804FBF1
:102B2000ED2A000008B54FF02002EFF3118382F385
:102B30001288BFF36F8F00F0C1FC034806F09DFCC4
:102B400000F02AF8FCE700BFA0AE0000024610B576
:102B5000084699B100244FF0FF33C2E91343936252
:102B60008B681160C2E90744C2E91144546243B161
:102B70009B6C33B104499847204610BD6FF012009A
:102B8000FBE71846F9E700BF6995000001491022EC
:102B90000A60704710ED00E072B6404080F3118883
:102BA000BFF36F8FBFF34F8F30BF62B6BFF36F8F2E
:102BB000704700BF72B6494081F3118820BF80F38F
:102BC000118862B6704700BF01B572B60B4A9069B2
:102BD00000281EBF0021916107F01BFA62B6EFF3D7
:102BE0000580A0F110004FEAC0000549014409C961
:102BF0009847BDE801400349084700007C0E0020CB
:102C000090A200002D2E000030BFFFF7FDBF00BFD7
:102C100012498A684FF030001044EFF3098C80E8C5
:102C2000F01F202080F31288BFF36F8F0C4F4FF0FE
:102C30000066CA698A603E60906F0023936780F3E4
:102C4000118804B5104600F0E7FABDE8044002F12F
:102C5000300090E8F01F8CF3098870477C0E00204C
:102C600004ED00E01EF0040F0CBFEFF30880EFF35B
:102C70000980816911F8021C0229FFD001B506F014
:102C8000B5FD01BD43B2002B08DB012200F01F009F
:102C900002FA00F05B09024A42F82300704700BFC5
:102CA00000E100E0054B420900F01F0053F822202C
:102CB000012303FA00F01040704700BF00E100E07C
:102CC00070B54C1C072C05460E460FD9114A124907
:102CD0001248592306F0D1FB1148314607232A46F2
:102CE00006F0CBFB0B48592106F0C4FA6BB2002B5F
:102CF000ACBF03F160430B4B4FEA4414B8BF05F07F
:102D00000F05E4B2AABF03F561435C5583F80043A5
:102D100070BD00BFC9AE0000FFAE000004A70000F8
:102D20001AAF000014ED00E00B4A08B50B4B22F07F
:102D30007F029A60BFF34F8FBFF36F8FD3F8882065
:102D400022F47002C3F8882003F006F906F02CF88C
:102D500000F0F6F903F00AF90000000000ED00E0D1
:102D6000094A0A4993680968D967094998674B680D
:102D700043F080534B60002383F31188BFF36F8FC0
:102D80009368D86F704700BF7C0E002008A6000033
:102D900000ED00E042F8203C009B42F81C3C0A4950
:102DA000019B42F8183C029B42F8143C21F00101BF
:102DB0004FF0807342F8043C42F8081C0023203A8C
:102DC00002658367704700BF9F9400000B4A03466B
:102DD000906890B113F1160F806E05D0A0F120021B
:102DE0009A4206D8834204D281422CBF002101219D
:102DF00000E00021002908BF002070477C0E002061
:102E000008B5094B98600D46144600F005FA2046B7
:102E100085F30988002163B681F31188BFF36F8FB2
:102E20000022002306F03BFB7C0E0020044B996837
:102E3000D869884203D003494FF080520A60704736
:102E40007C0E002004ED00E0EFF30880EFF3098131
:102E500001B5724600F0AEF801BD00BF002080F35E
:102E60001488BFF36F8F07F07DF900200D490860CB
:102E7000BFF34F8F0C4880F3088800F07DF92020C5
:102E800080F3118809484FF40261401880F30988E3
:102E9000EFF314800221084380F31488BFF36F8F8F
:102EA000FFF742FF94ED00E0A03200202034002024
:102EB000234B70B515469A6A9A6A9A6A0446900737
:102EC0001AD5586B9A6A120616D519B19A6A22F069
:102ED00080029A629A6A9A6A9A6AD6060FD49B6AA4
:102EE00099070CD40024164A936A43F0FF039362B7
:102EF00000232B70204670BD6FF01500EAE7104EDE
:102F000073681A05EED52146FFF760FF044618B135
:102F100080F309880224E6E7B36ADB06E2D5094AB2
:102F200009490A4840F2491306F0A7FA084806F092
:102F3000A4FA044840F2491106F09CF9D3E700BF17
:102F400000ED00E05AAF000094AF000004A70000BD
:102F5000DEAF00000D4B9A6A9A6A9A6A920508D50C
:102F60009A6B9A6A120404D518B19A6A22F4004244
:102F70009A62064B9A6A9A6AD20558BF9A6A9A6A06
:102F8000002042F47F429A620870704700ED00E032
:102F9000074B9A6A9A6A9A6A9A6A9A6A9A6A9A6AC3
:102FA0006FEA02426FEA12429A620020704700BF45
:102FB00000ED00E070B5544B5C688AB00D46C4F378
:102FC0000804002686F31188BFF36F8F02F07F4359
:102FD000B3F17F4F08D102F00C03082B04D0120785
:102FE0005CBF054601267DB9484A4949494840F237
:102FF000F23306F042FA484806F03FFA434840F2FE
:10300000F23106F037F9002500238DF80730E31E72
:10301000032B72D8DFE803F002696D493A4BDC6A92
:1030200014F0020469D1DA6A002A18DBDB6A5B005B
:103030004ED5AB6933F8022C4DF602739A420DD08F
:1030400003F1604303F626631B780BB30DF107020F
:1030500001212846FFF72CFF044600E02C689DF86C
:1030600007309BB92022294602A806F0EDFB099BF8
:10307000002E44D0C3F3080222B96FEA53236FEA4B
:103080004323099302A9204606F0AEFB0AB070BDA7
:10309000224B1B782BB10DF107010120FFF75AFFDE
:1030A000DAE71F4B1B889BB213B1FFF771FFD3E721
:1030B0001C49164A174840F2C32306F0DEF91A48A5
:1030C00006F0DBF940F2C321104806F0D3F8C6E75A
:1030D00014490E4A0F4840F2C72306F0CEF91348B0
:1030E00006F0CBF940F2C721EEE70DF1070200210F
:1030F000AFE70DF107010020D0E70024AFE723F48C
:10310000FF7323F00103BCE700ED00E05AAF0000BD
:1031100001B0000004A7000014B0000029ED00E099
:103120002AED00E0EDB4000052B0000076B00000DF
:10313000024A536943F010035361704700ED00E009
:10314000044800232021C2180133302B82F80013D9
:10315000F9D1704700E100E0064A11680023C1F38D
:10316000072118468B4200D17047936010610133EC
:10317000F8E700BF90ED00E008B572B6002383F3D6
:103180001388FFF7E9FF144B4FF0FF32C3F880209C
:10319000C3F88420C3F88820C3F88C20C3F890209B
:1031A000C3F89420C3F89820C3F89C20C3F880216A
:1031B000C3F88421C3F88821C3F88C21C3F8902177
:1031C000C3F89421C3F89821C3F89C2162B6BFF3D9
:1031D0004F8FBFF36F8F08BD00E100E0064B9B6887
:1031E000834207D1EFF3058323B1044A536843F0C8
:1031F0008053536004F0E2BB7C0E002000ED00E041
:10320000024B034A0348012100F068B80000042083
:103210000000002084A40000826E054B203A1A6052
:10322000044A2021C3E901121846012100F07EB8AA
:10323000B40D002000000B15F0B51E4F00268E4285
:1032400001DB1046F0BD446884B353B104F1FF3C88
:1032500014EA0C0F18D11F2C16D905681CEA050FAB
:1032600012D1202C0568D0F808C0D2B20FD9B4F121
:10327000004F0ED8013CB4FA84F4C4F11F0464007A
:10328000072A4CEA040406D96FF01502D9E708248E
:10329000F6E73E24F4E725F01F05154345F0100539
:1032A00044F00104BA60FD6001323C6101360C302B
:1032B000C5E700BF90ED00E0034B05225A60BFF365
:1032C0004F8FBFF36F8F704790ED00E0BFF35F8FBC
:1032D000014B00225A60704790ED00E038B50E4D6A
:1032E00001232A780C46FFF7A7FF2870163011D16A
:1032F00040F21113094A0A490A4806F0BEF821466D
:10330000094806F0BAF8BDE83840044840F2111107
:1033100005F0B0BF38BD00BFC8130020A6B0000044
:10332000EDB4000004A70000DDB0000010B5124AA3
:10333000002312780C46FFF77FFF10F1160F08D01C
:103340000E4B0022072800DD10BD98601A61013085
:10335000F8E70B4A0B490C484FF4987306F08DF8C8
:1033600021460A4806F089F8BDE8104004484FF4A9
:10337000987105F07FBF00BFC813002090ED00E0FA
:10338000A6B00000EDB4000004A7000009B10000E1
:10339000254910B50C68082C13D94FF4A473234A9F
:1033A0002349244806F069F823480822214606F0FC
:1033B00064F81E484FF4A47105F05CFF4FF0FF3035
:1033C00010BDFFF783FF48681C490022944200F1BA
:1033D0000C0019D11A4B1C70FFF76EFF0B68C3F37A
:1033E0000723082B0ED01749104A12484FF4D47304
:1033F00006F043F8144806F040F80C484FF4D47136
:1034000005F038FF0020DBE78A6050F80C3C23F021
:103410001F03134343F01003CB6050F8043C43F008
:1034200001030B610132D1E790A40000A6B00000B7
:10343000EDB4000004A7000036B1000090ED00E0FC
:10344000C81300206AB10000BAB10000014B186037
:10345000704700BFD40000204FF02003EFF311812C
:1034600083F31288BFF36F8F0F4A0123C2F84035F0
:103470004FF08042C2F878350C4A1268082A08D109
:103480000B4A1268052A04D80A48825C0AB10A4A23
:1034900013604FF080430122C3F8802581F3118827
:1034A000BFF36F8F0020704700E001403001001033
:1034B00034010010EAB10000380600404FF08043AC
:1034C000C0B2C3F81C05BFF34F8F0549054BCA684E
:1034D00002F4E0621343CB60BFF34F8F00BFFDE700
:1034E00000ED00E00400FA0520B1034B800143F039
:1034F00001031847704700BF50A40000054A01238C
:10350000C2F8003508B1D36070471360024A1360F7
:10351000704700BF0070004004700040087970B52B
:1035200000F01F04072C1FD80B78092B1CD8DFE8EC
:1035300003F006060606061B051E1B2005234A7817
:10354000032A18D0042A0FD100254A8844F20A061B
:10355000B24244D011D844F20306B2423BD044F206
:103560000506B24239D0D2B36FF0150032E006231F
:10357000E5E70723E3E70125E7E744F21406B24253
:103580002FD044F22806B2422DD044F20F06B242A8
:10359000EAD10322C0F340101B0243EA005343EA7E
:1035A000053343EA0243220102F1804202F5E04280
:1035B0000020C2F81835230103F1804303F5E043EE
:1035C0008A79C3F81425C3F81005084B1C444B79BD
:1035D00084F8A83070BD0022DCE70122DAE702227D
:1035E000D8E70422D6E70522D4E700BF0000002078
:1035F000F7B50546406810B96FF015009CE030F053
:10360000FF02F9D1574C584F114620FA02F313F03C
:10361000010333D0BB1893F8A8C0BCF1000FEBD066
:1036200004EB021E6E7CDEF81835003E18BF012642
:1036300023F0807343EA0663CEF8183502F1510394
:103640001B01013144F803C0C9B20132082ADCD1A0
:103650002B7C083B062BCFD801A252F823F000BFE9
:1036600045370000F935000087360000F9350000C5
:103670003D370000F93500004137000002F15106E6
:103680003601A351E1E70122364B0129C3F8F025A9
:103690006A7C59D9002AAFD1C3F8F4252A684B00B7
:1036A00012B1928902FB0333EA689A4256D32D4B3A
:1036B000AA68C3F82C262F46C3F830160FCF2A4C21
:1036C00004F17C060FC63B6833602B680026266732
:1036D000002B3CD00FCB04F1900585E80F00E56787
:1036E000A4F8A06098B3BFF35B8F54E8003F44E8B0
:1036F0000062002AF9D1BFF35B8F1C48D4F89060B8
:103700001B4A4FF4004500210023E5FB0601FDF7AD
:10371000E5F80022CDE90001002304F1080005F0DE
:1037200095F894F87830BBB912484FF0FF324FF05B
:10373000FF3304F0A5FA206F03B0F0BD0222A3E727
:103740000322A1E700229FE7082AA5D954E794F8AD
:103750008E00FFF7D3FEE4E70020EDE76FF00B00EB
:10376000EAE700BF00700040000000203F420F0069
:1037700040420F005800002070B50C4616460D4D13
:103780004FF0FF324FF0FF3305F1400004F078FABC
:103790000123204685F878306E67FFF729FF95F8FA
:1037A0007830044603B110B1034804F025FA2046EE
:1037B00070BD00BF00000020400000200D4B10B580
:1037C00000241C601B680C4B1C601B680B4B1222F6
:1037D000C3F804230720FFF755FA224601210720EA
:1037E000FFF76EFA0648836C13B9403004F004FA10
:1037F000002010BD047100401071004000700040B6
:1038000000000020344B1A6810B5002A55D0002261
:103810001A601B68314C324B01211960C3F8F8243F
:10382000E36FDBB3D4F8943043B1B4F8A02004F1D3
:103830007C019847012814D0022829D0B4F8A03080
:10384000B4F89C209A4223D90133A4F8A030254B28
:10385000D3F82C26D3F8341689B202EB4102C3F810
:103860002C26D4F890302BB994F88E00BDE8104087
:10387000FFF744BEBFF35B8F54E8003F5A1E44E895
:1038800000210029F8D1BFF35B8F012BECDC10BDC8
:10389000D4F8903013B1144806F038FC94F878301E
:1038A0004BB1606F10B1002102F01CFF0F48BDE862
:1038B000104004F0A1B90E48F9E70E4B1968002931
:1038C000E5D01A60064A1B680123136042F8083CE1
:1038D00042F8043CDBE700BF047100400000002018
:1038E00008700040007000400800002040000020E8
:1038F000580000201071004038B50C460C4D4FF0B8
:10390000FF324FF0FF3305F1400004F0B9F9002316
:10391000204685F878306B67FFF76AFE95F87830B7
:10392000044603B110B1034804F066F9204638BDDF
:1039300000000020400000202DE9F041104C071B42
:10394000C7F347174FF00C0808FB07F8064608F1C5
:1039500048000D462044402105F0BFFF011E09DB51
:10396000084B4444C4E91035074B53F83730BDE8E1
:10397000F041184730462B46BDE8F041184700BFDC
:10398000D00D00203D990000D8A4000038B5CCB27D
:10399000012C054609D9094909480A4A792305F045
:1039A0006CFD0848792105F065FC2B690C2104FBAE
:1039B0000134A06C00F0070038BD00BF2DB200003C
:1039C00004A70000F0B10000F8B5CCB2012C0769E3
:1039D000054616460BD918491848194A40F24D13A6
:1039E00005F04BFD164840F24D1105F043FC4FF039
:1039F0002003EFF3118283F31288BFF36F8F0C2340
:103A000003FB0471896C11F0C00101D08E4210D10A
:103A100003FB047301219964002082F31188BFF332
:103A20006F8F28B9696801EBC40463689847002068
:103A3000F8BD4FF0FF30F0E72DB2000004A7000002
:103A4000F0B1000070B50D460649411A044649110F
:103A500005484022FFF7B8FF2B4601462046BDE847
:103A600070401847D00D0020E8A10000002270B57A
:103A7000012104461046FFF723F90020FFF702F961
:103A80000F4801F0B1F80F4B984215D101F0D0F872
:103A900026690D49304605F0DBFC00280BDB0125CB
:103AA000B5642469084904F1200005F0D1FC002820
:103AB00001DB6565002070BD6FF00400FBE700BF0F
:103AC000013B00000000AD0BE8A4000001460C2300
:103AD00009484B4370B5C418D4E910560022483346
:103AE0002264184405F017FF2DB132462B460348D7
:103AF000BDE87040184770BDD00D0020E8A100005F
:103B0000012808B506D0032808D0A8B9104B9B6C33
:103B10005B071BD1BDE80840FFF7D8BF0D490E4A2F
:103B20000E4840F25E2305F0A8FC40F25E21BDE89D
:103B30000840094805F09EBB0649074A074840F27D
:103B4000622305F09AFC40F26221F0E708BD00BF55
:103B5000D00D0020EDB40000F0B1000004A700007B
:103B600008B54FF02003EFF3118183F31288BFF300
:103B70006F8F124A136843F0020013F001031060C4
:103B80000CD04FF08042D2F80C34D2F80C2413F051
:103B9000010303D00A4805F0BEFE012381F311881A
:103BA000BFF36F8F23B1BDE808400020FFF78EBF41
:103BB000BDE80840012001F05BB800BF280E0020DE
:103BC000180E0020094BBFF35B8F53E8002F22F043
:103BD000020143E800100028F7D1BFF35B8FD30741
:103BE00002D4012001F098B8704700BF280E0020D1
:103BF0007FB500220123CDE9022304ABCDE90433D4
:103C0000094ACDF800D06B46CDF804D005F0A8FEE7
:103C1000002805DB4FF480420023684604F030F8AA
:103C200007B05DF804FB00BF5B9900002DE9F84385
:103C30004949BFF35B8F0546012251E8003F41E847
:103C400000200028F9D1BFF35B8FA3B94349444852
:103C50004B60CB608A60FEF76BFD00280BDA4149B0
:103C60004148424A4FF4087305F007FC3F484FF4BF
:103C7000087105F0FFFAADB36B1E012B56D8012D6C
:103C800007D14FF08043D3F81C3403F00303012B1A
:103C900028D006F026FA044618B9354B1B78002BBD
:103CA00052D14FF02003EFF3118683F31288BFF354
:103CB0006F8F01242F4FDFF8C480DFF8C4904FF0DE
:103CC0008042D2F81834D2F81824D2030CD503F06D
:103CD0000303012B01D0012D06D10CB386F311880B
:103CE000BFF36F8FBDE8F883ACB13046FEF762FFDB
:103CF0004FF08042D2F81835002BE0D13968002906
:103D0000DDD03B603B680123C2F81835C8F880312C
:103D1000C9F80030D3E70021212003F001FEE7E7D6
:103D20004FF080430222C3F80423DBE712490E4818
:103D30000E4A40F2322305F0A0FBBDE8F8430B48E1
:103D400040F2322105F096BA4FF080430222C3F8C8
:103D500008230646AEE700BF2C0E0020C00D002051
:103D6000F00D002051B2000004A70000F0B10000E7
:103D70000914002004010040EDB4000000E100E05F
:103D8000080000400A4B70B5C6B21B6804463046B6
:103D9000984701280AD00A2C064D03D128680D2126
:103DA00005F0F9FD2868314605F0F5FD204670BDA7
:103DB000D8000020300E002008B5084B08481860D5
:103DC00006F01DF938B10748FFF740FB0548FEF73C
:103DD00095FE002008BD6FF01200FBE7300E0020BA
:103DE00048A20000853D000070B5056916460C46E6
:103DF00061B92249224A2348242305F03EFB224888
:103E000005F03BFB1E48242105F034FA636863B9D2
:103E10001E491B4A1B48252305F02FFB1C4805F0B3
:103E20002CFB1748252105F025FA6B685BB10022B1
:103E30009C4213D123685AB9AA686B60944200D19E
:103E4000AB600023236076B9002070BD0B46EFE71E
:103E50001360AB689C4208BFAA60F2E719681A4673
:103E60000029F3D13EB16B682360A8686C6000281C
:103E7000EAD1AC60E9E76FF01500E6E78DB200002B
:103E800060B2000004A7000096B20000A5B20000D6
:103E9000B7B2000043092DE9F04703D0012B36D01B
:103EA000BDE8F0871B4F3B695C68002CF8D02568A3
:103EB000DFF86C80DFF86C90DFF86CA000F01F007A
:103EC0000126002D06FA00F638BF0025A3681E4221
:103ED00014D0636863B9494645234246504605F00D
:103EE000CCFA0D4805F0C9FA4521404605F0C2F963
:103EF000D4E901322146324038469847002DCFD0D0
:103F00002B68002B38BF00232C461D46DEE7034FED
:103F1000C9E700BF00A20000B7B2000018A200006D
:103F200060B20000CEB2000004A700007FB5406878
:103F3000057B01F01F04B2F5005F44EA45144FF021
:103F4000000504D1204601F07FFA002054E0B2F5CC
:103F5000804FCDE9025551D1B3F5003F0CBF04238A
:103F600005238DF80830836823FA01F111F001016F
:103F700055D1B2F5A03F52D166094AD04FF6FF7332
:103F8000012E08BF194604F01F05E940CA070BD4EB
:103F90002B492C482C4A40F2292305F06EFA2A4876
:103FA00040F2292105F066F96EB1012E34D027497F
:103FB0002448254A40F22E2305F05FFA224840F2B9
:103FC0002E2105F057F94FF0A04305F5E07553F8A1
:103FD0002530DB0723D40DF107052946204601F0E3
:103FE0005DF91B4B984219D1284601F0B7F9194BDE
:103FF000984213D06FF00B0004B070BDB3F5C02F22
:1040000005D0B3F5003F0CBF02230123A9E703232A
:10401000A7E74FF0FF31B6E70F4BD6E70395002334
:10402000194602AA204601F01BF80A4B984204D117
:104030000121204601F098F987E76FF00400DBE7E3
:104040000DB3000004A70000DAB20000EDB40000D8
:104050000400AD0B0000AD0B0003005010B501F0E3
:104060006DF9044668B901F041F9084B98420AD14C
:104070000748214601F00CF9224605210620FEF7EB
:104080001FFE002010BD6FF00400FBE70000AD0B29
:10409000953E00002DE9F04347683B7B01F01F058A
:1040A00085B00E4645EA43151446CAB902A928460A
:1040B00001F0F4F80446284601F0E8F9484B98422C
:1040C00004D06FF0040005B0BDE8F083844205D150
:1040D0009DF8080001F03CF9A042F2D10020F2E77F
:1040E0004FF000090DF103013046CDE9029901F0CE
:1040F000D5F84B46804602AA4946284600F0B0FF54
:10410000374B984202D06FF01500DCE7804503D1B1
:104110009DF8030001F01CF9A3054ED5314B324A3E
:10412000234093423AD00CD8062B14D004D893B134
:10413000022BE8D104230EE0B3F5801FE3D1012365
:1041400009E02A4A93422BD0B3F5A00F2AD0B3F549
:10415000800FD8D102238DF8043084F48073C3F328
:104160000023E0068DF8053054BFC4F34013032349
:1041700021058DF8063017D57B68012101FA06F676
:10418000C3F80865002201A9284601F011F8144B74
:10419000984214BF6FF01500002094E70723DAE778
:1041A0000523D8E70323D6E7620541BF7B680121D9
:1041B00001FA06F6C3F80C65E4E7E3064FF00003E6
:1041C00054BFC4F3401403241A4601A928468DF8AD
:1041D000044000F045FF024B98423FF47FAF92E766
:1041E0000000AD0B0600F0000600100002004000C9
:1041F00002480021C2E90001002070470024F400B9
:1042000002464068126938B500F10803043200F133
:104210000C04194613F9015B002DB4BF00254FF4BF
:104220000045A34222F8025BF4D100231A4601F0B4
:10423000EFFA034B984214BF6FF00F00002038BD17
:104240000000AD0B0268530910B504462CD0012BB9
:104250004FF6FF7318BF002302F01F02D340DB07A5
:104260000BD414491448154A40F2292305F005F9E6
:10427000124840F2292104F0FDFF236803F01F02D9
:104280005B0922600DD0012B11D00D490A480B4A61
:1042900040F22E2305F0F1F8084840F22E2104F0F8
:1042A000E9FF4FF0A04010BD4FF0FF33D4E70548C1
:1042B000F9E700BF0DB3000004A70000DAB2000068
:1042C000EDB4000000030050F0B54B79012B26D06F
:1042D000032B21D110268B79032B1DD1CC790CB166
:1042E000012C19D10A7912B1022A15D10E220B68BC
:1042F0004568B3F5164F2D6865D02DD8B3F5165F18
:1043000064D016D8B3F5966F62D00AD8B3F5967F0D
:1043100061D0B3F5167F61D06FF0850052E00026C2
:10432000D9E7B3F5166F5CD0B3F5965FF4D1374B90
:104330003CE0B3F5E14F57D007D8B3F5615F55D0F6
:10434000B3F5964FE8D1324B30E047F61227BB4227
:10435000E2D14FF4000329E0B3F5613F48D013D810
:10436000B3F5963F47D009D84DF6C027BB4244D09D
:10437000B3F5614FD0D14FF46B0317E0B3F5E13FD4
:10438000CAD14FF0EB7311E0B3F5612F38D008D8E4
:10439000204FBB4237D0B3F5E12FBDD14FF0E863DA
:1043A00004E01D4FBB42B7D14FF08053C5F8243510
:1043B000036903C9344322430433C5F86C2583E8F9
:1043C00003000020F0BD4FF41D03EFE7134BEDE7B2
:1043D0004FF49E23EAE74FF4A033E7E74FF41C3392
:1043E000E4E74FF41D23E1E70D4BDFE70D4BDDE77D
:1043F0004FF06C73DAE70C4BD8E74FF46503D5E761
:104400004FF07063D2E74FF08063CFE700B0130046
:1044100000A04E0090D0030040420F000050270043
:1044200000C0750000F03A0000903A01026853099C
:1044300010B504462CD0012B4FF6FF7318BF002394
:1044400002F01F02D340DB070BD414491448154A6D
:1044500040F2292305F011F8124840F2292104F016
:1044600009FF236803F01F025B0922600DD0012BB6
:1044700011D00D490A480B4A40F22E2304F0FDFFEB
:10448000084840F22E2104F0F5FE4FF0A04010BD88
:104490004FF0FF33D4E70548F9E700BF0DB3000044
:1044A00004A70000DAB20000EDB4000000030050E1
:1044B000F8B5066905460F4605F013FE10B9204B06
:1044C0001B7883B94FF02003EFF3118483F3128834
:1044D000BFF36F8F284605F0C4FB28BB84F3118817
:1044E000BFF36F8FEEE76424284605F0BAFB70B97E
:1044F000012005F0EFFC013CF6D10021212003F062
:104500000FFAF0E784F31188BFF36F8FF5E74FF0F0
:104510002003EFF3118483F31288BFF36F8F2846D3
:1045200005F09FFB0028EDD03146012201F8147FF1
:10453000284605F029FC84F31188BFF36F8FF8BD7E
:10454000091400202DE9F743D0F804800769D8F852
:1045500000400023C4F8003538604568EB68064623
:10456000581C13D001A80193FFF760FF019A0123A3
:104570009340C0F80835EB68019301A8FFF756FF98
:10458000019B03F5E073032240F823202B69591C9B
:1045900011D02A7F0193002A01A814BF4FF003090C
:1045A0004FF00009FFF742FF019B03F5E0734FEA6C
:1045B000890240F823206B695A1C13D001A801938B
:1045C000FFF734FF019A01239340C0F808356B6967
:1045D000019301A8FFF72AFF019B03F5E073032273
:1045E00040F82320AB69581C11D06A7F0193002A40
:1045F00001A814BF4FF003094FF00009FFF716FFA1
:10460000019B03F5E0734FEA890240F82320D5E9C6
:1046100003122B68C3F80C15C3F81425D5E905124D
:10462000C3F808153169C3F8102504313046FFF787
:104630004BFE0546002846D1D8F80430990719D515
:1046400007F1160001F020F8224B98423FD1B87DC7
:10465000C30003F1804303F5F83304F10C0204F5C1
:104660009071C3F81015C3F814251B4A0123834029
:10467000C2F804350823C4F8003598F808305BB94F
:10468000C4F81031D4F8103107F11503C4F83435EB
:104690000123C4F838352360D8F804309A075CBF8A
:1046A0004FF48072C4F80423DB0644BF4FF4800348
:1046B000C4F8043314370023C4F84475C4F84835EB
:1046C0000123A360E360284603B0BDE8F0836FF0E8
:1046D0000405F8E70000AD0B00F00140194970B582
:1046E000044622F07F460868C1E90023A6F50013BE
:1046F000101AB3F5400F4FF000050AD2124B19689B
:104700000A060B0A9219114943F10003C1E900237B
:10471000012503F0CBFEA30003F1804303F58833AA
:10472000D3F84025B2420BD11DB94FF40002C3F8B3
:104730004025074B4FF4803000FA04F4C3F844439B
:1047400070BD00BFA8050020640E00209005002069
:104750000010014010B501238340114ABFF35B8F65
:10476000DC4352E8001F01EA040C42E800CEBEF12F
:10477000000FF6D1BFF35B8F4FF4803202FA00F0E6
:1047800002F1804202F58052C2F80803BFF35F8F46
:10479000BFF36F8F0B4214BF0120002010BD00BF7C
:1047A000600E00200123124ABFF35B8F834052E862
:1047B000001F194342E8001CBCF1000FF7D1BFF302
:1047C0005B8F0C4A4FF480338340C2F804330A4BAA
:1047D000BFF35B8F1B68BFF35B8F23FA00F0C30747
:1047E00042BF064B4FF40032C3F80021704700BFB0
:1047F000600E0020001001405C0E002000E100E08F
:104800000D4B1B68190A1806BFF35F8F0B4BD3F8CB
:104810000435C01841F10001B3F5801F0AD2084BDE
:10482000D3E90023994208BF904203D210F180706F
:1048300041F10001704700BF640E002000100140EC
:10484000900500202DE9F04F85B016461F4605461D
:10485000FFF780FF0190FFF7D3FFB94208BFB042D6
:104860007FD2B6EB000867EB010900234FF080729E
:104870004B4508BF4245C0F08580444B03EB051310
:10488000D3E902239F4208BF964254D04FEA8509DC
:104890004FF4803B09F1804905F150080BFA05F20D
:1048A00009F588394FEA88081FFA88F80292384AD1
:1048B000D9F8400526F07F4308F1804808F588388C
:1048C0001C469346D2F804A5A0EB0A0020F07F40D6
:1048D0002AF07F410128C9F8401505D10393132020
:1048E00005F010FC2A4A039B02990AF1020CA4EB82
:1048F0000C0020F07F40B0F5000F88BF6446002018
:10490000C8F80000D8F80000CBF8441324F07F402A
:10491000C9F84005DBF80405824506D0201A0238A4
:1049200020F07F40B0F5000F19D8E41A24F07F443E
:10493000321947F10003154C290104EB0510C0E9B9
:1049400002230E9A0F9B625043600024019B13B117
:104950002846FFF727FF204605B0BDE8F08F204628
:10496000B0E701230B4ABFF35B8FAB4052E8001F57
:10497000194342E800100028F8D1BFF35B8F32469C
:104980003B46D8E76FF01504E0E700BF980500202C
:10499000001001405C0E002073B5194B194D002426
:1049A0004FF0FF304FF0FF31C5F80845C3E9020171
:1049B0004FF48033C5F80433134B02264FF4003212
:1049C0000121C5F804631120C3F880212246FEF7B7
:1049D00077F91120FEF756F90C4A012313600C4AAF
:1049E0002B6013600B4B0C4A00930194002320466C
:1049F000FFF728FF3046FFF719F9204602B070BDD7
:104A0000980500200010014000E100E0081001407E
:104A1000600E0020DD460000FFFF7F002DE9F74318
:104A2000344CD4F804339A0709D5334B1A6832B1A1
:104A300000221A60314A1B681368013313604FF07B
:104A40002003EFF3118283F31288BFF36F8FD4F842
:104A50000433DB0312D5BFF35B8F294B53E8001FF0
:104A600021F0010043E80006002EF7D1BFF35B8F71
:104A7000244B002936D11968002933D1002382F351
:104A80001188BFF36F8F53B3FFF7BAFE06464FF09E
:104A90002003EFF3118083F31288BFF36F8F1A4B5B
:104AA000D3E90289494508BF46454FF000021ED3AD
:104AB0004FF0FF364FF0FF37D3E90015C3E9026727
:104AC0001A604FF48033C4F8483380F31188BFF381
:104AD0006F8F21B1009542464B460020884703B0B6
:104AE000BDE8F083002119601B680123C7E7114668
:104AF000EBE700BF0010014004110140640E0020EC
:104B00005C0E00204011014098050020144B13B5A5
:104B1000B0F1FF3F08BF1846441E002C1EDD9C422A
:104B2000A8BF1C46FFF76CFE0E4B0F49D3E90023CC
:104B3000801AB0F5000F28BF002401300444084853
:104B40000091844228BF044612194FF000000190E2
:104B500043F10003FFF776FE02B010BD0024E1E749
:104B6000FFFF7F00A8050020DD46000008B5FFF725
:104B700047FE024B1B68C01A08BD00BFA8050020F5
:104B800008B578B101281CD0144A154915484FF4CE
:104B90004F7304F072FC11484FF44F7104F06AFB3C
:104BA00000200DE031B14FF08043D3F8183403F00A
:104BB00003030B604FF08043D3F81804C0F30040A8
:104BC00008BD31B14FF08043D3F80C3403F001033A
:104BD0000B704FF08043D3F80C04EFE745B30000AF
:104BE000EDB4000004A7000010B5044648B90A4916
:104BF0000A480B4ABD2304F040FC0948BD2104F0DB
:104C000039FB084B1A7922B9012207481C609A80A7
:104C100010BD0648FCE700BFB6B3000004A70000C3
:104C200079B30000680E00200000AD0B0C00AD0B46
:104C300008B50B4B1B794BB90A490B480B4AD623D5
:104C400004F01BFC0948D62104F014FB0020FEF7F9
:104C500029F818B9BDE80840FEF714B808BD00BF30
:104C6000680E0020C4B3000004A7000079B3000060
:104C7000224B1B7913B504465BB921492148224ACE
:104C80004FF4897304F0F9FB1F484FF4897104F065
:104C9000F1FA74B1012C27D01B4A1C4919484FF472
:104CA000A27304F0EAFB18484FF4A27104F0E2FA90
:104CB00016E001A92046FFF763FF4FF0804388B15B
:104CC000019A012A0ED1C3F81825114B00221A604F
:104CD0001B684FF080430222C3F8042301229A602C
:104CE00002B010BD0022EEE70A4B00221A601B68DA
:104CF0004FF08043C3F804431C60F1E7680E0020C6
:104D0000C4B3000004A7000079B30000EDB40000B4
:104D1000040100400001004037B52F4D2A790446B8
:104D20005AB92E492E482F4A40F24B1304F0A5FBE6
:104D30002C4840F24B1104F09DFA7CB1012C28D094
:104D400029492748274A40F2671304F096FB254873
:104D500040F2671104F08EFA03B030BD4FF080438B
:104D60000222C3F80823C3F8044103F58273012229
:104D70001B681E4B42F210741A6000210846FFF7B0
:104D8000FFFE0028E8D0012005F0A4F8013CF4D192
:104D9000E2E74FF080430022C3F80843C3F8002144
:104DA00003F580731B68124B1C608DF8074042F2BC
:104DB00010740DF107010120FFF7E2FE10B9002386
:104DC0006B71C9E79DF807000128F8D105F082F85A
:104DD000013CEED1F3E700BF680E0020C4B3000031
:104DE00004A7000079B30000EDB400000C000040FF
:104DF00004000040164B07B51A686AB100221A6019
:104E00001B684FF080430122C3F80823114B5879E7
:104E100010B95A711B6898470F4B1A686AB1002085
:104E2000186001A91B68FFF7ABFE019A4FF08043A1
:104E300032B90122C3F818259A6003B05DF804FB6B
:104E40000222C3F80823034B01201B689847F4E7AC
:104E500000010040680E00200401004070B50125EB
:104E60000368B3FA83F2202AC2F11F0414D0BFF3FF
:104E70005B8F05FA04F223EA020250E8006F9E42BB
:104E800004D140E8002CBCF1000FF6D1BFF35B8FDA
:104E9000E6D102480C7070BD0148FCE70000AD0B84
:104EA0000200AD0B0368CB40DB0710B515D401231E
:104EB00003FA01F10368BFF35B8F41EA030250E894
:104EC000004F9C4204D140E8002CBCF1000FF6D109
:104ED000BFF35B8FEED1024810BD0248FCE700BF74
:104EE0000000AD0B0400AD0B054B083033F810008B
:104EF00000F02200A0F1220358425841704700BF41
:104F00003401002070B500F108030C4C34F8133064
:104F1000DA0505460E4607D5C3F3432304EBC30267
:104F200054F8333052689847A3682BB1E268314691
:104F30002846BDE87040184770BD00BF340100200E
:104F4000194B083010B533F81020D1051DD5C2F328
:104F5000432122F4F85223F8102003F1100400201A
:104F600034F8022B12F4807F03D0C2F34322914223
:104F70000BD001303028F3D1002243F831200B4808
:104F8000FFF790FF0A4B984200D110BD09490A482B
:104F90000A4A4FF4997304F070FABDE810400748CC
:104FA0004FF4997104F066B934010020A801002083
:104FB0000000AD0B46B4000004A70000E2B30000FF
:104FC00038B50A4C00F1080534F815309A0606D5B4
:104FD0005B0B074A03F5A273002142F82310FFF789
:104FE000AFFF002324F8153038BD00BF3401002086
:104FF0000060004010B50446006804F06DFF58B929
:1050000012491348134A40F2292304F036FA114892
:1050100040F2292104F02EF9236803F01F025B09F6
:1050200022600DD0012B0ED00B490948094A40F2ED
:105030002E2304F022FA074840F22E2104F01AF938
:105040004FF0A04010BD0548FCE700BF0DB30000C5
:1050500004A70000DAB20000EDB400000003005025
:10506000F0B5044685B017461D46F1B1FFF73CFF89
:1050700010B14A4805B0F0BD0B46CDE900008DF8EF
:105080000E008DF80F000DF10F020DF10E012046FC
:1050900004F037FF424A04F1080132F8113023F0DE
:1050A000020343F0010322F8113097B13C4B3E78E4
:1050B0007A6804F1080033F810108F070CD5002A25
:1050C000D7D133F8102022F01C0242EA860223F8DE
:1050D0001020CDBB3348CDE721F02001C904C90C15
:1050E00023F81010002AECD0032EC2D817782EB95E
:1050F0002D4A07F5A27142F82160E2E7BA0002F1F9
:10510000804202F5C04241EA4731D2F810C52CF086
:10511000030CC2F810C5D2F810C52CF44F3C2CF487
:10512000407CC2F810C5D2F810E54FEA042C0CF40C
:105130007C5C4EEA064E4CEA0E0C41F0200123F84E
:105140001010C2F810C5BCE7D5E900672046FFF78C
:10515000F7FE002EBED0124D2B689E4204D16B6824
:105160009F4201D100220AE010480DF10F01FFF724
:1051700075FE0C4B98427FF47DAF9DF80F2045F8EB
:10518000326005EBC20308345F6035F8143043EA3F
:10519000422343F4807325F814309BE70400AD0BE1
:1051A000340100200000AD0B00600040A801002089
:1051B000F0B5044685B0154609B300F10807314E35
:1051C00036F81730980701D49A0658D413F01C0FFC
:1051D00002D04B78012B52D001238DF80F300023E1
:1051E000CDE900134A1C8B1C20460DF10F0104F081
:1051F00088FE36F8173043F0030326F8173015B948
:10520000214805B0F0BD1F4E04F1080736F817001D
:10521000830734D595F800C06146890020F020004E
:1052200001F18041C00401F5C041C00C26F817000F
:105230000023C1F810356A78002AE1D0D1F8103582
:10524000AD7823F4991323F4F853C1F81035D1F84D
:1052500010E5230203F47C53120443EA0E0302F424
:1052600040322D05134305F4801540EA4C302B43A2
:1052700040F0200026F81700C1F81035C0E70348B9
:10528000BFE700BF340100200000AD0B0400AD0BF0
:10529000014BC3E9020170473401002038B50446D0
:1052A0000D4659B90B490C480C4A40F2352304F01D
:1052B000E4F80A4840F2352103F0DCFF0834084BDB
:1052C00033F814309A0643BF5B0B2B700548064831
:1052D00038BD00BF5AB4000004A70000E2B30000CC
:1052E000340100200000AD0B0400AD0B38B50E4CAE
:1052F00094F87850B5B96022294604F1100004F002
:10530000AEFA0620FDF7BEFC084B09481D601B687D
:10531000084B4FF00042C3F80423012384F878308F
:10532000636738BD0448FCE7340100207C6100401D
:105330000000AD0B006000400500AD0B034B93F87F
:105340007800003818BF0120704700BF34010020EA
:1053500001460148FFF7A6BDA4010020014601480F
:10536000FFF77CBDA4010020F7B5314D00F108071F
:10537000044635F8173013F01C0F0E460BD12D499B
:105380002D482E4A40F2DF3304F077F82B4840F2E4
:10539000DF3103F06FFF35F8170083061FD510F0DB
:1053A00002031CD1410B084604F0A7FD00F1804028
:1053B00000F5C040036003688B0003F1804303F5F0
:1053C000C043D3F8102542F00102C3F8102526B1DE
:1053D0001B4A01238B40C2F8043303B0F0BD5EB911
:1053E00018491548154A40F2EE3304F046F81348C0
:1053F00040F2EE3103F03EFF35F81730C3F382037D
:10540000042B10D0052B10D001A80194FFF7F2FD5A
:10541000019BD0F81015D94001F00101023120465E
:1054200004F0BAFDD9E70321F9E70221F7E700BF4D
:105430003401002064B4000004A70000E2B30000BF
:105440000060004079B400000E4B00F1080233F810
:105450001230990613D59A0711D45B0B01229A409A
:105460009B00094903F1804303F5C043C1F80823B9
:10547000D3F8102522F00302C3F81025704700214D
:1054800004F08ABD34010020006000400E4B00F1A2
:10549000080213B513F81230DB07044611D5FFF7E5
:1054A000D3FF2046FFF78CFD01A80194FFF7A2FD72
:1054B000019B03F5E073022240F82320034802B069
:1054C00010BD0348FBE700BF340100200000AD0B16
:1054D0000400AD0B2DE9F04F654B66486649002589
:1054E00089B001222C461E6836B1D0F804631642FA
:1054F0001EBF1C601E68154304338B424FEA4202F4
:10550000F1D15E4F3B687BB34FF0A0435C4ED3F8C4
:1055100020250692C3F82025D6F820350793C6F833
:10552000203501960DF118094FF000084FF0010BDE
:10553000D9F80030F3B908F12008B8F1400F09F1AB
:105540000409F5D13B603B6801994FF0A043D3F8C3
:1055500020250692C3F82025019BD3F82035079318
:10556000C1F820351343DDD10124002D68D109B0E5
:10557000BDE8F08F93FAA3F3B3FA83F308EB0306C5
:1055800006F108023F4B059633F81220C2F382035E
:10559000F40802939A4606AB06F007000BFA00FCEB
:1055A000185D20EA0C001855910805A80391FFF733
:1055B00021FD059C039904F5E0744B0750F8244045
:1055C000C4F3014423D551463046FFF79BFC05A8A0
:1055D0000596FFF70FFD059A02F5E072E4B250F868
:1055E0002220C2F30142944207D10021304604F048
:1055F000D3FC2146304604F0CFFC05A80596FFF702
:10560000F9FC059B0BFA03F3C0F8203590E7022C58
:105610000CBF03210221304604F0BEFC029B032B89
:1056200004D0022C07D1BAF1010FE6D15146304621
:10563000FFF768FCE1E7032CDFD1BAF1020FF4E7D2
:1056400095FAA5F3B3FA83F304FA03F29B0003F18E
:10565000804303F5C04325EA0205D3F81005D3F8CB
:105660001015C0F30520C1F30141FFF74BFC7CE7A7
:105670000061004000600040206100407C6100400B
:10568000000300503401002001460148FFF7E6BB4B
:10569000B00100202DE9F04104460E4615465AB9E6
:1056A00032493348334A40F2A72303F0E6FE31483B
:1056B00040F2A72103F0DEFD2F685FB92E492C4888
:1056C0002C4A4FF42D7303F0D8FE2A484FF42D7165
:1056D00003F0D0FD04EB4618C8F82075AF88002F02
:1056E00038D12649234A224840F2BD2303F0C5FEA3
:1056F00040F2BD211F4803F0BDFDC8F82475AF6816
:10570000B7F1807F0BD31E4919481A4A40F2C723CC
:1057100003F0B3FE174840F2C72103F0ABFDED687C
:105720004FEA461804EB4616B5F1807FC6F8287597
:105730000BD314490E480F4A4FF4347303F09DFE07
:105740000C484FF4347103F095FD4444C4F82C55D3
:10575000BDE8F0813B04D0D50B49064A044840F22D
:10576000BE2303F08AFE40F2BE21C3E7B6B40000B8
:1057700004A7000084B40000CBB40000E3B4000030
:105780000DB500002EB50000EFB40000026853090B
:1057900010B504462CD0012B4FF6FF7318BF002321
:1057A00002F01F02D340DB070BD414491448154AFA
:1057B00040F2292303F061FE124840F2292103F050
:1057C00059FD236803F01F025B0922600DD0012BF5
:1057D00011D00D490A480B4A40F22E2303F04DFE2A
:1057E000084840F22E2103F045FD4FF0A04010BDC7
:1057F0004FF0FF33D4E70548F9E700BF0DB30000D1
:1058000004A70000DAB20000EDB40000000300506D
:105810002DE9F04F064687B0914698460C4649B9A7
:1058200059495A485A4A8C2303F027FE58488C217C
:1058300003F020FD3779574D0C2179436B181A7A04
:10584000002A40F09F80227B45F80190C3F8048035
:105850009A72002A4DD0637B002B4AD0D6F8008084
:10586000B4F808900123C8F80035B4F9083094F86A
:1058700005B094F806A0002B0BDA47494348474A85
:105880004FF4277303F0F9FD44484FF4277103F0F8
:10589000F1FCC8F80CB53068C8F804A5C8F808953C
:1058A0006389C0F810350023C0F80032C0F8003317
:1058B000C0F81C31D0F81C21C0F81031D0F81021EC
:1058C000C0F81431D0F81421C0F80431D0F80431F4
:1058D0000C237B43EB581BB140F30730FDF7D2F9A3
:1058E0000C2303FB07552E4801232B7207B0BDE89C
:1058F000F08F04F1FF390DF1080804F1030A19F8DB
:10590000012FFF2A39D0217B22F0800BC8F800B08C
:10591000B1B91306CDF804B001A826D4FFF736FFBD
:10592000019901228A40C0F80C2501A8CDF804B0E5
:10593000FFF72CFF019B03F5E073032240F82320BF
:10594000D14508F10408DAD1637B002B86D1336896
:10595000029AC3F86025039AC3F86425049AC3F831
:105960006825059AC3F86C2578E7FFF70FFF0199C2
:1059700001228A40C0F80825D7E74FF0FF33C8F866
:105980000030DDE70748B1E78CB5000004A7000050
:1059900051B50000700E002095B5000084B40000E1
:1059A0000000AD0B0500AD0B2DE9F04198460379E1
:1059B0001446314A0E4603EB430102EB81070C21EA
:1059C00001FB032305461B7A5BB92C492C482D4A61
:1059D0004FF4967303F051FD2A484FF4967103F08B
:1059E00049FC5CB928492648264A40F22D1303F0A9
:1059F00044FD244840F22D1103F03CFC336803F0D1
:105A00006043B3F1005F0BD020491D481D4A4FF49D
:105A1000977303F032FD1B484FF4977103F02AFC93
:105A2000286832460021FFF735FE286832460121FA
:105A3000FFF730FE286804F0010303EB540418F06C
:105A4000010FC0F8144514D118F0020203D0002B46
:105A500014BF08220422002BC0F8002239465FFA46
:105A600088F218BF0C23BDE8F04108BF082304F0FA
:105A7000A2BA1022EFE700BF700E0020B6B50000FA
:105A800004A7000051B50000E2B50000F5B5000024
:105A900070B5124E04790C2202FB04620546127A9C
:105AA0005AB90F490F48104A4FF4D57303F0E5FC7B
:105AB0000D484FF4D57103F0DDFB0C232A6803FB7E
:105AC0000464237AD2F80421DBB21AB9981E18BFF5
:105AD000012070BD01202072FBE700BF700E002086
