:10000000402C002055280000D18500004128000028
:1000100041280000412800004128000000000000A5
:100020000000000000000000000000005D2600004D
:1000300041280000000000000926000041280000BF
:10004000C1250000C1250000C1250000C125000018
:10005000C1250000C1250000C1250000C125000008
:10006000C1250000C1250000C1250000C1250000F8
:10007000C1250000C1250000C1250000C1250000E8
:10008000C1250000C1250000C1250000C1250000D8
:10009000C1250000C1250000C1250000C1250000C8
:1000A000C1250000C1250000C1250000C1250000B8
:1000B000C1250000C1250000C1250000C1250000A8
:1000C000C1250000C1250000C1250000C125000098
:1000D000C1250000C1250000C1250000C125000088
:1000E000C1250000C1250000C1250000C125000078
:1000F000C1250000C1250000C1250000C125000068
:1001000081F0004102E000BF83F0004330B54FEAC8
:1001100041044FEA430594EA050F08BF90EA020F35
:100120001FBF54EA000C55EA020C7FEA645C7FEAC8
:10013000655C00F0E2804FEA5454D4EB5555B8BFEB
:100140006D420CDD2C4480EA020281EA030382EA5C
:10015000000083EA010180EA020281EA0303362DEE
:1001600088BF30BD11F0004F4FEA01314FF4801CC1
:100170004CEA113102D0404261EB410113F0004FD3
:100180004FEA03334CEA133302D0524263EB43038A
:1001900094EA050F00F0A780A4F10104D5F1200E28
:1001A0000DDB02FA0EFC22FA05F2801841F1000183
:1001B00003FA0EF2801843FA05F359410EE0A5F157
:1001C00020050EF1200E012A03FA0EFC28BF4CF088
:1001D000020C43FA05F3C01851EBE37101F000453E
:1001E00007D54FF0000EDCF1000C7EEB00006EEB4B
:1001F0000101B1F5801F1BD3B1F5001F0CD34908D5
:100200005FEA30004FEA3C0C04F101044FEA44522B
:1002100012F5800F80F09A80BCF1004F08BF5FEAB2
:10022000500C50F1000041EB045141EA050130BD92
:100230005FEA4C0C404141EB0101013C28BFB1F5A4
:10024000801FE9D291F0000F04BF01460020B1FAEF
:1002500081F308BF2033A3F10B03B3F120020CDAC2
:100260000C3208DD02F1140CC2F10C0201FA0CF0A0
:1002700021FA02F10CE002F11402D8BFC2F1200C05
:1002800001FA02F120FA0CFCDCBF41EA0C019040BB
:10029000E41AA2BF01EB0451294330BD6FEA040404
:1002A0001F3C1CDA0C340EDC04F11404C4F12002EF
:1002B00020FA04F001FA02F340EA030021FA04F301
:1002C00045EA030130BDC4F10C04C4F1200220FA58
:1002D00002F001FA04F340EA0300294630BD21FA96
:1002E00004F0294630BD94F0000F83F4801306BF5C
:1002F00081F480110134013D4EE77FEA645C18BF50
:100300007FEA655C29D094EA050F08BF90EA020FE6
:1003100005D054EA000C04BF1946104630BD91EADE
:10032000030F1EBF0021002030BD5FEA545C05D1E1
:100330004000494128BF41F0004130BD14F5800420
:100340003CBF01F5801130BD01F0004545F0FE4194
:1003500041F470014FF0000030BD7FEA645C1ABFC9
:10036000194610467FEA655C1CBF0B46024650EA00
:10037000013406BF52EA033591EA030F41F400212C
:1003800030BD00BF90F0000F04BF0021704730B5B2
:100390004FF4806404F132044FF000054FF0000187
:1003A00050E700BF90F0000F04BF0021704730B548
:1003B0004FF4806404F1320410F0004548BF40421D
:1003C0004FF000013EE700BF42004FEAE2014FEA72
:1003D00031014FEA02701FBF12F07F4393F07F4F4D
:1003E00081F06051704732F07F4208BF704793F050
:1003F0007F4F04BF41F40021704730B54FF4607463
:1004000001F0004521F000411CE700BF50EA010265
:1004100008BF704730B54FF000050AE050EA01020E
:1004200008BF704730B511F0004502D5404261EB7E
:1004300041014FF4806404F132045FEA915C3FF4BF
:10044000D8AE4FF003025FEADC0C18BF03325FEA5C
:10045000DC0C18BF033202EBDC02C2F1200300FA0D
:1004600003FC20FA02F001FA03FE40EA0E0021FA32
:1004700002F11444BDE600BF70B54FF0FF0C4CF420
:10048000E06C1CEA11541DBF1CEA135594EA0C0FD2
:1004900095EA0C0F00F0DEF82C4481EA030621EA0D
:1004A0004C5123EA4C5350EA013518BF52EA033548
:1004B00041F4801143F4801338D0A0FB02CE4FF0FA
:1004C0000005E1FB02E506F00042E0FB03E54FF02A
:1004D0000006E1FB03569CF0000F18BF4EF0010E22
:1004E000A4F1FF04B6F5007F64F5407404D25FEA1E
:1004F0004E0E6D4146EB060642EAC62141EA5551D1
:100500004FEAC52040EA5E504FEACE2EB4F1FD0C12
:1005100088BFBCF5E06F1ED8BEF1004F08BF5FEA90
:10052000500E50F1000041EB045170BD06F0004642
:1005300046EA010140EA020081EA0301B4EB5C04EF
:10054000C2BFD4EB0C0541EA045170BD41F48011E7
:100550004FF0000E013C00F3AB8014F1360FDEBF0C
:10056000002001F0004170BDC4F10004203C35DAE8
:100570000C341BDC04F11404C4F1200500FA05F36B
:1005800020FA04F001FA05F240EA020001F000420C
:1005900021F0004110EBD37021FA04F642EB060182
:1005A0005EEA430E08BF20EAD37070BDC4F10C04AC
:1005B000C4F1200500FA04F320FA05F001FA04F270
:1005C00040EA020001F0004110EBD37041F100015C
:1005D0005EEA430E08BF20EAD37070BDC4F1200567
:1005E00000FA05F24EEA020E20FA04F301FA05F2CF
:1005F00043EA020321FA04F001F0004121FA04F277
:1006000020EA020000EBD3705EEA430E08BF20EA46
:10061000D37070BD94F0000F0FD101F00046400080
:1006200041EB010111F4801F08BF013CF7D041EA02
:10063000060195F0000F18BF704703F00046520006
:1006400043EB030313F4801F08BF013DF7D043EAD7
:100650000603704794EA0C0F0CEA135518BF95EA8D
:100660000C0F0CD050EA410618BF52EA4306D1D114
:1006700081EA030101F000414FF0000070BD50EA33
:10068000410606BF1046194652EA430619D094EABD
:100690000C0F02D150EA013613D195EA0C0F05D1A7
:1006A00052EA03361CBF104619460AD181EA0301FB
:1006B00001F0004141F0FE4141F470014FF00000B3
:1006C00070BD41F0FE4141F4780170BD70B54FF04E
:1006D000FF0C4CF4E06C1CEA11541DBF1CEA1355CE
:1006E00094EA0C0F95EA0C0F00F0A7F8A4EB0504B0
:1006F00081EA030E52EA03354FEA013100F08880A7
:100700004FEA03334FF0805545EA131343EA12636F
:100710004FEA022245EA111545EA10654FEA002624
:100720000EF000419D4208BF964244F1FD0404F5DD
:10073000407402D25B084FEA3202B61A65EB030539
:100740005B084FEA32024FF480104FF4002CB6EBF6
:10075000020E75EB030E22BFB61A754640EA0C0076
:100760005B084FEA3202B6EB020E75EB030E22BFB6
:10077000B61A754640EA5C005B084FEA3202B6EBF7
:10078000020E75EB030E22BFB61A754640EA9C00B6
:100790005B084FEA3202B6EB020E75EB030E22BF86
:1007A000B61A754640EADC0055EA060E18D04FEA44
:1007B000051545EA16754FEA06164FEAC30343EAE4
:1007C00052734FEAC2025FEA1C1CC0D111F4801FB1
:1007D0000BD141EA00014FF000004FF0004CB6E7AA
:1007E00011F4801F04BF01430020B4F1FD0C88BF49
:1007F000BCF5E06F3FF6AFAEB5EB030C04BFB6EB54
:10080000020C5FEA500C50F1000041EB045170BD46
:100810000EF0004E4EEA113114EB5C04C2BFD4EB73
:100820000C0541EA045170BD41F480114FF0000EF7
:10083000013C90E645EA060E8DE60CEA135594EA73
:100840000C0F08BF95EA0C0F3FF43BAF94EA0C0F76
:100850000AD150EA01347FF434AF95EA0C0F7FF4EB
:1008600025AF104619462CE795EA0C0F06D152EA3F
:1008700003353FF4FDAE1046194622E750EA410623
:1008800018BF52EA43067FF4C5AE50EA41047FF434
:100890000DAF52EA43057FF4EBAE12E74A0011D2E6
:1008A00012F5001211D20DD56FF47873B3EB6252CA
:1008B0000ED44FEAC12343F0004343EA505323FAD6
:1008C00002F070474FF00000704750EA013002D14B
:1008D0004FF0FF3070474FF00000704753B94AB9EE
:1008E000002908BF00281CBF4FF0FF314FF0FF3038
:1008F00000F06CB9ADF1080C6DE904CE00F006F81B
:10090000DDF804E0DDE9022304B070472DE9F0478B
:10091000089E0D4604468E46002B40F082808A4297
:10092000174646D9B2FA82F24AB1C2F1200105FA5D
:1009300002F320FA01F1974041EA030E94404FEA96
:100940001748230CBEFBF8FCB9B208FB1CEE43EAC7
:100950000E430CFB01F098420AD9FB180CF1FF354D
:1009600080F01681984240F21381ACF1020C3B44B6
:100970001B1AA4B2B3FBF8F008FB103344EA03449B
:1009800000FB01F1A14209D93C1900F1FF3380F0CD
:100990000181A14240F2FE8002383C44641A40EAE0
:1009A0000C4000211EB1D4400023C6E90043BDE83D
:1009B000F08702B9FFDEB2FA82F2002A4FD1CB1BD8
:1009C0004FEA174E1FFA87F80121B3FBFEFC250CF6
:1009D0000EFB1C3345EA034508FB0CF3AB4207D979
:1009E0007D190CF1FF3002D2AB4200F2E780844661
:1009F000ED1AA3B2B5FBFEF00EFB105543EA054419
:100A000008FB00F8A04507D93C1900F1FF3302D2DA
:100A1000A04500F2D7801846A4EB080440EA0C4039
:100A2000C0E78B4208D9002E00F0AF800021C6E954
:100A300000050846BDE8F087B3FA83F100294BD1E1
:100A4000AB4202D3824200F2B780841A65EB030303
:100A500001209E46002EAAD0C6E9004EA7E7C2F1AB
:100A6000200C01FA02F3974020FA0CF04FEA174EDF
:100A700021FA0CFC1843BCFBFEF1050C0EFB11CC5B
:100A80001FFA87F845EA0C4501FB08F3AB4204FA6C
:100A900002F409D97D1901F1FF3C80F08B80AB4253
:100AA00040F2888002393D44EB1A85B2B3FBFEF078
:100AB0000EFB103345EA034500FB08F3AB4207D9B0
:100AC0007D1900F1FF3C71D2AB426FD902383D4431
:100AD000EB1A40EA014178E7C1F1200C8B4022FA81
:100AE0000CF71F4320FA0CF405FA01F34FEA174EF6
:100AF00025FA0CF51C43230CB5FBFEF91FFA87F809
:100B00000EFB195543EA054509FB08FAAA4502FA06
:100B100001F200FA01F308D97D1909F1FF3047D23B
:100B2000AA4545D9A9F102093D44A5EB0A05A4B29D
:100B3000B5FBFEF00EFB105544EA054400FB08F837
:100B4000A04507D93C1900F1FF352DD2A0452BD97E
:100B500002383C4440EA0940A4EB0804A0FB0289A7
:100B60004C45C6464D4619D316D05EB1B3EB0E02C6
:100B700064EB050404FA0CFCCA404CEA0202CC40C7
:100B8000C6E900240021BDE8F087314630460EE773
:100B9000AC46EDE6184601E74345E6D2B8EB020E57
:100BA00069EB07050138E0E72846D3E760468FE7A1
:100BB0008146BAE7614677E708464BE7ACF1020C9D
:100BC0003D4415E702383C4426E700BF704700BFAC
:100BD0002DE9F84F4A4807F0D5FC0FF2141BDBE96A
:100BE00000AB00274FF0FF324FF0FF334548464D32
:100BF00006F096FB07F0CFFB02460B46434807F092
:100C0000C1FC434A92F90030082BDABF01335BB2D2
:100C1000002313703F4A128825F813200A242B461C
:100C2000002033F8022B013C14F0FF041044F8D1EB
:100C30000A2390FBF3F0384B188080B2FFF7B2FB29
:100C400052465B4680468946FFF716FCFFF726FEB4
:100C5000324B86B21E80404627A3D3E90023494683
:100C6000FFF70AFCFFF71AFE2D4B2E4980B21880C1
:100C70000A2335F8022B904205D8964222BF21F86C
:100C800014200134A4B2013B13F0FF03F1D1264834
:100C9000244EDFF8A89007F075FCB0460A2538F816
:100CA000021B484607F06EFC6B1E13F0FF05F6D1E1
:100CB0001E4807F067FC2B462A4699B28C4210D892
:100CC0000CB1B2FBF4F747B1194B1B8840F2FF326D
:100CD0007B4393FBF2F3174A1380174806F0E2FABE
:100CE00080E736F8021B0A4492B20133E5E700BF01
:100CF0009A9999999999F13FCDCCCCCCCCCCEC3F39
:100D000037930000380600209E0D00206A940000F2
:100D1000D60100209C0D0020820D0020B20D002085
:100D20009A0D0020840D00208894000045A1000049
:100D3000D4010020980D002048060020A394000054
:100D400008B5034807F01EFC024B01221A7008BDCB
:100D5000D0910000B70D002008B5034807F012FC41
:100D6000024B01221A7008BDE2910000B40D002070
:100D700008B5034807F006FC024B01221A7008BDB3
:100D8000F4910000B50D002043682DE9F0411B6887
:100D9000D0F80880076901268E401E4204460D46A1
:100DA0000ED10E490E4A0F4840F2FD2307F0EAFB30
:100DB0000D4807F0E7FB0A4840F2FD2107F00EFB63
:100DC0003B6823EA06063E60D8F8003029462046F4
:100DD0004FF48872BDE8F041184700BF3092000020
:100DE000069200006E9200008B92000043682DE98D
:100DF000F0411B688768D0F8108001268E401E42A3
:100E000004460D460ED11049104A114840F29D2368
:100E100007F0B8FB0F4807F0B5FB0C4840F29D21E6
:100E200007F0DCFAD8F800301E42BE692946204699
:100E3000B44618BF4FF40033BDE8F04108BF4FF48B
:100E400080234FF4A03260473092000006920000E9
:100E50006E9200008B9200002DE9F84307F09BFA98
:100E600010F132042248DFF8AC80224E41F1000537
:100E700007F088FBC14698F800302BB337781FBBCA
:100E80001D4807F07FFB1D4B1F801D4B1F701D4B26
:100E90001F700123337088F80070052007F089FA6D
:100EA000337813BB184806F0FDF907F074FA0B46C7
:100EB000A04273EB05010246DDDAA01A07F079FAC9
:100EC000323445F10005D6E799F80030002BE4D024
:100ED0003378002BE1D00D4807F054FB074A00237C
:100EE0001380337089F80030D7E70948DBE700BF8B
:100EF0009D920000B60D0020B7920000980D0020D2
:100F0000B70D0020B40D002018060020CD9200007F
:100F100028060020B50D0020F8B51B481B4D1C4FBE
:100F200007F030FB2E464FF0FF324FF0FF333846CC
:100F300006F0F6F907F02FFA02460B461548164C54
:100F400007F020FB2B789BB1238840F2B632934206
:100F50009CBF3233238000233370052007F029FA29
:100F600021880E4807F00EFB0D4806F09BF9DAE7E2
:100F70000C4A1378002BF3D023880BB1323B23802B
:100F800000231370E9E700BFE6920000B70D0020D0
:100F900028060020FA920000980D00201993000006
:100FA00048060020B40D00202DE9F0412E482F4DB9
:100FB0002F4F86B007F0E6FA2E464FF0FF324FF083
:100FC000FF33384606F0ACF907F0E5F902460B4668
:100FD000284807F0D7FA284804F0DCFB286010B94D
:100FE000264807F0CFFA3068836825491B68984780
:100FF000014610B1234807F0C5FADFF8A880142293
:10100000002101A807F01FFB022330680293CDE9FD
:1010100003830A238DF8143048B91B4807F0B2FA4D
:101020004FF0FF341948214607F0ACFA0FE083680F
:1010300001A95B689847044668B10146144807F067
:10104000A1FAEFE7134807F09DFA134B1C801348F1
:1010500006F028F9B1E7B8F80010B1F5806FF1D2C9
:101060000D4B0F481980DFE737930000F005002093
:10107000180600204E9300006F9300007593000047
:10108000C891000096930000C593000014940000DE
:10109000F49300003D9400009C0D002038060020D1
:1010A00058940000800D00202DE9F04F87B035489E
:1010B00004F070FB044628B9334807F063FA07B020
:1010C000BDE8F08F314807F05DFA4FF0FF324FF086
:1010D000FF332F482F4D06F023F907F05CF9024645
:1010E0000B462D4807F04EFA29882C4807F04AFA9B
:1010F0002B4BB5F800801F88A7EB0808A36804AA4B
:101100005B680D2120469847054628B16FF0040121
:10111000244807F037FAD2E7DDE90463A7FB06AB02
:1011200007FB03BB204A0393504600235946FFF7B1
:10113000D5FB1E4B4FF0FF325B4508BF5245814641
:1011400002D26FF08501E3E7039B174AA8FB06670D
:1011500008FB0377304600233946FFF7BFFB134AED
:101160004FF0FF31BA4208BFB1420346E9D3A2684B
:10117000009515680D214A462046A84701460028DB
:10118000A3D0C5E7A8940000AE940000CF9400005F
:1011900048060020980D0020E1940000FC94000017
:1011A000D40100202695000040420F003F420F006E
:1011B000F0B589B05D4804F0EDFA044628B95C4802
:1011C00009B0BDE8F04007F0DDB95A4807F0DAF998
:1011D0000B212046FFF7D8FD011E05DA564809B05D
:1011E000BDE8F04007F0CEB90C212046FFF7CCFD5A
:1011F000011E01DA5148F2E718212046FFF7C4FD2D
:10120000011E01DA4E48EAE70B212046FFF7EEFD0A
:101210004C494D4B4B6020464FF400638B6007F008
:10122000B2F80C212046FFF7E1FD4849484B4B60DE
:1012300020464FF480538B6007F0A5F81821204614
:10124000FFF7D4FD4349444B4B6020464FF0807379
:101250008B6007F098F801220021404807F00EFD4E
:10126000012200213E4807F009FD012200213D48EE
:1012700007F004FD012200213B4807F0FFFC002697
:10128000002700240125CDE90667CDE90354CDE907
:101290000144364B364900944FF48062354806F0DD
:1012A0002DF9354B1860354B35490094CDE906676B
:1012B000CDE90354CDE901444FF48062314806F092
:1012C0001DF9314B1860314B31490094CDE9066767
:1012D000CDE90354CDE901444FF480622D4806F076
:1012E0000DF92D4B18602D4B2D490094CDE9066763
:1012F000CDE90354CDE901444FF48062294806F05A
:10130000FDF8294B1860294B29490094CDE906675F
:10131000CDE90354CDE901444FF48062254806F03D
:10132000EDF8254B186009B0F0BD00BF4B950000EB
:10133000529500007395000090950000B79500004D
:10134000DE950000F4050020410D0000000600209D
:10135000590D00000C060020710D00002806002029
:10136000180600204806002038060020590E00000C
:10137000A0130020C80200205C060020190F000006
:10138000C0170020C803002064060020A90F000039
:10139000E01B00204802002058060020D10B00006E
:1013A000002000204803002060060020A910000053
:1013B0002024002048040020680600202DE9F04F7A
:1013C00091B08B46029092461C4600259AF8000088
:1013D00008B928465EE325280AF1010707D0029BD9
:1013E000594698470028C0F25583013510E218226B
:1013F00000210AA807F027F99AF80130252B78D0A8
:1014000000229446164696461046394617F8013B88
:101410002B2B00F09D8000F29480202B00F09B800D
:10142000232B00F09A8028B19DF8300040F0040092
:101430008DF83000BEF1000F05D09DF8300040F06F
:1014400008008DF830002EB19DF8300040F01000FB
:101450008DF83000BCF1000F05D09DF8300040F051
:1014600020008DF830002AB19DF8302042F0400273
:101470008DF830209DF8302002F04400442803D13C
:101480006FF386128DF830209DF830202A2B42F021
:1014900080028DF830207BD19DF8312042F001028E
:1014A0004B1C8DF831201A782E2A9DF831200CBF64
:1014B0000121002161F341028DF8312074D15A7865
:1014C0002A2A6AD0013300210A26184610F8012B77
:1014D000A2F13007092F40F28E809DF830200E9146
:1014E000C2F3400040EAD17161F341028DF830202F
:1014F0005AE00AF102078DF833309DF83130D907F0
:1015000040F1498154F8049BB9F1000F07DA9DF8C6
:10151000302042F004028DF83020C9F100095A074A
:1015200040F1428154F8048BB8F1000F80F2418100
:101530009DF831306FF341038DF831304FF0FF38B3
:1015400037E12D2B0CD0302B7FF46DAF01225CE7FF
:101550004FF0010E59E7012657E74FF0010C54E711
:10156000012052E70CFB0202303A33461E4616F8C1
:10157000010BA0F13007092FF4D9994293D09DF8BF
:1015800030100D92D20F62F341018DF830108AE7CE
:101590000B4600224FF00A0CE8E79DF8312042F09C
:1015A00004028DF8312002331F4617F8012B6C2AF4
:1015B00041D025D8682A2BD06A2A46D04C2A4CD054
:1015C0001F4617F8012B9DF831308DF83320782A0B
:1015D00000F2D980572A4DD8412A03D0453A022A31
:1015E00000F2D1809DF83230042262F302038DF8BC
:1015F000323001239EE006FB01213039034664E7C7
:10160000742A26D07A2ADBD19DF8313006220DE0EB
:101610005A78682A9DF8312006D1012161F3C6026B
:101620008DF831209F1CCCE71346022262F3C603DB
:101630008DF83130C5E75A786C2A9DF8312001D1F8
:101640000421EBE713460322F0E79DF83130052231
:10165000ECE79DF831300722E8E7BDF8303023F49D
:10166000F04323F0020343F4804343F00203ADF858
:101670003030A6E7A2F15801202900F2848001A0B1
:1016800050F821F049170000871700008717000065
:1016900087170000871700008717000087170000D2
:1016A0008717000087170000E51500008717000066
:1016B0004917000009170000E5150000E5150000B6
:1016C000E5150000871700000917000087170000C4
:1016D00087170000871700008717000051170000C8
:1016E000491700006D1700008717000087170000DA
:1016F0006D170000871700004917000087170000CA
:1017000087170000491700009DF83210012003F0F0
:10171000780360F30201402B8DF8321002BF9DF870
:10172000301041F001018DF83010632A31D1003BB7
:1017300018BF01239DF83020C2F340010B4363F32F
:1017400041028DF83020D8E69DF832100220DEE705
:101750009DF8322003F07803A3F14000032161F3E8
:10176000020243428DF832204341E3E79DF83220E4
:10177000032113F0780F61F302028DF8322014BFB9
:1017800001230023D6E79DF8303043F001038DF8A4
:1017900030300023CEE79DF93020002AB4BFDDF8B9
:1017A00034904FF0FF39BAE69B077FF5C7AEDDF8FE
:1017B00038809DF831200023CDE90D339DF832307B
:1017C00003F00703012BC2F3C30236D1D31E042B4F
:1017D00020D8DFE803F00307071F1F0054F8040BAD
:1017E000C11704E0073424F00704F4E80201CDE94E
:1017F0000A019DF8303013F0030654D002983B469E
:101800005246594606F03CFE0028C0F2438105448A
:10181000BA46DBE554F8040B012A4FEAE071CDE942
:101820000A0105D19DF828300A9300230B93E0E7C5
:10183000022ADED1BDF92800D2E7022B23D1D31E24
:10184000042B13D8DFE803F0030A0A121200206801
:101850000A900021231D0B911C46CAE7073424F08F
:101860000703F3E80201CDE90A01F5E754F8043B68
:101870000A93012A4FF000030B93D3D0022AB8D168
:10188000BDF82830D0E7042B07D1073424F0070433
:10189000F4E80201CDE90A01ABE7032B04BF54F8D9
:1018A000043B0A93A5E79DF833007828B0D8622856
:1018B00022D825283FF493AD5828A9D10DF126034D
:1018C0000093DDE90A0104AB0CAA06F08EFD824606
:1018D000B8F1000F0DF126000CDB9DF83020A0EBD5
:1018E0000A036FF3861298458DF8302002D9A8EBD1
:1018F00003030D9380463DE06338152888D801A185
:1019000051F820F085190000E919000011180000B5
:10191000111800001118000011180000E91900004A
:101920001118000011180000111800001118000013
:10193000471A0000151A0000191A000011180000BB
:10194000111800005D19000011180000151A0000A0
:101950001118000011180000151A0000B8F1000F4E
:10196000DDF828A00ADB4146504606F04CFE0AEBA3
:1019700000080026BAF1000F0CD149E7504606F0E6
:101980003BFEF4E70A9B8DF8103000260DF111089C
:101990000DF1100AA8EB0A0306B101339DF83220BD
:1019A000D0066BD5023352060D9948BF0E9A0B44F0
:1019B00048BF9B18B9F1000F79DD9DF83020A9EBE5
:1019C0000309C2F380030393530770D4500664D510
:1019D00046B1029B59463046984700285ADB039B84
:1019E00001351E46302359E01E0711D413F01006AE
:1019F00018BF2026DDE90A23002A73F10001BFF693
:101A00005DAF524263EB4303CDE90A232D2655E730
:101A10002B26EFE7002651E70A9848B30DF126037D
:101A200000930CAA04AB002106F0DFFCBDF83230B5
:101A300003F0EF0343F4F04343F010038246ADF8A4
:101A40003230002644E70A9B072A3FF6E1AEDFE882
:101A500002F00D04060D08080D0D1D70D8E61D805E
:101A6000D6E62846E917C3E90001D1E61D60CFE6B6
:101A7000DFF8C4800646A8F1050A8BE7110748BFC6
:101A8000013390E7184603935946029B9847002874
:101A9000039B04DA11B0BDE8F08F20234D444A4681
:101AA000002AA5EB090109F1FF39EBDC0D4636B13F
:101AB000029B5946304698470028EBDB01359DF8DC
:101AC0003230D90601D41A0706D5029B5946302078
:101AD00098470028DEDB01359DF83230DB0607D55C
:101AE0009DF83300029B594698470028D2DB013508
:101AF0000D9E2E44731B002B16DC02984346524663
:101B0000594606F0BDFC0028C4DB0544A944A9EBF6
:101B10000503002B7FF77CAE029B59462020984797
:101B20000028B7DB0135F2E7029B59463020984781
:101B30000028AFDB0135DDE70A96000038B54468C0
:101B4000816004F00304032C054602D02CB1002070
:101B500000E0006800236B6038BD054A054906486F
:101B6000452306F00FFD0248452106F037FCEEE75D
:101B70000B960000F09D00006E920000014806F0F8
:101B80006FBA00BFC88F000008B5D0B14368042BFE
:101B900011D100220368BFF35B8F53E8001F0129B6
:101BA00003D143E800200028F7D1BFF35B8F07483B
:101BB00008BF104608BD3BB1006804F043F900209F
:101BC000F8E76FF4E040F5E70148F3E7E98FFFFF3E
:101BD000EA8FFFFF10B5044618B90D4B0D485B683E
:101BE0009847616808290DD031F004030AD011F03C
:101BF000020108D00848214603F0C0FF00232360FB
:101C00000023636010BD2068142206F01CFDF7E776
:101C1000740100202E9600006C06002010B50446CA
:101C200018B9164B16485B6898476368042B23D095
:101C3000082B21D0CBB92368BBB912484FF0FF3233
:101C40004FF0FF33214603F02DFF08B923681BB97D
:101C50000A4B0D485B68984720681422002106F063
:101C6000F2FC636843F002036360206806F0DFFF64
:101C7000636843F00103636010BD00BF740100207E
:101C80002E9600006C0600205496000008B508B39C
:101C90004368042B10D101220368BFF35B8F53E824
:101CA000001F002903D143E800200028F7D1BFF32B
:101CB0005B8F0BD1002008BD53B100684FF0FF329D
:101CC0004FF0FF3303F0BEFF0028F3D00348F2E7E4
:101CD0000348F0E76FF4E040EDE700BFE98FFFFF56
:101CE000EA8FFFFF08B5064906484023142206F094
:101CF00082FFBDE808400449044806F013BA00BF5B
:101D00008C0600206C060020E08F0000D08F0000C1
:101D10002DE9F04FB0F81C9085B019F0080F04467B
:101D2000039222D001290CBF49F0100949F0200983
:101D3000A0F81C901434204605F0CCFC68B99F4AEA
:101D40009F49A048AC2306F01DFC9F48214606F0A1
:101D500019FC9A48AC2106F041FB039B83F31188E0
:101D6000BFF36F8F05B0BDE8F08F984FDFF8548256
:101D700009F00709022906D1204606F0ADFB00282C
:101D8000D8D0012868D1D4F818B0A38BBBF1000FCC
:101D90000ADA0026256823F00703C4E9006643F049
:101DA0000103A383019627E003F00702511F0129D5
:101DB00034D8002123F00703062A25689BB2C4E922
:101DC00000110CD18D422A4638BF0A462AB1E18B58
:101DD00012680131E183002AF8D143F00203A383A2
:101DE000204606F079FB06460028DBD0A38B43F0A3
:101DF0002003A38300230193A38B03F007024A452A
:101E0000029203D0A268002A40F0F0801DB9019A26
:101E1000002A00F036814FF00009E9E0042A0ED1D3
:101E200023F007039AB2A283204606F055FB05462D
:101E300018B142F02002A28300250195DCE740465C
:101E4000634940F21B133A4606F09CFB40F21B111B
:101E5000384606F0C3FAEFE7032835D1B9F1000F91
:101E60000BD05C4940464FF4AB733A4606F08AFB10
:101E70004FF4AB71384606F0B1FA23685BB95649A6
:101E8000404640F257133A4606F07CFB40F25711A9
:101E9000384606F0A3FA23691B6801935BB94F49E2
:101EA00040464FF4AD733A4606F06CFB4FF4AD710B
:101EB000384606F093FAA38B23F0070343F006039A
:101EC000A3830025AB4697E7042832D1B9F1020F6E
:101ED0000BD04349404640F25D133A4606F052FBB0
:101EE00040F25D11384606F079FAE38B5BB13D496B
:101EF00040464FF4AF733A4606F044FB4FF4AF71DF
:101F0000384606F06BFA23695B6801935BB9334985
:101F1000404640F261133A4606F034FB40F261114C
:101F2000384606F05BFAA38B23F0070343F0040363
:101F3000C6E7052832D1B9F1010F0BD02A49404636
:101F40004FF4B2733A4606F01DFB4FF4B2713846B7
:101F500006F044FA23685BB91F49404640F2651316
:101F60003A4606F00FFB40F26511384606F036FAA5
:101F700023699B6801935BB9184940464FF4B473D9
:101F80003A4606F0FFFA4FF4B471384606F026FAE6
:101F9000A38B23F0070343F0050391E70C4940F2BC
:101FA0006B133A46404606F0EDFA002540F26B11FD
:101FB000384606F013FA019584E700BF2497000025
:101FC0004A9700006E920000619700008196000021
:101FD000F09D0000A3960000AF960000D29600008E
:101FE000E9960000FF9600000E9700004FF00109EF
:101FF00043F0080304F1140AA383504605F06AFB7A
:1020000068B93A4A3A49AC23404606F0BBFA394827
:10201000514606F0B7FA3548AC2106F0DFF9039BCC
:1020200083F31188BFF36F8FB9F1000F38D1002D02
:102030004BD1019B13B13049204698474FF0200304
:10204000EFF3118B83F31288BFF36F8F5046CDF8F7
:102050000CB005F031FB68B9244A28498123404679
:1020600006F090FA2648514606F08CFA1F48812166
:1020700006F0B4F9504605F03DFBA38B23F00803AE
:10208000A383A38BDA0628D523F01003A3830121B1
:10209000B4F81C9009F0070900297FF46BAE49E6FB
:1020A000A1680029C3D00B68029A002B38BF002317
:1020B00099464B6820461E465B46B047B9F1000F73
:1020C000B5D0D9F800304946EEE72946029A2D6886
:1020D0005B46204606F01CFAA9E713F020011EBF5C
:1020E00023F02003A3830221D2E700BF249700003E
:1020F0004A970000619700000521000076970000D4
:102100008B970000F8B504460D4600F114064FF019
:102110002003EFF3118783F31288BFF36F8F3046EC
:1021200005F0CAFA68B90C4A0C490D48812306F03B
:1021300029FA0C48314606F025FA0748812106F0B5
:102140004DF9304605F0D6FAA5613A462046012100
:10215000BDE8F840FFF7DCBD24970000769700004B
:102160006E9200008B9700002DE9F04704460F4661
:1021700006F0E4F9051E5EDB04F114094FF02003BC
:10218000EFF3118A83F31288BFF36F8F484605F08F
:1021900093FA68B9384A39493948812306F0F2F987
:1021A0003848494606F0EEF93348812106F016F921
:1021B000484605F09FFAE38BA28B4FF6FF718B42E6
:1021C00002F0070650D0022E24D10133E3833546B6
:1021D0004FF00108484605F07DFA68B9264A2A49B9
:1021E0002748AC2306F0CEF92848494606F0CAF93C
:1021F0002148AC2106F0F2F88AF31188BFF36F8F03
:10220000B8F1000F17D0002332463946204606F0B9
:102210007FF910E0930701D0062E0FD100233B6019
:102220006368F3B9C4E900773546FEB95246022126
:102230002046FFF76DFD2846BDE8F087052E18D033
:10224000012E0BD012490E48124A40F2C91306F073
:1022500099F9104840F2C91106F0C0F86FF0040572
:1022600004E01F606760DFE76FF00A054FF00008C9
:10227000B0E76FF08505F9E7249700007697000036
:102280006E9200008B9700004A9700006197000053
:102290000E970000819600002DE9F84305464FF0A7
:1022A0002003EFF3118683F31288BFF36F8F234867
:1022B00005F002FA68B9224A22492348812306F030
:1022C00061F91E49214806F05DF91D48812106F09B
:1022D00085F81A4805F00EFA1D4B1C68002C38BF13
:1022E00000249CB11B4FDFF878804FF00C09D4E933
:1022F0000132002D08BF13462BB198F8142009FBBA
:1023000002F2B85C98472468002CF0D10B4805F025
:10231000E1F968B90A4A10490B48AC2306F032F9D2
:1023200006490E4806F02EF90548AC2106F056F88D
:1023300086F31188BFF36F8FBDE8F8838C0B002004
:1023400024970000769700006E9200008B970000A3
:10235000900B00209C0B00204A9700006197000022
:102360001C0D002000F01F0301229A400A4BBFF30E
:102370005B8F400903EB800050E8003F43EA020115
:1023800040E8001CBCF1000FF6D1BFF35B8F1A428E
:1023900014BF012000207047A80B002030B51D4B52
:1023A0001D7DBFF35B8F05F01F0301229A401A4B7E
:1023B000690985B0D04303EB810353E8001F01EAAC
:1023C000000443E8004CBCF1000FF6D1BFF35B8F73
:1023D000114217D0114C0C2202FB054207CA01AB77
:1023E00083E807000E4A7AB193E8070006F047F940
:1023F0000020FFF751FF0C236B430022E118E2504D
:10240000C1E9012205B030BD82F31188BFF36F8F9F
:10241000EEE700BF1C0D0020980B00209C0B002055
:102420007F8600002DE9F041374BDFF8F4801C7DFA
:1024300088B007462046FFF795FF60B96E463A46DA
:102440002146304606F0ABF896E807000C2505FB60
:10245000048585E807000C23634308EB030218F8A2
:102460000300650904F01F06C8B37B1C0FD0D2F827
:1024700008E02648264A4FF4004C00210023ECFBDC
:102480000E01FEF72BFA0121381A05F0F5FA03F0D8
:10249000A9FE0120FFF700FFBFF35B8F1D4B012258
:1024A000B24003EB850353E8001F114343E80010DB
:1024B0000028F8D1BFF35B8F0C2303FB048494E85E
:1024C000070005AB83E80700134A1AB193E8070039
:1024D00006F0C2F8FFF762FF04F07CFB01200F4A10
:1024E000BFF35B8F0123B340DB4302EB850555E867
:1024F000002F1A4045E800210029F8D1BFF35B8F77
:1025000008B0BDE8F08100BF1C0D00203F420F0065
:1025100040420F00980B002059860000A80B0020B5
:102520009C0B00200B6801330B60014B1B681847A4
:10253000B8000020014B1860704700BFB8000020B1
:1025400007B50B46002102460191034801A9FEF799
:1025500035FF03B05DF804FB2525000008B54FF0FA
:102560002002EFF3118382F31288BFF36F8F00F024
:10257000A1FC034806F006F800F00AF8FCE700BFEB
:10258000A3970000014910220A60704710ED00E097
:1025900072B6404080F31188BFF36F8FBFF34F8F47
:1025A00030BF62B6BFF36F8F704700BF72B649404D
:1025B00081F3118820BF80F3118862B6704700BF95
:1025C00001B572B60B4A906900281EBF00219161C7
:1025D00006F00AFB62B6EFF30580A0F110004FEAA7
:1025E000C0000549014409C99847BDE801400349B5
:1025F000084700001C0D0020148E00002528000054
:1026000030BFFFF7FDBF00BF12498A684FF03000AE
:102610001044EFF3098C80E8F01F202080F312882B
:10262000BFF36F8F0C4F4FF00066CA698A603E603F
:10263000506F0023536780F3118804B5104600F0F3
:10264000E7FABDE8044002F1300090E8F01F8CF397
:10265000098870471C0D002004ED00E01EF0040FF7
:102660000CBFEFF30880EFF30980816911F8021CB9
:102670000229FFD001B505F0A3FF01BD43B2002B35
:1026800008DB012200F01F0002FA00F05B09024A99
:1026900042F82300704700BF00E100E0054B42090B
:1026A00000F01F0053F82220012303FA00F010402D
:1026B000704700BF00E100E070B54C1C072C0546D8
:1026C0000E460FD9114A12491248592305F05AFFF4
:1026D0001148314607232A4605F054FF0B4859217B
:1026E00005F07CFE6BB2002BACBF03F160430B4BDB
:1026F0004FEA4414B8BF05F00F05E4B2AABF03F5D2
:1027000061435C5583F8004370BD00BFCC97000067
:10271000029800006E9200001D98000014ED00E089
:102720000B4A08B50B4B22F07F029A60BFF34F8F24
:10273000BFF36F8FD3F8882022F47002C3F888208B
:1027400003F0F8F805F018FC00F0F6F903F0FCF8D7
:102750000000000000ED00E0094A0A49936809689A
:102760009967094958674B6843F080534B600023D1
:1027700083F31188BFF36F8F9368986F704700BF22
:102780001C0D00203C91000000ED00E042F8203CD0
:10279000009B42F81C3C0A49019B42F8183C029BF2
:1027A00042F8143C21F001014FF0807342F8043CE0
:1027B00042F8081C0023203A02654367704700BFB7
:1027C000A98500000B4A0346906890B113F1160FDB
:1027D000406E05D0A0F120029A4206D8834204D26E
:1027E00081422CBF0021012100E00021002908BF07
:1027F000002070471C0D002008B5094B98600D465D
:10280000144600F005FA204685F30988002163B6D6
:1028100081F31188BFF36F8F0022002305F0C4FEFF
:102820001C0D0020044B9968D869884203D00349E5
:102830004FF080520A6070471C0D002004ED00E04C
:10284000EFF30880EFF3098101B5724600F0AEF8AE
:1028500001BD00BF002080F31488BFF36F8F06F026
:1028600047FA00200D490860BFF34F8F0C4880F3F2
:10287000088800F07DF9202080F3118809484FF482
:102880000261401880F30988EFF3148002210843A5
:1028900080F31488BFF36F8FFFF742FF94ED00E0E1
:1028A000402C0020C02D0020234B70B515469A6A9D
:1028B0009A6A9A6A044690071AD5586B9A6A120661
:1028C00016D519B19A6A22F080029A629A6A9A6AB7
:1028D0009A6AD6060FD49B6A99070CD40024164A2C
:1028E000936A43F0FF03936200232B70204670BD70
:1028F0006FF01500EAE7104E73681A05EED5214611
:10290000FFF760FF044618B180F309880224E6E768
:10291000B36ADB06E2D5094A09490A4840F249137D
:1029200005F030FE084805F02DFE044840F249113C
:1029300005F054FDD3E700BF00ED00E05D98000016
:10294000979800006E920000E19800000D4B9A6A83
:102950009A6A9A6A920508D59A6B9A6A120404D503
:1029600018B19A6A22F400429A62064B9A6A9A6AED
:10297000D20558BF9A6A9A6A002042F47F429A624E
:102980000870704700ED00E0074B9A6A9A6A9A6AED
:102990009A6A9A6A9A6A9A6A6FEA02426FEA1242DD
:1029A0009A620020704700BF00ED00E070B5544B04
:1029B0005C688AB00D46C4F30804002686F31188CB
:1029C000BFF36F8F02F07F43B3F17F4F08D102F066
:1029D0000C03082B04D012075CBF054601267DB905
:1029E000484A4949494840F2F23305F0CBFD48488E
:1029F00005F0C8FD434840F2F23105F0EFFC002538
:102A000000238DF80730E31E032B72D8DFE803F0B4
:102A100002696D493A4BDC6A14F0020469D1DA6A42
:102A2000002A18DBDB6A5B004ED5AB6933F8022C59
:102A30004DF602739A420DD003F1604303F626630C
:102A40001B780BB30DF1070201212846FFF72CFF7D
:102A5000044600E02C689DF807309BB920222946E7
:102A600002A805F0E5FD099B002E44D0C3F308023F
:102A700022B96FEA53236FEA4323099302A9204640
:102A800005F09CFD0AB070BD224B1B782BB10DF1F7
:102A900007010120FFF75AFFDAE71F4B1B889BB2A3
:102AA00013B1FFF771FFD3E71C49164A174840F2EC
:102AB000C32305F067FD1A4805F064FD40F2C32109
:102AC000104805F08BFCC6E714490E4A0F4840F247
:102AD000C72305F057FD134805F054FD40F2C72108
:102AE000EEE70DF107020021AFE70DF1070100202D
:102AF000D0E70024AFE723F4FF7323F00103BCE722
:102B000000ED00E05D980000049900006E92000066
:102B10001799000029ED00E02AED00E0F09D00008B
:102B20005599000079990000024A536943F0100357
:102B30005361704700ED00E0044800232021C218D3
:102B40000133302B82F80013F9D1704700E100E027
:102B5000064A11680023C1F3072118468B4200D1B1
:102B60007047936010610133F8E700BF90ED00E01B
:102B700008B572B6002383F31388FFF7E9FF144BFF
:102B80004FF0FF32C3F88020C3F88420C3F88820B8
:102B9000C3F88C20C3F89020C3F89420C3F8982081
:102BA000C3F89C20C3F88021C3F88421C3F888218E
:102BB000C3F88C21C3F89021C3F89421C3F898215D
:102BC000C3F89C2162B6BFF34F8FBFF36F8F08BD70
:102BD00000E100E0064B9B68834207D1EFF30583D9
:102BE00023B1044A536843F08053536004F0A6BAFB
:102BF0001C0D002000ED00E0024B034A03480121B8
:102C000000F068B80000042000000020F48F0000ED
:102C1000426E054B203A1A60044A2021C3E9011292
:102C20001846012100F07EB8AC0B002000000B1507
:102C3000F0B51E4F00268E4201DB1046F0BD446801
:102C400084B353B104F1FF3C14EA0C0F18D11F2CCC
:102C500016D905681CEA050F12D1202C0568D0F89A
:102C600008C0D2B20FD9B4F1004F0ED8013CB4FA6B
:102C700084F4C4F11F046400072A4CEA040406D952
:102C80006FF01502D9E70824F6E73E24F4E725F0B3
:102C90001F05154345F0100544F00104BA60FD60BE
:102CA00001323C6101360C30C5E700BF90ED00E019
:102CB000034B05225A60BFF34F8FBFF36F8F7047EE
:102CC00090ED00E0BFF35F8F014B00225A60704728
:102CD00090ED00E038B50E4D01232A780C46FFF741
:102CE000A7FF2870163011D140F21113094A0A4982
:102CF0000A4805F047FC2146094805F043FCBDE8B9
:102D00003840044840F2111105F068BB38BD00BFDF
:102D1000B80D0020A9990000F09D00006E920000FF
:102D2000E099000010B5124A002312780C46FFF714
:102D30007FFF10F1160F08D00E4B0022072800DD90
:102D400010BD98601A610130F8E70B4A0B490C4836
:102D50004FF4987305F016FC21460A4805F012FC62
:102D6000BDE8104004484FF4987105F037BB00BF30
:102D7000B80D002090ED00E0A9990000F09D000042
:102D80006E9200000C9A0000254910B50C68082CC2
:102D900013D94FF4A473234A2349244805F0F2FBC6
:102DA00023480822214605F0EDFB1E484FF4A4718C
:102DB00005F014FB4FF0FF3010BDFFF783FF4868AC
:102DC0001C490022944200F10C0019D11A4B1C70CE
:102DD000FFF76EFF0B68C3F30723082B0ED01749CC
:102DE000104A12484FF4D47305F0CCFB144805F098
:102DF000C9FB0C484FF4D47105F0F0FA0020DBE772
:102E00008A6050F80C3C23F01F03134343F0100377
:102E1000CB6050F8043C43F001030B610132D1E771
:102E200000900000A9990000F09D00006E92000043
:102E3000399A000090ED00E0B80D00206D9A000076
:102E4000BD9A0000014B1860704700BFBC00002015
:102E50004FF02003EFF3118183F31288BFF36F8FDC
:102E60000F4A0123C2F840354FF08042C2F878354E
:102E70000C4A1268082A08D10B4A1268052A04D89D
:102E80000A48825C0AB10A4A13604FF0804301226B
:102E9000C3F8802581F31188BFF36F8F002070473E
:102EA00000E001403001001034010010ED9A0000F4
:102EB000380600404FF08043C0B2C3F81C05BFF392
:102EC0004F8F0549054BCA6802F4E0621343CB609B
:102ED000BFF34F8F00BFFDE700ED00E00400FA05EF
:102EE00020B1034B800143F001031847704700BF36
:102EF000C08F0000054A0123C2F8003508B1D36035
:102F000070471360024A1360704700BF00700040B2
:102F100004700040087970B500F01F04072C1FD81A
:102F20000B78092B1CD8DFE803F006060606061B03
:102F3000051E1B2005234A78032A18D0042A0FD126
:102F400000254A8844F20A06B24244D011D844F21D
:102F50000306B2423BD044F20506B24239D0D2B3A6
:102F60006FF0150032E00623E5E70723E3E70125CC
:102F7000E7E744F21406B2422FD044F22806B242E8
:102F80002DD044F20F06B242EAD10322C0F3401022
:102F90001B0243EA005343EA053343EA024322019A
:102FA00002F1804202F5E0420020C2F81835230108
:102FB00003F1804303F5E0438A79C3F81425C3F88D
:102FC0001005084B1C444B7984F8903070BD0022EA
:102FD000DCE70122DAE70222D8E70422D6E705225D
:102FE000D4E700BF000000202D4B1A6810B5002A5E
:102FF00048D000221A601B682A4C2B4B0121196013
:10300000C3F8F824636EC3B3E36F43B1B4F8882008
:1030100004F164019847012814D0022828D0B4F89C
:103020008830B4F884209A4222D90133A4F8883039
:103030001E4BD3F82C26D3F8341689B202EB41028A
:10304000C3F82C26A36F2BB994F87600BDE8104086
:10305000FFF750BFBFF35B8F54E8003F5A1E44E8B0
:1030600000210029F8D1BFF35B8F012BECDC10BDF0
:10307000A36F13B10E4805F01DFE0E48BDE81040C9
:1030800004F010B90C4B19680029F0D01A60064AF8
:103090001B680123136042F8083C42F8043CE6E751
:1030A00004710040000000200870004000700040E3
:1030B000080000205000002010710040F7B50D46B8
:1030C0005D484FF0FF324FF0FF3304F029F9686894
:1030D00010B96FF0150497E030F0FF02F9D1574CAA
:1030E000574F114620FA02F313F0010332D0BB18F8
:1030F00093F890C0BCF1000FEBD004EB021E6E7C85
:10310000DEF81835003E18BF012623F0807343EA2D
:103110000663CEF8183502F151031B01013144F862
:1031200003C0C9B20132082ADCD12B7C083B062B34
:10313000CFD801A252F823F01D320000D330000096
:103140005F310000D330000015320000D3300000A2
:103150001932000002F151063601A351E2E70122C3
:10316000364B0129C3F8F0256A7C59D9002AB0D121
:10317000C3F8F4252A684B0012B1928902FB03338D
:10318000EA689A4254D32D4BAA68C3F82C262F46DE
:10319000C3F830160FCF2A4C04F164060FC63B6803
:1031A00033602B6800262666002B3CD00FCB04F141
:1031B000780585E80F006566A4F8886098B3BFF3CA
:1031C0005B8F54E8003F44E80062002AF9D1BFF366
:1031D0005B8F1C48A66F1C4A4FF40045002100235A
:1031E000E5FB0601FDF77AFB0022CDE90001002393
:1031F00004F1080004F060FE14484FF0FF324FF075
:10320000FF3304F08DF8246E0B4804F04BF8204691
:1032100003B0F0BD0222A3E70322A1E700229FE74B
:10322000082AA5D955E794F87600FFF763FEE3E78F
:103230006FF00B04E8E700BF400000200070004082
:10324000000000203F420F0040420F0050000020CD
:103250000D4B10B500241C601B680C4B1C601B68D8
:103260000B4B1222C3F804230720FFF707FA22466C
:1032700001210720FFF720FA0648836C13B940307C
:1032800004F010F8002010BD0471004010710040DF
:1032900000700040000000202DE9F041104C071B99
:1032A000C7F347174FF00C0808FB07F8064608F16C
:1032B00048000D462044402105F003FA011E09DBB9
:1032C000084B4444C4E91035074B53F83730BDE888
:1032D000F041184730462B46BDE8F041184700BF83
:1032E000C80B0020258700004490000038B5CCB200
:1032F000012C054609D9094909480A4A792305F0EC
:1033000041F90848792105F069F82B690C2104FB83
:103310000134A06C00F0070038BD00BF309B0000F6
:103320006E920000F39A0000F8B5CCB2012C076948
:10333000054616460BD918491848194A40F24D134C
:1033400005F020F9164840F24D1105F047F84FF00E
:103350002003EFF3118283F31288BFF36F8F0C23E6
:1033600003FB0471896C11F0C00101D08E4210D1B1
:1033700003FB047301219964002082F31188BFF3D9
:103380006F8F28B9696801EBC4046368984700200F
:10339000F8BD4FF0FF30F0E7309B00006E92000068
:1033A000F39A000070B50D460649411A04464911CA
:1033B00005484022FFF7B8FF2B4601462046BDE8EE
:1033C00070401847C80B00206C8D0000002270B5BB
:1033D000012104461046FFF76FF90020FFF74EF970
:1033E0000F4801F0BFF80F4B984215D101F0DEF8FD
:1033F00026690D49304605F0B0F800280BDB0125A1
:10340000B5642469084904F1200005F0A6F80028F5
:1034100001DB6565002070BD6FF00400FBE700BFB5
:10342000613400000000AD0B5490000001460C23F5
:1034300009484B4370B5C418D4E9105600224833EC
:103440002264184405F05BF92DB132462B4603483F
:10345000BDE87040184770BDC80B00206C8D00009F
:10346000012808B506D0032808D0A8B9104B9B6CDA
:103470005B071BD1BDE80840FFF7D8BF0D490E4AD6
:103480000E4840F25E2305F07DF840F25E21BDE873
:103490000840094804F0A2BF0649074A074840F21D
:1034A000622305F06FF840F26221F0E708BD00BF2B
:1034B000C80B0020F09D0000F39A00006E920000FF
:1034C00008B54FF02003EFF3118183F31288BFF3A7
:1034D0006F8F124A136843F0020013F0010310606B
:1034E0000CD04FF08042D2F80C34D2F80C2413F0F8
:1034F000010303D00A4805F002F9012381F3118882
:10350000BFF36F8F23B1BDE808400020FFF78EBFE7
:10351000BDE80840012001F069B800BF200C002080
:10352000100C0020094BBFF35B8F53E8002F22F0F3
:10353000020143E800100028F7D1BFF35B8FD307E7
:1035400002D4012001F0A6B8704700BF200C002073
:103550001FB500220123CDE90223094ACDF800D08E
:103560006B46CDF804D005F0EFF8002805DB4FF4EA
:1035700080420023684603F0D3FE05B05DF804FBEB
:10358000438700002DE9F8434949BFF35B8F0546A7
:10359000012251E8003F41E800200028F9D1BFF3A3
:1035A0005B8FA3B9434944484B60CB608A60FEF708
:1035B000DBFD00280BDA41494148424A4FF40873C9
:1035C00004F0E0FF3F484FF4087104F007FFADB38B
:1035D0006B1E012B56D8012D07D14FF08043D3F835
:1035E0001C3403F00303012B28D005F053FB0446E1
:1035F00018B9354B1B78002B52D14FF02003EFF355
:10360000118683F31288BFF36F8F01242F4FDFF8E9
:10361000C480DFF8C4904FF08042D2F81834D2F85A
:103620001824D2030CD503F00303012B01D0012D84
:1036300006D10CB386F31188BFF36F8FBDE8F88312
:10364000ACB13046FEF7B2FF4FF08042D2F81835E9
:10365000002BE0D139680029DDD03B603B680123B5
:10366000C2F81835C8F88031C9F80030D3E7002116
:10367000212003F025FDE7E74FF080430222C3F845
:103680000423DBE712490E480E4A40F2322304F0CD
:1036900079FFBDE8F8430B4840F2322104F09EBEAA
:1036A0004FF080430222C3F808230646AEE700BF6E
:1036B000240C0020B80B0020E80B0020549B0000D5
:1036C0006E920000F39A0000C9110020040100402E
:1036D000F09D000000E100E00800004008B5084B44
:1036E0000848186005F076FA38B10748FFF7AAFBDA
:1036F0000548FEF71FFF002008BD6FF01200FBE732
:10370000280C0020CC8D00000D3700000A2838B5A9
:10371000074D044604D1286883680D215B689847EB
:1037200028688368E1B25B689847204638BD00BFCF
:10373000280C002070B5056916460C4661B922496F
:10374000224A2348242304F01DFF224804F01AFFD4
:103750001E48242104F042FE636863B91E491B4AD7
:103760001B48252304F00EFF1C4804F00BFF1748EC
:10377000252104F033FE6B685BB100229C4213D11B
:1037800023685AB9AA686B60944200D1AB600023E9
:10379000236076B9002070BD0B46EFE71360AB687D
:1037A0009C4208BFAA60F2E719681A460029F3D1C3
:1037B0003EB16B682360A8686C600028EAD1AC60F9
:1037C000E9E76FF01500E6E7909B0000639B0000BF
:1037D0006E920000999B0000A89B0000BA9B00001D
:1037E00043092DE9F04703D0012B36D0BDE8F0871F
:1037F0001B4F3B695C68002CF8D02568DFF86C80B3
:10380000DFF86C90DFF86CA000F01F000126002D9F
:1038100006FA00F638BF0025A3681E4214D063687C
:1038200063B9494645234246504604F0ABFE0D4875
:1038300004F0A8FE4521404604F0D0FDD4E9013251
:103840002146324038469847002DCFD02B68002BB8
:1038500038BF00232C461D46DEE7034FC9E700BFF3
:10386000848D0000BA9B00009C8D0000639B0000CB
:10387000D19B00006E9200007FB54068057B01F08F
:103880001F04B2F5005F44EA45144FF0000504D16F
:10389000204601F097FA002054E0B2F5804FCDE9C0
:1038A000025551D1B3F5003F0CBF042305238DF819
:1038B0000830836823FA01F111F0010155D1B2F506
:1038C000A03F52D166094AD04FF6FF73012E08BFC0
:1038D000194604F01F05E940CA070BD42B492C48B0
:1038E0002C4A40F2292304F04DFE2A4840F22921B7
:1038F00004F074FD6EB1012E34D027492448254AC6
:1039000040F22E2304F03EFE224840F22E2104F025
:1039100065FD4FF0A04305F5E07553F82530DB0752
:1039200023D40DF107052946204601F075F91B4BFC
:10393000984219D1284601F0CFF9194B984213D07B
:103940006FF00B0004B070BDB3F5C02F05D0B3F518
:10395000003F0CBF02230123A9E70323A7E74FF091
:10396000FF31B6E70F4BD6E703950023194602AAAD
:10397000204601F033F80A4B984204D10121204639
:1039800001F0B0F987E76FF00400DBE7109C00005E
:103990006E920000DD9B0000F09D00000400AD0B66
:1039A0000000AD0B0003005010B501F085F904468E
:1039B00068B901F059F9084B98420AD107482146E5
:1039C00001F024F9224605210620FEF775FE0020AD
:1039D00010BD6FF00400FBE70000AD0BE137000005
:1039E0002DE9F04347683B7B01F01F0585B00E468B
:1039F00045EA43151446CAB902A9284601F00CF954
:103A00000446284601F000FA484B984204D06FF073
:103A1000040005B0BDE8F083844205D19DF808009C
:103A200001F054F9A042F2D10020F2E74FF0000972
:103A30000DF103013046CDE9029901F0EDF84B4656
:103A4000804602AA4946284600F0C8FF374B9842F4
:103A500002D06FF01500DCE7804503D19DF803002C
:103A600001F034F9A3054ED5314B324A234093423D
:103A70003AD00CD8062B14D004D893B1022BE8D13D
:103A800004230EE0B3F5801FE3D1012309E02A4AA5
:103A900093422BD0B3F5A00F2AD0B3F5800FD8D125
:103AA00002238DF8043084F48073C3F30023E0060E
:103AB0008DF8053054BFC4F34013032321058DF85E
:103AC000063017D57B68012101FA06F6C3F80865B0
:103AD000002201A9284601F029F8144B984214BF8E
:103AE0006FF01500002094E70723DAE70523D8E7F5
:103AF0000323D6E7620541BF7B68012101FA06F680
:103B0000C3F80C65E4E7E3064FF0000354BFC4F3C9
:103B1000401403241A4601A928468DF8044000F0F9
:103B20005DFF024B98423FF47FAF92E70000AD0B80
:103B30000600F000060010000200400002480021CC
:103B4000C2E90001002070470024F40002464068EA
:103B5000126938B500F10803043200F10C0419466B
:103B600013F9015B002DB4BF00254FF40045A342BB
:103B700022F8025BF4D100231A4601F007FB034B45
:103B8000984214BF6FF00F00002038BD0000AD0B4D
:103B90000268530910B504462CD0012B4FF6FF7371
:103BA00018BF002302F01F02D340DB070BD41449D7
:103BB0001448154A40F2292304F0E4FC124840F26C
:103BC000292104F00BFC236803F01F025B0922602B
:103BD0000DD0012B11D00D490A480B4A40F22E237B
:103BE00004F0D0FC084840F22E2104F0F7FB4FF01F
:103BF000A04010BD4FF0FF33D4E70548F9E700BF00
:103C0000109C00006E920000DD9B0000F09D000003
:103C100000030050F0B54B79012B26D0032B21D1A6
:103C200010268B79032B1DD1CC790CB1012C19D125
:103C30000A7912B1022A15D10E220B684568B3F534
:103C4000164F2D6865D02DD8B3F5165F64D016D801
:103C5000B3F5966F62D00AD8B3F5967F61D0B3F50D
:103C6000167F61D06FF0850052E00026D9E7B3F5EA
:103C7000166F5CD0B3F5965FF4D1374B3CE0B3F5EB
:103C8000E14F57D007D8B3F5615F55D0B3F5964FE4
:103C9000E8D1324B30E047F61227BB42E2D14FF475
:103CA000000329E0B3F5613F48D013D8B3F5963F40
:103CB00047D009D84DF6C027BB4244D0B3F5614F79
:103CC000D0D14FF46B0317E0B3F5E13FCAD14FF009
:103CD000EB7311E0B3F5612F38D008D8204FBB4209
:103CE00037D0B3F5E12FBDD14FF0E86304E01D4FAD
:103CF000BB42B7D14FF08053C5F82435036903C9DF
:103D0000344322430433C5F86C2583E803000020C4
:103D1000F0BD4FF41D03EFE7134BEDE74FF49E2387
:103D2000EAE74FF4A033E7E74FF41C33E4E74FF43E
:103D30001D23E1E70D4BDFE70D4BDDE74FF06C7323
:103D4000DAE70C4BD8E74FF46503D5E74FF0706323
:103D5000D2E74FF08063CFE700B0130000A04E0021
:103D600090D0030040420F000050270000C07500B3
:103D700000F03A0000903A010268530910B5044679
:103D80002CD0012B4FF6FF7318BF002302F01F0247
:103D9000D340DB070BD414491448154A40F22923B9
:103DA00004F0F0FB124840F2292104F017FB2368CD
:103DB00003F01F025B0922600DD0012B11D00D49C9
:103DC0000A480B4A40F22E2304F0DCFB084840F27C
:103DD0002E2104F003FB4FF0A04010BD4FF0FF3345
:103DE000D4E70548F9E700BF109C00006E92000080
:103DF000DD9B0000F09D000000030050F8B506694F
:103E000005460F4604F046FF10B92C4B1B7883B9CA
:103E10004FF02003EFF3118483F31288BFF36F8F09
:103E2000284604F0E9FD28BB84F31188BFF36F8FA7
:103E3000EEE76424284604F0DFFD70B9012004F0A9
:103E40002DFE013CF6D10021212003F039F9F0E7E5
:103E500084F31188BFF36F8FF5E74FF02003EFF382
:103E6000118483F31288BFF36F8F284604F0C4FDDA
:103E70000028EDD006F8107F69680B680122C3F8AE
:103E80004465C3F848250022C3F82021D3F8200157
:103E9000C3F85821D3F858214A68D20641BF0822F6
:103EA000C3F800254FF48002C3F8042301229A606E
:103EB00084F31188BFF36F8FF8BD00BFC9110020D4
:103EC0002DE9F743D0F804800769D8F800400023B3
:103ED000C4F8003538604568EB680646581C13D0B6
:103EE00001A80193FFF748FF019A01239340C0F80E
:103EF0000835EB68019301A8FFF73EFF019B03F52E
:103F0000E073032240F823202B69591C11D02A7F2B
:103F10000193002A01A814BF4FF003094FF00009D4
:103F2000FFF72AFF019B03F5E0734FEA890240F88F
:103F300023206B695A1C13D001A80193FFF71CFFC3
:103F4000019A01239340C0F808356B69019301A8D9
:103F5000FFF712FF019B03F5E073032240F82320D3
:103F6000AB69581C11D06A7F0193002A01A814BFC5
:103F70004FF003094FF00009FFF7FEFE019B03F528
:103F8000E0734FEA890240F82320D5E903122B6839
:103F9000C3F80C15C3F81425D5E90512C3F80815A4
:103FA0003169C3F8102504313046FFF733FE05466A
:103FB000002846D1D8F80430990719D507F1120026
:103FC00001F020F8224B98423FD1B87CC30003F1A6
:103FD000804303F5F83304F10C0204F59071C3F843
:103FE0001015C3F814251B4A01238340C2F8043579
:103FF0000823C4F8003598F808305BB9C4F81031CC
:10400000D4F8103107F11103C4F834350123C4F892
:1040100038352360D8F804309A075CBF4FF48072BB
:10402000C4F80423DB0644BF4FF48003C4F8043310
:1040300010370023C4F84475C4F848350123A36041
:10404000E360284603B0BDE8F0836FF00405F8E7AD
:104050000000AD0B00F00140194970B5044622F094
:104060007F460868C1E90023A6F50013101AB3F5CE
:10407000400F4FF000050AD2124B19680A060B0ACE
:104080009219114943F10003C1E90023012503F00E
:1040900043FDA30003F1804303F58833D3F84025A3
:1040A000B2420BD11DB94FF40002C3F84025074BB3
:1040B0004FF4803000FA04F4C3F8444370BD00BFED
:1040C000E00400205C0C0020C80400200010014027
:1040D00010B501238340114ABFF35B8FDC4352E8E4
:1040E000001F01EA040C42E800CEBEF1000FF6D139
:1040F000BFF35B8F4FF4803202FA00F002F180428E
:1041000002F58052C2F80803BFF35F8FBFF36F8FD1
:104110000B4214BF0120002010BD00BF580C00202E
:104120000123124ABFF35B8F834052E8001F1943FB
:1041300042E8001CBCF1000FF7D1BFF35B8F0C4AC3
:104140004FF480338340C2F804330A4BBFF35B8FD4
:104150001B68BFF35B8F23FA00F0C30742BF064B17
:104160004FF40032C3F80021704700BF580C002004
:1041700000100140540C002000E100E00D4B1B68D2
:10418000190A1806BFF35F8F0B4BD3F80435C0181C
:1041900041F10001B3F5801F0AD2084BD3E9002397
:1041A000994208BF904203D210F1807041F10001A2
:1041B000704700BF5C0C002000100140C8040020C4
:1041C0002DE9F04F85B016461F460546FFF780FFE4
:1041D0000190FFF7D3FFB94208BFB0427FD2B6EBE0
:1041E000000867EB010900234FF080724B4508BFC0
:1041F0004245C0F08580444B03EB0513D3E902230D
:104200009F4208BF964254D04FEA85094FF4803B45
:1042100009F1804905F150080BFA05F209F58839D2
:104220004FEA88081FFA88F80292384AD9F8400500
:1042300026F07F4308F1804808F588381C469346ED
:10424000D2F804A5A0EB0A0020F07F402AF07F41BD
:104250000128C9F8401505D10393132004F026FD69
:104260002A4A039B02990AF1020CA4EB0C0020F0ED
:104270007F40B0F5000F88BF64460020C8F80000FA
:10428000D8F80000CBF8441324F07F40C9F840056B
:10429000DBF80405824506D0201A023820F07F4062
:1042A000B0F5000F19D8E41A24F07F44321947F111
:1042B0000003154C290104EB0510C0E902230E9AF6
:1042C0000F9B625043600024019B13B12846FFF707
:1042D00027FF204605B0BDE8F08F2046B0E7012358
:1042E0000B4ABFF35B8FAB4052E8001F194342E813
:1042F00000100028F8D1BFF35B8F32463B46D8E769
:104300006FF01504E0E700BFD0040020001001406A
:10431000540C002073B5194B194D00244FF0FF3099
:104320004FF0FF31C5F80845C3E902014FF480336F
:10433000C5F80433134B02264FF400320121C5F8AF
:1043400004631120C3F880212246FEF7B5F911203D
:10435000FEF794F90C4A012313600C4A2B6013609A
:104360000B4B0C4A0093019400232046FFF728FFD3
:104370003046FFF707F9204602B070BDD004002098
:104380000010014000E100E008100140580C00203E
:1043900059400000FFFF7F002DE9F743344CD4F86B
:1043A00004339A0709D5334B1A6832B100221A60D8
:1043B000314A1B681368013313604FF02003EFF399
:1043C000118283F31288BFF36F8FD4F80433DB03B9
:1043D00012D5BFF35B8F294B53E8001F21F001007A
:1043E00043E80006002EF7D1BFF35B8F244B002972
:1043F00036D11968002933D1002382F31188BFF325
:104400006F8F53B3FFF7BAFE06464FF02003EFF36A
:10441000118083F31288BFF36F8F1A4BD3E902899F
:10442000494508BF46454FF000021ED34FF0FF3606
:104430004FF0FF37D3E90015C3E902671A604FF464
:104440008033C4F8483380F31188BFF36F8F21B1F4
:10445000009542464B460020884703B0BDE8F083F4
:10446000002119601B680123C7E71146EBE700BF75
:1044700000100140041101405C0C0020540C00208D
:1044800040110140D0040020144B13B5B0F1FF3FA0
:1044900008BF1846441E002C1EDD9C42A8BF1C46C7
:1044A000FFF76CFE0E4B0F49D3E90023801AB0F5DD
:1044B000000F28BF002401300444084800918442C2
:1044C00028BF044612194FF00000019043F1000389
:1044D000FFF776FE02B010BD0024E1E7FFFF7F008A
:1044E000E00400205940000008B5FFF747FE024BEA
:1044F0001B68C01A08BD00BFE004002008B578B1F1
:1045000001281CD0144A154915484FF44F7304F084
:1045100039F811484FF44F7103F060FF00200DE0AF
:1045200031B14FF08043D3F8183403F003030B602C
:104530004FF08043D3F81804C0F3004008BD31B1F8
:104540004FF08043D3F80C3403F001030B704FF0AD
:104550008043D3F80C04EFE7489C0000F09D000076
:104560006E92000010B5044648B90A490A480B4A41
:10457000BD2304F007F80948BD2103F02FFF084BC5
:104580001A7922B9012207481C609A8010BD06489A
:10459000FCE700BFB99C00006E9200007C9C00000C
:1045A000600C00200000AD0B0C00AD0B08B50B4BF0
:1045B0001B794BB90A490B480B4AD62303F0E2FF9B
:1045C0000948D62103F00AFF0020FEF767F818B962
:1045D000BDE80840FEF752B808BD00BF600C0020DF
:1045E000C79C00006E9200007C9C0000224B1B794F
:1045F00013B504465BB921492148224A4FF4897317
:1046000003F0C0FF1F484FF4897103F0E7FE74B157
:10461000012C27D01B4A1C4919484FF4A27303F000
:10462000B1FF18484FF4A27103F0D8FE16E001A9BB
:104630002046FFF763FF4FF0804388B1019A012ABB
:104640000ED1C3F81825114B00221A601B684FF0D9
:1046500080430222C3F8042301229A6002B010BDF5
:104660000022EEE70A4B00221A601B684FF08043DD
:10467000C3F804431C60F1E7600C0020C79C0000F5
:104680006E9200007C9C0000F09D00000401004040
:104690000001004037B52F4D2A7904465AB92E49FA
:1046A0002E482F4A40F24B1303F06CFF2C4840F287
:1046B0004B1103F093FE7CB1012C28D029492748E7
:1046C000274A40F2671303F05DFF254840F2671167
:1046D00003F084FE03B030BD4FF080430222C3F8E4
:1046E0000823C3F8044103F5827301221B681E4BA3
:1046F00042F210741A6000210846FFF7FFFE0028FE
:10470000E8D0012004F0CAF9013CF4D1E2E74FF00F
:1047100080430022C3F80843C3F8002103F58073E7
:104720001B68124B1C608DF8074042F210740DF1AB
:1047300007010120FFF7E2FE10B900236B71C9E702
:104740009DF807000128F8D104F0A8F9013CEED14A
:10475000F3E700BF600C0020C79C00006E920000D1
:104760007C9C0000F09D00000C0000400400004014
:10477000164B07B51A686AB100221A601B684FF021
:1047800080430122C3F80823114B587910B95A719C
:104790001B6898470F4B1A686AB10020186001A97E
:1047A0001B68FFF7ABFE019A4FF0804332B901223C
:1047B000C3F818259A6003B05DF804FB0222C3F821
:1047C0000823034B01201B689847F4E700010040D1
:1047D000600C00200401004070B501250368B3FAA5
:1047E00083F2202AC2F11F0414D0BFF35B8F05FAB5
:1047F00004F223EA020250E8006F9E4204D140E82E
:10480000002CBCF1000FF6D1BFF35B8FE6D102485C
:104810000C7070BD0148FCE70000AD0B0200AD0B51
:104820000368CB40DB0710B515D4012303FA01F16F
:104830000368BFF35B8F41EA030250E8004F9C42DC
:1048400004D140E8002CBCF1000FF6D1BFF35B8F20
:10485000EED1024810BD0248FCE700BF0000AD0BDE
:104860000400AD0B054B083033F8100000F02200B7
:10487000A0F1220358425841704700BFE8000020D1
:1048800070B500F108030C4C34F81330DA05054616
:104890000E4607D5C3F3432304EBC30254F8333069
:1048A00052689847A3682BB1E26831462846BDE8B4
:1048B0007040184770BD00BFE8000020194B083059
:1048C00010B533F81020D1051DD5C2F3432122F4D1
:1048D000F85223F8102003F11004002034F8022BC2
:1048E00012F4807F03D0C2F3432291420BD00130F7
:1048F0003028F3D1002243F831200B48FFF790FF16
:104900000A4B984200D110BD09490A480A4A4FF49F
:10491000997303F037FEBDE8104007484FF49971D2
:1049200003F05CBDE80000205C0100200000AD0B3E
:10493000499D00006E920000E59C000038B50A4CCD
:1049400000F1080534F815309A0606D55B0B074AC6
:1049500003F5A273002142F82310FFF7AFFF0023F5
:1049600024F8153038BD00BFE8000020006000408A
:1049700010B50446006804F093F858B9124913487A
:10498000134A40F2292303F0FDFD114840F229218A
:1049900003F024FD236803F01F025B0922600DD0A1
:1049A000012B0ED00B490948094A40F22E2303F08F
:1049B000E9FD074840F22E2103F010FD4FF0A04022
:1049C00010BD0548FCE700BF109C00006E9200007F
:1049D000DD9B0000F09D000000030050F0B5044690
:1049E00085B017461D46F1B1FFF73CFF10B14A48AC
:1049F00005B0F0BD0B46CDE900008DF80E008DF836
:104A00000F000DF10F020DF10E01204604F05DF8CC
:104A1000424A04F1080132F8113023F0020343F056
:104A2000010322F8113097B13C4B3E787A6804F1CB
:104A3000080033F810108F070CD5002AD7D133F8AF
:104A4000102022F01C0242EA860223F81020CDBB7F
:104A50003348CDE721F02001C904C90C23F8101018
:104A6000002AECD0032EC2D817782EB92D4A07F5AC
:104A7000A27142F82160E2E7BA0002F1804202F539
:104A8000C04241EA4731D2F810C52CF0030CC2F8FD
:104A900010C5D2F810C52CF44F3C2CF4407CC2F861
:104AA00010C5D2F810E54FEA042C0CF47C5C4EEAF9
:104AB000064E4CEA0E0C41F0200123F81010C2F80B
:104AC00010C5BCE7D5E900672046FFF7F7FE002ECA
:104AD000BED0124D2B689E4204D16B689F4201D11B
:104AE00000220AE010480DF10F01FFF775FE0C4B94
:104AF00098427FF47DAF9DF80F2045F8326005EBBA
:104B0000C20308345F6035F8143043EA422343F4AB
:104B1000807325F814309BE70400AD0BE8000020FB
:104B20000000AD0B006000405C010020F0B50446C1
:104B300085B0154609B300F10807314E36F8173035
:104B4000980701D49A0658D413F01C0F02D04B7862
:104B5000012B52D001238DF80F300023CDE9001333
:104B60004A1C8B1C20460DF10F0103F0AEFF36F8F6
:104B7000173043F0030326F8173015B9214805B064
:104B8000F0BD1F4E04F1080736F81700830734D52F
:104B900095F800C06146890020F0200001F18041B5
:104BA000C00401F5C041C00C26F817000023C1F86D
:104BB00010356A78002AE1D0D1F81035AD7823F4A9
:104BC000991323F4F853C1F81035D1F810E52302F6
:104BD00003F47C53120443EA0E0302F440322D0521
:104BE000134305F4801540EA4C302B4340F020007D
:104BF00026F81700C1F81035C0E70348BFE700BF2B
:104C0000E80000200000AD0B0400AD0B014BC3E930
:104C100002017047E800002038B504460D4659B936
:104C20000B490C480C4A40F2352303F0ABFC0A4810
:104C300040F2352103F0D2FB0834084B33F814302E
:104C40009A0643BF5B0B2B700548064838BD00BF72
:104C50005D9D00006E920000E59C0000E8000020D1
:104C60000000AD0B0400AD0B38B50E4C94F8785035
:104C7000B5B96022294604F1100003F0E4FC0620D7
:104C8000FDF7FCFC084B09481D601B68084B4FF002
:104C90000042C3F80423012384F87830636738BDE9
:104CA0000448FCE7E80000207C6100400000AD0BF8
:104CB000006000400500AD0B034B93F8780000380E
:104CC00018BF0120704700BFE800002001460148DE
:104CD000FFF7A6BD5801002001460148FFF77CBD43
:104CE00058010020F7B5314D00F10807044635F8AA
:104CF000173013F01C0F0E460BD12D492D482E4AAC
:104D000040F2DF3303F03EFC2B4840F2DF3103F08A
:104D100065FB35F8170083061FD510F002031CD180
:104D2000410B084603F0CDFE00F1804000F5C04085
:104D3000036003688B0003F1804303F5C043D3F89D
:104D4000102542F00102C3F8102526B11B4A0123A9
:104D50008B40C2F8043303B0F0BD5EB91849154862
:104D6000154A40F2EE3303F00DFC134840F2EE31E9
:104D700003F034FB35F81730C3F38203042B10D053
:104D8000052B10D001A80194FFF7F2FD019BD0F88C
:104D90001015D94001F001010231204603F0E0FE78
:104DA000D9E70321F9E70221F7E700BFE800002077
:104DB000679D00006E920000E59C000000600040CE
:104DC0007C9D00000E4B00F1080233F8123099066A
:104DD00013D59A0711D45B0B01229A409B00094915
:104DE00003F1804303F5C043C1F80823D3F810252D
:104DF00022F00302C3F810257047002103F0B0BE73
:104E0000E8000020006000400E4B00F1080213B5DE
:104E100013F81230DB07044611D5FFF7D3FF204605
:104E2000FFF78CFD01A80194FFF7A2FD019B03F59C
:104E3000E073022240F82320034802B010BD03486B
:104E4000FBE700BFE80000200000AD0B0400AD0B45
:104E50002DE9F04F654B66486649002589B001226F
:104E60002C461E6836B1D0F8046316421EBF1C6083
:104E70001E68154304338B424FEA4202F1D15E4F64
:104E80003B687BB34FF0A0435C4ED3F820250692DD
:104E9000C3F82025D6F820350793C6F820350196AB
:104EA0000DF118094FF000084FF0010BD9F8003050
:104EB000F3B908F12008B8F1400F09F10409F5D160
:104EC0003B603B6801994FF0A043D3F82025069240
:104ED000C3F82025019BD3F820350793C1F820356E
:104EE0001343DDD10124002D68D109B0BDE8F08F56
:104EF00093FAA3F3B3FA83F308EB030606F108026F
:104F00003F4B059633F81220C2F38203F408029354
:104F10009A4606AB06F007000BFA00FC185D20EA83
:104F20000C001855910805A80391FFF721FD059C79
:104F3000039904F5E0744B0750F82440C4F301448E
:104F400023D551463046FFF79BFC05A80596FFF791
:104F50000FFD059A02F5E072E4B250F82220C2F388
:104F60000142944207D10021304603F0F9FD214669
:104F7000304603F0F5FD05A80596FFF7F9FC059B03
:104F80000BFA03F3C0F8203590E7022C0CBF032185
:104F90000221304603F0E4FD029B032B04D0022CD7
:104FA00007D1BAF1010FE6D151463046FFF768FC50
:104FB000E1E7032CDFD1BAF1020FF4E795FAA5F38C
:104FC000B3FA83F304FA03F29B0003F1804303F581
:104FD000C04325EA0205D3F81005D3F81015C0F335
:104FE0000520C1F30141FFF74BFC7CE70061004065
:104FF00000600040206100407C61004000030050E0
:10500000E800002001460148FFF7E6BB64010020EC
:105010002DE9F04104460E4615465AB93249334847
:10502000334A40F2A72303F0ADFA314840F2A721FA
:1050300003F0D4F92F685FB92E492C482C4A4FF45D
:105040002D7303F09FFA2A484FF42D7103F0C6F92F
:1050500004EB4618C8F82075AF88002F38D12649D0
:10506000234A224840F2BD2303F08CFA40F2BD21CE
:105070001F4803F0B3F9C8F82475AF68B7F1807F13
:105080000BD31E4919481A4A40F2C72303F07AFA93
:10509000174840F2C72103F0A1F9ED684FEA46181E
:1050A00004EB4616B5F1807FC6F828750BD314497A
:1050B0000E480F4A4FF4347303F064FA0C484FF46F
:1050C000347103F08BF94444C4F82C55BDE8F081E9
:1050D0003B04D0D50B49064A044840F2BE2303F0F6
:1050E00051FA40F2BE21C3E7B99D00006E92000064
:1050F000879D0000CE9D0000E69D0000109E0000F0
:10510000319E0000F29D00000268530910B504466C
:105110002CD0012B4FF6FF7318BF002302F01F02A3
:10512000D340DB070BD414491448154A40F2292315
:1051300003F028FA124840F2292103F04FF92368BE
:1051400003F01F025B0922600DD0012B11D00D4925
:105150000A480B4A40F22E2303F014FA084840F2A2
:105160002E2103F03BF94FF0A04010BD4FF0FF336C
:10517000D4E70548F9E700BF109C00006E920000DC
:10518000DD9B0000F09D0000000300502DE9F04F72
:10519000064687B0914698460C4649B959495A483F
:1051A0005A4A8C2303F0EEF958488C2103F016F983
:1051B0003779574D0C2179436B181A7A002A40F041
:1051C0009F80227B45F80190C3F804809A72002AE0
:1051D0004DD0637B002B4AD0D6F80080B4F80890FD
:1051E0000123C8F80035B4F9083094F805B094F8F4
:1051F00006A0002B0BDA47494348474A4FF4277370
:1052000003F0C0F944484FF4277103F0E7F8C8F8F9
:105210000CB53068C8F804A5C8F808956389C0F8CB
:1052200010350023C0F80032C0F80033C0F81C313C
:10523000D0F81C21C0F81031D0F81021C0F814317A
:10524000D0F81421C0F80431D0F804310C237B438A
:10525000EB581BB140F30730FDF710FA0C2303FBAA
:1052600007552E4801232B7207B0BDE8F08F04F1DB
:10527000FF390DF1080804F1030A19F8012FFF2A7C
:1052800039D0217B22F0800BC8F800B0B1B91306E9
:10529000CDF804B001A826D4FFF736FF019901220A
:1052A0008A40C0F80C2501A8CDF804B0FFF72CFF08
:1052B000019B03F5E073032240F82320D14508F158
:1052C0000408DAD1637B002B86D13368029AC3F8D5
:1052D0006025039AC3F86425049AC3F86825059AE3
:1052E000C3F86C2578E7FFF70FFF019901228A4088
:1052F000C0F80825D7E74FF0FF33C8F80030DDE7E6
:105300000748B1E78F9E00006E920000549E000097
:10531000680C0020989E0000879D00000000AD0BE7
:105320000500AD0B2DE9F041984603791446314A4A
:105330000E4603EB430102EB81070C2101FB032323
:1053400005461B7A5BB92C492C482D4A4FF49673BD
:1053500003F018F92A484FF4967103F03FF85CB94E
:1053600028492648264A40F22D1303F00BF9244819
:1053700040F22D1103F032F8336803F06043B3F1CB
:10538000005F0BD020491D481D4A4FF4977303F06E
:10539000F9F81B484FF4977103F020F8286832465B
:1053A0000021FFF735FE286832460121FFF730FE65
:1053B000286804F0010303EB540418F0010FC0F84F
:1053C000144514D118F0020203D0002B14BF082298
:1053D0000422002BC0F8002239465FFA88F218BF79
:1053E0000C23BDE8F04108BF082303F0C8BB10221E
:1053F000EFE700BF680C0020B99E00006E9200002D
:10540000549E0000E59E0000F89E000070B5124E0C
:1054100004790C2202FB04620546127A5AB90F493C
:105420000F48104A4FF4D57303F0ACF80D484FF411
:10543000D57102F0D3FF0C232A6803FB0464237A9E
:10544000D2F80421DBB21AB9981E18BF012070BD32
:1054500001202072FBE700BF680C0020B99E00000D
:105460006E920000549E000038B5144A03790D4630
:105470000C2101FB032304461B7A5BB91049114838
:10548000114A40F2851303F07DF80F4840F2851170
:1054900002F0A4FF23680022C3F8002201225A6010
:1054A0002046FFF7B3FF38B92046FFF7AFFF18B922
:1054B000002DF9D1284638BD0125FBE7680C0020F6
:1054C000219F00006E920000549E0000034B18685C
:1054D000A0F1080358425841704700BF3001001046
:1054E000064B1B68082B06D1054B1B68052B02D801
:1054F000044AD05C70470020704700BF30010010A4
:10550000340100106C9F0000024AD2F80034002BD6
:10551000FBD0704700E0014010B5FFF7D7FF40B166
:105520004FF080430022C3F80C21C3F81021C3F8C8
:105530003825FFF7CBFF002846D04FF080525B4B59
:10554000D2F80414C3F82015D2F80814C3F82415AF
:10555000D2F80C14C3F82815D2F81014C3F82C157F
:10556000D2F81414C3F83015D2F81814C3F834154F
:10557000D2F81C14C3F84015D2F82014C3F844150F
:10558000D2F82414C3F84815D2F82814C3F84C15DF
:10559000D2F82C14C3F85015D2F83014C3F85415AF
:1055A000D2F83414C3F86015D2F83814C3F864156F
:1055B000D2F83C14C3F86815D2F84014C3F86C153F
:1055C000D2F84424C3F87025FFF78AFF10B1384B96
:1055D000384A1A60FFF784FF18B1374BFB22C3F833
:1055E0001825FFF77DFF48B13449354B0A681B6821
:1055F00022F00F0203F00F0313430B60FFF770FF5D
:1056000018B1304B4FF400721A60FFF75FFF48B1DA
:105610004FF08043D3F80024D20744BF6FF001025B
:10562000C3F80024284B1B68082B0ED1274B1B689E
:10563000052B02D8264AD35C3BB14FF01023D3F898
:1056400008224FF08043C3F858254FF01023D3F8B9
:105650000022002A03DBD3F80432002B22DA1D4992
:105660000123C1F80435FFF74FFF4FF0102012243B
:10567000C0F80042FFF748FFC0F80442FFF744FFBC
:105680000023C1F80435FFF73FFFBFF34F8F1249E6
:10569000124BCA6802F4E0621343CB60BFF34F8F32
:1056A00000BFFDE70E4B0F4A1A6010BD00C000405E
:1056B0008C5600404881030000F00040E40E00409A
:1056C00058020010409602403001001034010010D2
:1056D000669F000000E0014000ED00E00400FA05D4
:1056E000680100200090D00310B5144C144A1549ED
:1056F000032323616361144BA261E3614FF4806370
:1057000023620023A3626362E36222660F4A626639
:10571000E01D1022A2662367E366636702F062FF62
:10572000BFF35F8F0A49204602F05CFFBFF35F8F33
:105730002023A371BFF35F8F10BD00BF740C002046
:10574000729F00007B9F0000C90D0020B90D002052
:105750007F9F00000E4B70B553F82040013053F886
:105760002060A64200D870BDD4E90035284698478D
:1057700065B1EB6830B10028B8BF4042FF28A8BF30
:10578000FF2018705A7842F001025A700834E8E796
:105790002891000070B5054610B90024204670BD60
:1057A0000378002BF9D00F4A0F4C1646944208D1CB
:1057B0000D4CB442F1D0204603F00CFA50B9183425
:1057C000F7E7204603F006FA10B12368AB42E5D0B4
:1057D0001834EBE72168284602F01EFF0028EED1BE
:1057E000DCE700BF148E00006C8D0000F8B50446A5
:1057F0000E464FF02003EFF3118783F31288BFF3B7
:105800006F8F01F095FC31460546204603F036F9CE
:10581000042C0CD10A490B4A0B488F2302F0B2FE2C
:105820000A4802F0AFFE07488F2102F0D7FD87F348
:105830001188BFF36F8F2846BDE8F840FDF7CAB95D
:10584000A89F0000869F00006E920000C59F000088
:10585000114CA26892F90E20002A08B509DA0F4906
:105860000F48104A272302F08DFE0E48272102F030
:10587000B5FD4FF02002EFF3118382F31288BFF3DE
:105880006F8F02F0B1F8A061FCF7CCFD0028F0D1D9
:10589000FCF77EFEEDE700BF1C0D00201BA0000002
:1058A0006E920000FA9F000030B5002387B00122FD
:1058B000CDE904230F22CDE902320D4C0D4A0193AC
:1058C0000D49182304EBC01403FB00234FF4B075FB
:1058D000009305FB0011094B4FF4A072204601F024
:1058E000A9FD637B23F00403637307B030BD00BFE1
:1058F000E80400201C0D0020602C002051580000FE
:1059000008B50A4B012202201A70FFF723FF02F0AC
:105910004DFB0320FFF71EFF01F03EFEFBF748FCA6
:10592000034A137B23F00103137308BDC911002040
:10593000680500200248034A0021121A02F083BEC3
:10594000480200208813002080B5DFF8D880A6B078
:1059500088F308882D4D2E4E6B69DFF8CC9043F408
:10596000007300246B61E02385F82230EC772C76FD
:105970006C76AC7685F820406B6A43F4E0236B626A
:1059800085F82340FDF7D0F8FCF7FCFD4FF0FF331E
:10599000AB62EB62FDF7F8F9FDF72EF940F2011367
:1059A000ADF8243006ABB360CDE91F4403F011F924
:1059B0002046FFF7CFFE0120164DFFF7CBFE01F08A
:1059C00021FA154B0593012314490094CDE90343B3
:1059D0004FF480624B46CDE901442846F56101F061
:1059E00029FD6A7B22F004026A730746284600F00C
:1059F00009FE2046FFF758FF094BF3604A46394637
:105A000028463475C6F80480FCF7F6FE00ED00E089
:105A10001C0D00206805002043A000004028002045
:105A2000E8040020E0350020015900002DE9F04194
:105A3000164D174C174EA846AC420CD916491748BC
:105A40003C23324602F09EFD154802F09BFD3C21AE
:105A5000304602F0C3FC444502D30020BDE8F0818B
:105A6000D4E9042141EA020313F003030BD1E068F7
:105A7000A361834201D12034DEE7A7690F600133BF
:105A8000A1611144F5E76FF01500E7E7F40100208C
:105A9000F401002048A000006DA000006E920000FC
:105AA0008AA000002DE9F74304460E469046994629
:105AB00000F108054FF02003EFF3118783F31288FC
:105AC000BFF36F8F284601F0F7FD68B9244A2549D6
:105AD0002548812302F056FD2448294602F052FD54
